:020000020000FC
:0200000045C0F9
:0200040076C0C4
:0200080072C0C4
:02000C006DC0C5
:0200100076C0B8
:10008C000FEF0DBF00E10EBF0FEF0ABB07BB04BBA8
:10009C0000E001BB02B90FEF02BB03B90FE009BFCF
:1000AC000AEA00936A00789420E0422F0E948C00A8
:1000BC000E949600E89400E10BBB20D0FCCFFEF729
:1000CC0003E10BBB0A9BFECF08E00BBB0999FECFEB
:1000DC0004E10BBB0899FECF2A95EDCF819B01C0A3
:1000EC00FDCF6894EDCF00E70BBB00E009BFFFCF5D
:1000FC0018952395422F0AD013D01895849B20E095
:10010C00422F0E948C000E949600189560E04A30A5
:10011C001AF063954A50FBCF6295642B562F0895C5
:10012C005F935F7007D008BA5F9152955F7002D0F1
:10013C0005BA0895F1E0EAE4E50F04900895C0F9DA
:0C014C00A4B0999282F88090FFFFFFFFA2
:00000001FF
