:040000000C946C00F0
:100004000C9400000C9400000C9400000C9400006C
:100014000C9400000C9400000C9400000C9400005C
:100024000C9400000C9400000C9400000C9400004C
:100034000C9400000C9400000C9400000C9400003C
:100044000C9400000C9400000C9400000C9400002C
:100054000C9400000C9400000C9400000C9400001C
:100064000C9400000C9400000C9400000C9400000C
:100074000C9400000C9400000C9400000C940000FC
:100084000C9400000C940000700044656D6F2044D3
:100094004143204D43503439323100446174613D51
:1000A4002025346400002D4E414E000080C0010024
:1000B4002D4E414E00494E460000010005008C00C3
:1000C400110000058E0002002105B0000100250585
:1000D400B2000000F894EE27ECBBF1E0F5BFE5BFF9
:1000E400E0936C008DE0A2E0BB27ED938A95E9F7DD
:1000F40080E090E1A0E0B1E0ED930197E9F7EEEB49
:10010400F0E085919591009761F0A591B5910590E6
:100114001590BF01F00105900D920197E1F7FB01E5
:10012400F0CF8BBFEFEFEDBFE0E1EEBFC0E0D5E075
:100134000C94BE00BA93AA930E949409052D11272A
:10014400102F0027EE81FF810E0F1F1FF801F070A2
:100154009F01E12FF070AF01C59AC49AC4984FB9BA
:10016400779BFECF2FB9779BFECFC49AC598C59ACB
:100174000E949B0928960895E0E0EABBEBBBE7E305
:10018400E7BBEFEFE8BBE4BBE0E0E5BBE1BBE2BB10
:10019400E2B9E3B9E0936100E0936200E0936400A4
:1001A400E0936500E0BFE3BFE2BFE1BFEFBDEEBD9A
:1001B400EDBDECBDE7BDE6BDEBBDEABDE9BDE8BD07
:1001C400E0937900E0937800E5BDE4BDE3BDE093FE
:1001D4008B00E0938A00E0938900E0938800E09329
:1001E4008100E0938000E0938700E0938600E09331
:1001F4008500E0938400E0938300E0938200E7BFEE
:10020400E0937D00E0936A00EABFE9BFEAB9E093B6
:100214009A00E0E8E8B9E0E0E0BDE6B9E2E5EDB96E
:10022400E0E0EEB9E0937400A0E10E940305A0E0D1
:10023400B5E00E94F20466247724EFEFFFE0E615B0
:10024400F70520F1D30176DFE1E1F5E0FA93EA93D3
:10025400EFE9F0E0FA93EA93F301662777270E9427
:10026400790984E00E9470042896E0E0EA93A1E012
:100274000E94C404A1E1B5E00E94F204A8ECB0E03D
:100284000E944207F30179963F01D7CFD4CFFFCF25
:10029400BA93AA931A930A93AA81BB8112960E94D5
:1002A4006009309729F1AA81BB8114960E946009E4
:1002B4008F01309761F00230E0E01E0780F0F80112
:1002C40031978F01AA81BB811496ED93FC93AA8187
:1002D400BB8112960E9440063197AC81A083AA810B
:1002E400BB810E946009FF2312F00E94400606C0F1
:1002F400AA81BB81EFEFFFEFED93FC931981088195
:10030400259608950E944606E0E8EA83EFE3EB832E
:100314000E949609EE85FF85EF3FAFEFFA0749F497
:10032400E885F985FA93EA93AAEAB0E00E943105D8
:10033400B7C0EF3FAFE7FA0749F4E885F985FA93C8
:10034400EA93ABEAB0E00E943105AAC0AB85A730BE
:1003540010F0E6E0EB871B85E12F1150E03019F037
:100364000E944D06F9CFEC85FD856E857F850E9440
:10037400900921F430E00E944D062DC03B850E9477
:100384005C0609F008F40BC00E944D060E945C064E
:1003940028F00E9467060E946C06F8CF0DC00E94E8
:1003A4005C0640F40E9467060E9478060E947F065D
:1003B4003150F5CF0E944D06EC85FD856E857F8515
:1003C4000E9484060E947F060E945C0620F00E9420
:1003D40067060E946C0610E0EB85E117A8F1AC817A
:1003E400BD818E819F810E948B060E948406DF015D
:1003F400CB010E948805EC83FD836E837F830E947A
:1004040067060E9490080E947F070E2F0E949206A2
:100414000E949906FF27662777270E94B807AC81B8
:10042400BD818E819F810E9442080E9467060E94BE
:100434009E060E947F06E12F1F5FE03069F60E944E
:100444009206EEE2EC93C8CF0E94A3063197AA85E8
:10045400A08330302CF43195A885B985EDE203C032
:10046400A885B985EBE2EC930E94A3060E94A3063B
:100474003197BF01A32FEAE00E941A09E05DDB0176
:10048400EC930E94A3063197BF01A32FEAE00E94D8
:100494004409E05DDB01EC93A885B985E0E0EC93C9
:1004A4000E949D0960960895BA93AA93EF97619765
:1004B4000E94940910E0FE01E85AFF4F0190F08178
:1004C400E02DE887F987FE01EA5AFF4F0190F08199
:1004D400E02DEE83FF83AE81BF81E0E0F0E0ED9399
:1004E400FC93DE01A45ABF4F0E9440063197E49169
:1004F4002E2FE03009F4E9C1E12FE03039F4253240
:1005040011F411E002C00E94A906DEC1E130C1F479
:10051400253219F40E94A906D6C112E0E0E0ED8B61
:1005240000E02D3211F401E0CFC12B3219F4EBE2DB
:10053400ED8BCAC1203219F4E0E2ED8BC5C102C0D3
:10054400E23039F450E013E0203311F40068BCC108
:1005540002C0E33091F4203310F02A3308F007C0CE
:10056400AAE05A9F502DE22FE0535E0FADC140E048
:100574002E3211F414E0A8C10FC0E43099F42033F2
:1005840010F02A3308F008C00062AAE04A9F402D08
:10059400E22FE0534E0F98C12C3619F4026015E097
:1005A40093C103C0E53009F08FC1E22FE33659F45B
:1005B4000E94B0060E94B7060E94B006A481AA93C6
:1005C4000E94BE0680C1E53411F0E53609F403C08B
:1005D400E63609F048C0FE017696EE87FF870E9452
:1005E400C4060E9464090E94CB060E94D006AD8511
:1005F400AA2332F0AD89AB3259F0A03281F017C092
:100604000E94D2060E944C070E94CB06EDE2ED8BBD
:1006140007FF05C0ED89EA930E94BE0608C0EE8577
:10062400FF853196EE87FF873197AD89A08305FF5B
:1006340046E0263651F40E94D2060E9479094A9374
:10064400AB89BC890E949F0509C00E94D2060E9402
:1006540079094A932A93AC89BD8954DEFE017696C2
:100664000E94D7061EC0E33739F40E94D0060E94C8
:10067400DF060E94D7060EC0E037C1F40E94D00600
:100684000E94DF06EE87FF87AE85BF850E944A057C
:100694001E2F08600F77403011F0411708F001C099
:1006A400142F40E0E0E0EC8B30E06DC0E43611F054
:1006B400E93611F4046002C0E537A1F4EAE0EC8BFA
:1006C40001FF08C0E0E0FAEC6AE97BE30E94E4067B
:1006D4001AE022C0E0E1F7E260E070E00E94E40684
:1006E40015E01AC0E83511F4086003C0E83709F0D2
:1006F400EAC0E0E1EC8B01FF08C0E0E0F0E060E07C
:1007040070E10E94E40618E007C0E0E0F0E160E078
:1007140070E00E94E40614E0403011F00F7701C04D
:1007240041E001FF08C00E94D0060E94C40614964E
:100734000E9464090FC002FF07C00E94D0060E94F5
:10074400DF060E94070906C00E94D0060E94DF0649
:1007540066277727EA87FB876C877D8702FF12C0AD
:10076400AD85AA2342F40E94D2060E94F9080E9491
:10077400CB06EDE2ED8BED89E03019F01F5F4F5FA2
:1007840001C00B7F342F00FD14C0151710F435176A
:1007940008F00FC007FF08C002FF04C00B7F2D89BB
:1007A400115001C020E301C020E20E94A90651506B
:1007B400ECCF141790F4006102FF06C00E94E90612
:1007C40009F0515011504150E0E3EA930E94BE06F3
:1007D400503009F051504150ECCF312FEC89E030CA
:1007E400B9F43030A1F003FF06C0EE85FF852591F2
:1007F400EE87FF8705C0AE85BF852D91AE87BF8785
:100804000E94A906503009F051503150EACF51C02E
:100814000E94FB060E941F092E2F2A3030F003FF8E
:1008240002C0295C01C0295A01C0205D04FD21C019
:10083400213360F4A889B9898A899B89A130E0E0D1
:10084400BE07E0E08E07E0E09E0709F40BC0431703
:1008540040F4531710F000FF01C010C020E207FF5E
:1008640008C020E3006102FF04C00E94E90609F009
:1008740051500E94A906503009F0515031500E9445
:10088400FB060E9450090E94CB06EC89A889B9890D
:100894008A899B89FF27662777270E941F090E9460
:1008A400E406E889F9896A897B890E94900909F03C
:1008B400AFCF00FF08C0503031F05150E0E2EA936E
:1008C4000E94BE06F8CF10E00CCEAE81BF810E941C
:1008D40060090E949B09EF966F960895FF92F82E87
:1008E40026970E9496090E940407309719F4EFEFA7
:1008F400FFEF23C0DE0116960E94F5088D010E94C9
:100904000407EE83FF83E0E0E887E987DE011A96B7
:100914000E94F5080E946009FA93EA931A930A93D5
:10092400EAE4F1E0FA93EA93DE011A96BDDD9F0151
:10093400AE81BF81E0E0EC93F9010E949D092A9603
:10094400FF900895AA93E5B3EF70AE2FE881E07F9E
:10095400EA2BE5BB81E18A95F1F7A99A81E18A95B1
:10096400F1F7A99881E18A95F1F777C0AA93A88154
:10097400E9DFE881E295E883A881E4DF87EA8A95E4
:10098400F1F76BC0AA93E881F0E0EF5DFA4FE081E4
:10099400A981AE0FEBDF4980988022960895A2E0EA
:1009A4000E940B07ACE0E2DFA1E00E940B07E0E04D
:1009B4009E2E4E2E0895AA93A881AA3011F04814B1
:1009C40048F0E0E0EA939394A92DDCDFA881AA30F3
:1009D40009F443C04394A89AA881C8DFA8983DC0ED
:1009E400BA93AA931A93A981BA81ED91A983BA8380
:1009F4001E2FE03019F0A12FDEDFF5CF18812396EA
:100A04000895AA93E4B3E06FE4BBA19AA09AA29AD2
:100A1400A998A898AA988880E881E058E0932305CB
:100A2400E881E054E0932405A4E1B0E00E94420789
:100A34000E9411070E9411070E941107A0E282DFA1
:100A44008AEF90E00197F1F7A8E290DFA4E08EDF4F
:100A5400A5E88CDFA6E08ADFA2DF21960895BA9389
:100A6400AA93E991F991A991B991CD0105900D92BB
:100A74000020E1F7FC010895BA93AA93A991B991D2
:100A8400EE27FF276D91662311F03196FBCF089571
:100A9400BA93AA93AA27BB27E991F991059000205C
:100AA40011F01196FBCFFD0108950E947E097B8110
:100AB4006A81F981E88177FB770F67FD7160972F71
:100AC4009E5781F078F0983190F4AA27BB278827A5
:100AD40008948795B795A7959A95D1F7EA23FB23B0
:100AE400682305C0E8947727EE27FF2766276F77EA
:100AF400769508F4606877F9A991B99189919991EB
:100B0400EA17FB076807790797FB08950E947E0997
:100B14000E946F090E9457050E94740919F40E94EB
:100B24006A0909C0E6F70E946A09A0E0B0E080E81B
:100B34009FE30E94EB0724960895A6D0E0E0EA83A1
:100B4400EFE3EB831A930A93EB85FC85EF3FAFEF5A
:100B5400FA0731F46CD1A4EBB0E00E9431058AC0ED
:100B6400EF3FAFE7FA0731F462D1A5EBB0E00E94A2
:100B7400310580C0AC85AA2352F4E985FA856B85DA
:100B84007C850E944C0758D15CD1EDE2EC93A8859A
:100B9400A73010F0E6E0E8871885E12F1150E03027
:100BA40021F056D1B6D059D1F8CF5CD10E94F207CA
:100BB40043D110E0E0E0F0E060E87FE34ED152D1B1
:100BC4000E94D50868F044D191D047D11F5F1732F5
:100BD40030F02DD1A9EBB0E00E9431054BC0EFCF2E
:100BE400103021F42ED1E0E3EC9320C0E12F11501A
:100BF400E030E1F02DD18DD085D0DF01CB010E9412
:100C040088052BD12FD10E9490080E947F070E2FB8
:100C140018D18DD0F0E01CD10E9407090E94B807BA
:100C24000E94420828D188D007D1E0CFE885E0307F
:100C3400E9F007D1EEE2EC93E885E150E887EF5F55
:100C4400A9F019D153D0F8D0E985FA856B857C8554
:100C54000E947F070E2FF5D06AD0F0E00CD10E94DD
:100C640007090E94B80768D0E7D0E6CFAE81BF81FC
:100C7400E0E0EC93198108812D960895ED91FD91A2
:100C84003196FE93EE930895BA93AA932497E0E0E5
:100C9400E883E9830895AC81BD818E819F81E0E082
:100CA400F0E060E271E40E944208EC83FD836E830D
:100CB4007F830895EC81FD816E817F81AC85BD8544
:100CC4008E859F850E94D5080895AC85BD858E8547
:100CD4009F850895EDECFCEC6CEC7DE30E944208EA
:100CE400EC87FD876E877F873F5F0895E0E0F0E043
:100CF40060E271E40E9442080895EC87FD876E87E4
:100D04007F870895A0E0B0E080E09FE30E94F207AF
:100D14000895EDECFCEC6CEC7DE30E944208089530
:100D2400A885B9851196A887B98711970895E02FEA
:100D3400E05DEC93E02F08950E9483090E94EB0785
:100D44000895E885F9853196E887F98708952A9307
:100D5400AF81B885E985FA8509950895FE01E65ABB
:100D6400FF4F0190F081E02D08953497DE01A65ADB
:100D7400BF4FED93FC930895AF81B885E985FA855B
:100D840009950895DE01A65ABF4F0D90BC91A02D80
:100D94000895EA87FB876C877D870895DFDFE5CFB9
:100DA400EA85FB856C857D850895EE87FF87AE8592
:100DB400BF850E943E051E2F0895E4DF14960E940D
:100DC40060090895E88BF98B6A8B7B8B08950B7F00
:100DD400ED89EA93DE01A95ABF4F0D90BC91A02D75
:100DE400FE01E75AFF4F0190F081E02D0995503044
:100DF4000895E889F9896A897B89AA85BB858C85E8
:100E04009D850895DE011C960E94F5080E946009E4
:100E140008950E94B804A3E0B0E00C944207A0E354
:100E24000E94A4048AEF90E00197F1F70895EE81FF
:100E3400FF81FA93EA930895E987FA876B877C87A1
:100E44000895AE81BF811196AE83BF831197089533
:100E5400AA81BB818C819D810895EA83FB836C8385
:100E64007D830895EA81FB816C817D81A985BA85A2
:100E74008B859C850895A985BA858B859C85089565
:100E8400109639F084EC99E00197F1F7A895119741
:100E9400C9F7089530976040704009F0705808957C
:100EA400552342F4503811F4E0FF04C03196691F11
:100EB400791F6BF050E8572711F45F93CFC05F3F61
:100EC40031F0660F000C57956795752F08955F9361
:100ED40000200AF0CFC0C8C050E8192E1522880F90
:100EE400991F9527550F879550E8072E0522660F01
:100EF400771F7527550F67950895689401C0E89486
:100F04005F93F2DF703818F07F3F08F4A7C056E112
:100F1400571BAAF4519558300EF4593030F0EFEFC6
:100F2400FFEF6FEF7FE777F91AC077275523B9F002
:100F3400EE0FFF1F661F771F5A95D1F710C0772752
:100F4400583028F0EF2FF62F672F5850F9CF55233C
:100F540031F076956795F795E7955A95D1F7002086
:100F64000AF445D15F910895689401C0E8943097DC
:100F740060407040B1F0002426F0772312F400940E
:100F840036D1172E7EE1112032F07A95EE0FFF1F35
:100F9400661F111CF9CFEF2FF62F612D5F938ADFA7
:100FA4005F9108954F93AF01FD01DA01AB01BC01DC
:100FB400CA01402D012C142E4F910895EA0FFB1FF6
:100FC400681F0895E095F0956095EF5FFF4F6F4FB0
:100FD40008955F9381DF903871F150E8152604C0BD
:100FE4005F937ADF903839F1703821F1572F591B0C
:100FF4002BF112F4D7DFFACF583118F0AA27BB2708
:101004008827583028F0AB2FB82F88275850F9CFAD
:10101400552329F08695B795A7955A95D9F7502D5C
:10102400512572F0CBDF38F46795F795E795739502
:1010340013F420C0B7DF3EDF5F910895D8F7FBCFEC
:10104400EA1BFB0B680B51F010F40094BBDF662322
:1010540092F3EE0FFF1F661F7A95CBF7EE27FF275B
:10106400662777275F910895EFEFFFEF6FE77FEF34
:101074005F910895EFEFFFEF6FE77FE75F910895CA
:101084005F932ADF703851F3903841F301240894B8
:10109400791F23F41CF300203AF3ECCF0F921F9333
:1010A4002F933F934F93112722279927689FA001DD
:1010B4008F9F302D410D591F6B9F300D411D591FBE
:1010C4008E9F27D0BF9F25D06A9F23D0BE9F1DD05F
:1010D400AF9F1BD0AE9F110D291F391F491F591FE8
:1010E400E32FF42F652F522F4F913F912F911F9192
:1010F4000F9066232AF0550FEE1FFF1F661F02C0D4
:1011040073954BF2CDDE5F910895100D211D391FAB
:1011140002C0200D311D491F591F08955F93DCDE65
:10112400703821F411200AF49FCFA4CF903809F429
:1011340095CF01240894970B1BF4D4F30020F3CF2C
:10114400792F1F932F933F934F9311241127222715
:1011540033274427552790E2AE17BF078607410778
:1011640030F0AE1BBF0B860B410B089401C0889472
:10117400551F221F331F111CAA1FBB1F881F441F8A
:101184009A9551F7F901612D4F913F912F911F913C
:10119400662332F0550FEE1FFF1F661F7A9543F248
:1011A4007FDE5F91089599239AF0772342F0971791
:1011B40048F029F4AE17BF07860720F031F0989461
:1011C4008894089598940894089518948894089598
:1011D4007723C2F7971798F3A9F7EA17FB0768076D
:1011E40088F399F3ECCF0024AF0DB01D0895F0956A
:1011F40060957095E195FF4F6F4F7F4F0895FE2FD7
:10120400FF0FFF0B6F2F7F2F08956F2F660F660B55
:10121400762F0895002498E0AA0F001C0E1A10F4EB
:101224000E0E01C0A1609A95B9F7EA2FA02D08957A
:1012340039D0F0DF0EF4E19508953F934F935F9317
:10124400002411244427552730E2AA0FBB1F881F0E
:10125400991F001C111C441F551F0E1A1F0A460B10
:10126400570B28F40E0E1F1E461F571F01C0A16006
:101274003A9559F7FD01BC01D001CA015F914F9124
:101284003F910895E894A7FF02C0A1956894E7FDF3
:10129400E195C0DFEA2F0EF4E1950895CEDFFD015C
:1012A400BC010895E894E7FF02C0E1956894A7FFA4
:1012B40004C0A19500F8039400FA0895ED91FC91FF
:1012C40011970895ED91FD916D917C911397089577
:1012D400E881F9816A817B810895A881B9818A8135
:1012E4009B810895E883F9836A837B8308957A93C5
:1012F4006A93FA93EA9308959A938A93BA93AA9372
:101304000895182E862F612D192E972F712D1B2EBF
:10131400BF2FF12D1A2EAE2FE12D08953097604086
:10132400704008955A934A933A932A931A930A93CE
:1013340008955D814C813B812A811981088108953A
:00000001FF
