:060000000C94AC000C940E
:10000600DC000C9400000C9400000C9400000C948E
:1000160000000C9400000C9400000C9400000C945A
:1000260000000C9400000C9400000C9400000C944A
:1000360000000C9400000C9400000C9400000C943A
:1000460000000C9400000C9400000C9400000C942A
:1000560000000C9400000C9400000C9400000C941A
:1000660000000C9400000C9400000C9400000C940A
:1000760000000C9400000C9400000C9400000C94FA
:1000860000000C9400001027E80364000A00010039
:1000960000100001100001000000010053657420EB
:1000A600546865204D696E75746520666F722054BC
:1000B600686520416C61726D200D002564005365F2
:1000C600742054686520486F757220666F722054DC
:1000D600686520416C61726D200D00596F7520773F
:1000E600696C6C206177616B652061742025303204
:1000F600643A253032640D0054616E6767616C00A6
:10010600253032643A2532643A2534640057616BEF
:10011600747500253032643A253032643A2530321F
:10012600640057414B452055500080C001002D4EBC
:10013600414E00494E460000010002009E000100AB
:100146000105A00002002305300101002A05320145
:100156000000F894EE27ECBBF1E0F5BFE5BFE093B5
:100166006C008DE0A2E0BB27ED938A95E9F780E06D
:1001760090E1A0E0B1E0ED930197E9F7EEE3F1E05D
:1001860085919591009761F0A591B591059015908F
:10019600BF01F00105900D920197E1F7FB01F0CF49
:1001A6008BBFEFEFEDBFE0E1EEBFC0E0D5E00C9412
:1001B600E400EA93EFB7C098BB24AA24EFBFE99105
:1001C6001895EFEFE7BBE0E0E8BBEBB9E8E1EAB989
:1001D600E6E0E0939500E0E0E0939000E0E4E9B922
:1001E600E2E0E0936A00E0E0EABFE1E0E9BFE8BFF1
:1001F6000E94A707E0E0EA93A0E0F5D0A0E10E9404
:1002060023037894E2EAF0E00E94E906EAE0F0E0EF
:1002160060E070E00E94F406E4ECF0E00E94E9067B
:10022600EBE0F0E060E070E00E94F406E1EEF0E062
:10023600FA93EA93EB2D0E94FE06EA2D0E94FE0633
:1002460088E00E9402052A960E940407EEEFF0E07D
:100256000E940B07E0E0EA93E9E0F0E0FA93EA9304
:10026600E8E0F0E0FA93EA93ACE0B0E030D1E0E009
:10027600EA93A5E07BD0CE2EDD24F601E07CF0707B
:100286000E940E080E940A086F01E3E1F5E0FA9366
:10029600EA93E6E0F1E0FA93EA93E92D0E94FE067E
:1002A600E82D0E94FE06D6010E949606EC51F84FF4
:1002B600662777270E9428080E941A07A8EEB3E04F
:1002C6000E94F8070E940407E3E1F1E00E940B0791
:1002D600A0910105B0910205169790F5E0E0EA932A
:1002E600E6E0F0E0FA93EA93E7E0F0E0FA93EA93C7
:1002F600E4E0F0E0FA93EA93A5E0B0E0C4D0E3E1ED
:10030600F5E0FA93EA93E9E1F1E0FA93EA93E62D50
:100316000E94FE06E72D0E94FE06E42D0E94FE06C0
:100326000E941A07A8E8B3E10E94F807E0910105C8
:10033600F09102053196E0930105F0930205C8CFCE
:10034600E1E0F0E0E0930105F09302050E94270743
:1003560059F00E94270739F00E940407E8E2F1E00D
:100366000E940B07C09AF2CF6FCFFFCFAA931A93C2
:10037600EA81EE0FE06A1E2F0E94AC07A12F0E94B1
:10038600E007A9810E94E0070E94AC07E12FE16027
:10039600AE2F0E94E007A0E00E94C5071E2F0E9414
:1003A600BB07E12F18810C946503AA930E94AC0742
:1003B600EA81EE0FE06AAE2F0E94E007A9810E9453
:1003C600E007A8810E94E0070E94BB070C94650322
:1003D600AA93E881EA93A0E0C9DFE0930005E1FB78
:1003E60020F80C945B03AA931A9310E9E981E03094
:1003F60009F010EBE0E0E0930005E89420F8EA81CC
:10040600EA93E0E0EA93A0E0D0DFEA81EA93E4E051
:10041600EA93EC81EA93A4E0A9DFEF73AE2FC5DF80
:10042600EA81EA93E8E0EA93A12FBFDF18810C94F2
:1004360065030E943207EF7B0E9439070C945B0329
:100446000E943207E0640E9439070C945B03AA936A
:10045600E981EA93A9818ADFAE2F0E94A006ADC08A
:10046600BA93AA93EB81EA93EB81EA93EA81AE2FE2
:100476009CDFEB81EA93EB81EF5FEB83EA93AB8141
:1004860094DF24960895BA93AA93A885D9DFE885C0
:10049600EA93A1E0DCDFA881B981EC93E885EA93D1
:1004A600A2E0D5DFAA81BB81EC93E885EA93A3E0BD
:1004B600CEDFAC81BD81EC93E885EA93A4E0C7DF8B
:1004C600AE81BF81EC93A885B4DF29960895BA93CF
:1004D600AA930E942F08AA85B3DFEA85EA93A5E0CE
:1004E60045DF1E2FEA85EA93A6E040DFEF71AE2FC7
:1004F6000E94A006AE81BF81EC93AA859ADFE12F08
:10050600EF73AE2F0E94A006A885B985EC931295CD
:100516001F7016951695EA85EA93A0E127DF0E2F40
:10052600EA85EA93A1E122DFFE2FE0E0E02B9F01BE
:10053600E3701E1749F0EA85EA93E0E1EA93F901D0
:1005460031969F01DF018CDFAC81BD812D933C93F9
:100556000E9436082B960895AA93E5B3EF70AE2F46
:10056600E881E07FEA2BE5BB81E18A95F1F7A99A5C
:1005760081E18A95F1F7A99881E18A95F1F70C94C2
:100586005B03AA93A881E8DFE881E295E883A88166
:10059600E3DF87EA8A95F1F70C945B03AA93E88177
:1005A600F0E0ED5DFA4FE081A981AE0FEADFE98167
:1005B600E0932705E881E093280522960895A2E0B6
:1005C6000E944307ACE0DDDFA1E00E944307E0E0C4
:1005D600E0932805E09327050895AA93A881AA30F9
:1005E60031F0E0912905A0912705AE1768F0E0E00B
:1005F600EA93A0912805AF5FA0932805CFDFA881D5
:10060600AA3011F40C945B03E0912705EF5FE093A9
:100616002705A89AA881B5DFA8980C945B03BA931E
:10062600AA931A93A981BA81ED91A983BA831E2F41
:10063600E03019F0A12FD1DFF5CF18810C946503B6
:10064600AA93E4B3E06FE4BBA19AA09AA29AA998F0
:10065600A898AA98E881E0932905E058E093250533
:10066600E881E054E0932605A4E1B0E00E94F80793
:100676000E9449070E9449070E944907A0E26CDFD1
:100686008AEF90E00197F1F7A8E27BDFA4E079DF3B
:10069600A5E877DFA6E075DF92DF0C945B035F9B2E
:1006A600FECFECB10895AA935D9BFECFE881ECB92D
:1006B60021960895BA93AA93AA81F5DFA881B981F4
:1006C6000E94510723960895BA93AA931A930A9300
:1006D600AA81BB8112960E942008309729F1AA812F
:1006E600BB8114960E9420088F01309761F002307A
:1006F600E0E01E0780F0F80131978F01AA81BB81E7
:100706001496ED93FC93AA81BB8112960E94510721
:100716003197AC81A083AA81BB810E942008FF2368
:1007260012F00E94510706C0AA81BB81EFEFFFEFCE
:10073600ED93FC931981088195C1BA93AA932697E4
:100746000E942D0810E0AC85BD85E0E0F0E0ED9359
:10075600FC93EA89FB893196EA8BFB8B3197E4910E
:100766002E2FE03009F415C1E12FE03039F425329F
:1007760011F411E002C00E9457070AC1E130A9F442
:10078600253219F40E94570702C112E040E000E04A
:100796002D3211F401E0FCC02B3211F44BE2F8C00B
:1007A600203211F440E2F4C002C0E23039F450E0E5
:1007B60013E0203311F40068EBC003C0E33009F006
:1007C600E7C0203310F02A3308F007C0AAE05A9F8A
:1007D600502DE22FE0535E0FDBC0E22FE33649F4E3
:1007E6000E945E07E889F989A481AA930E9464079A
:1007F600CEC0E33741F40E945E070E946A070E945A
:10080600D0061E2F0AC0E03761F40E945E070E94E0
:100816006A070E94DC061E2F086002600F7730E030
:1008260034C0E43611F0E93611F4046002C0E5374D
:1008360031F4ECE8F0E0EE83FF8315E00CC0E83518
:1008460011F4086003C0E83709F0A1C0E6E9F0E05A
:10085600EE83FF8314E002FF14C00E945E070E942D
:100866007407AB85AA233AF4EA85FB850E9406083D
:10087600EA87FB874DE2403011F01F5F01C00B7F16
:1008860004C00E945E070E94740700FD11C0151780
:1008960078F407FF08C002FF04C00B7F242F115015
:1008A60001C020E301C020E20E9457075150EFCF5C
:1008B600312F01FF17C03030A1F003FF06C0EE81D3
:1008C600FF812591EE83FF8305C0AE81BF812D9107
:1008D600AE83BF830E945707503009F05150315004
:1008E600EACF4BC020E3EE81FF810E942408E8870F
:1008F600F987EE81FF813296EE83FF83E885F985DD
:10090600AA85BB85AE17BF0750F02F5FA885B985AE
:10091600EA85FB85EA1BFB0BEA87FB87EFCF2A33C9
:1009260028F003FF02C0295F01C0295D04FD1AC03B
:10093600213320F4A885B985119709F409C0531706
:1009460010F000FF01C013C020E207FF0BC020E338
:10095600006102FF07C00B7F4A930E946407503074
:1009660009F051500E945707503009F0515031504C
:10097600A885B985129708F0B5CF00FF08C050309A
:1009860031F05150E0E2EA930E946407F8CF10E09C
:10099600E0CEAC85BD850E9420080E94340864968E
:1009A6000895FF92F82E26970E942F080E947C0732
:1009B600309719F4EFEFFFEF1DC0DE0116960E9487
:1009C60002088D010E947C07EE83FF83E0E0E88742
:1009D600E987DE011A960E948307E7E6F3E0FA93B9
:1009E600EA93DE011A96A9DE9F01AE81BF81E0E09F
:1009F600EC93F9010E9436082A96FF900895FF921B
:100A0600F82E26971A930A93DE0114960E9402087E
:100A16008D01E0E0EC83ED83EE83EF83DE01189633
:100A26000E948307EDE5F3E0FA93EA93DE01189658
:100A360084DE198108812896FF900895BA93AA93B7
:100A46001A93A981BA81E0E0EC93AB81BC81EC9169
:100A56001E2FE03019F0E0E0EC9302C020DE1E2FDE
:100A6600E12F188125960895FF92BA93AA932497A9
:100A76000E942D08E0E0F0E0E887F9874E2FE8892C
:100A8600F9893196E88BF98B3197E4913E2FE03066
:100A960009F425C10E948C07C1F0EDB7FEB7FA93A1
:100AA600EA934F930E9491074F913E2FE03019F041
:100AB6000E948C0709F407C00E9497071CF4EFEF09
:100AC600FFEF0FC1EACF432F09C1353209F0EEC05F
:100AD60050E0E889F9893591E88BF98B303310F0CD
:100AE6003A3308F007C0AAE05A9F502DE32FE0538F
:100AF6005E0FEFCF303009F4F2C0EDB7FEB7FA93D0
:100B0600EA934F930E9491074F912E2FAE2F0E948A
:100B1600B606E03039F00E9497071CF4EFEFFFEFBE
:100B2600E0C0EBCF203009F4D1C0422F503009F499
:100B36005FEFE32FE33699F40E949C07EDB7FEB70B
:100B4600FA93EA934F930E9491074F91D801EC9341
:100B56000E9497071CF4EFEFFFEFC3C0A1C0E33775
:100B660041F50E949C07E52F5150E030F1F0EDB7BA
:100B7600FEB7FA93EA934F930E9491074F913E2F47
:100B8600E03019F00E948C0739F00E9497071CF498
:100B9600EFEFFFEFA6C009C01F930F930F5F1F4F24
:100BA600E32FAF91BF91EC93DECFD801E0E0EC9359
:100BB60077C06894F1F8E894F2F8E32FE43611F080
:100BC600E93619F4E894F1F802C0E53711F42AE0A1
:100BD60008C0E83711F420E104C0E53209F466C024
:100BE6007EC0E0E0EE83EF836894F0F8E52F515085
:100BF600E03009F446C0EDB7FEB7FA93EA934F9397
:100C06000E9491074F913E2FE13238F40E949707D8
:100C16001CF4EFEFFFEF65C017C0F1FC08C0689445
:100C2600F1F83D3211F4F2F8E1CF3B32F9F220311E
:100C360031F4A32F0E94C106E03031F009C0A32F82
:100C46000E94AD06E03021F4F0FC49C0432F19C0E4
:100C5600313610F0375505C0313410F0375301C026
:100C66003053E22FAE81BF81F0E00E941808DF0109
:100C7600E32FF0E0EA0FFB1FEE83FF83E894F0F822
:100C8600B5CF0E949C07F2FE06C0EE81FF810E944E
:100C96000608EE83FF83EE81FF81D801ED93FC9376
:100CA600E885F9853196E887F98718C0EDB7FEB76C
:100CB600FA93EA934F930E9491074F91E31771F0CD
:100CC6000E9497071CF4EFEFFFEF0BC0E885F9854C
:100CD600309719F4EFEFFFEF04C001C0D0CEE885DE
:100CE600F9850E9434086296FF900895FF92F82EC7
:100CF60023971A930A93DE0111960E9402088D012A
:100D0600E0E0EB83EC83DE0115960E948307E1E2C7
:100D1600F5E0FA93EA93DE011896A6DE19810881BA
:100D26002596FF900895BA93AA93E991F991309781
:100D36001AF4E095F09531960895AA93E881E29524
:100D4600EF70AE2FAA0FAA0FEA0FEE0FA991AF70A0
:100D5600EA0F0895AA93E1E0F991F03310F0FA331F
:100D660008F0EE270895AA93E1E0F991F03229F010
:100D7600F93010F0FE3008F0EE270895AA93E1E06E
:100D8600F991F05340F0FA3038F0FF75F750FA3029
:100D960010F0F03108F0EE270895BA93AA93A991BE
:100DA600B991EE27FF276D91662311F03196FBCF9F
:100DB6000895BA93AA93AA27BB27E991F9910590BA
:100DC600002011F01196FBCFFD010895FA93EA93E6
:100DD60080E00E9402052296E1ECF0E0FA93EA93A5
:100DE60008950E94280884E00E9479062696A4E6C3
:100DF600B0E00C94F807FF27662777270E9428089B
:100E060008950E94E202E3E0F5E0FA93EA9308957A
:100E1600FA93EA9380E00E94D4042496E0E0EA93F1
:100E2600A0E00E94D102A3E0B5E00C9412038CE08E
:100E36000E94D4046096E0E0EA93A1E00E94D10209
:100E4600A3E1B5E00C941203EB2DA62D0E94130826
:100E56000E2EEA2DA72D0E941308E0210895AA93CD
:100E6600A8810E94EB01E09100050895E09300053A
:100E7600E881EA93E0E0EA93A09100050C94D8019A
:100E86000E94C402A3E0B0E00C94F807A0E30E941D
:100E9600AF028AEF90E00197F1F70895ED91FD9189
:100EA6003196FE93EE9308952A93AD85BE85EF8520
:100EB600F88909950895E889F9893497E88BF98BBB
:100EC6000895AD85BE85EF85F88909950895A889A9
:100ED600B98914960E942008EE83FF83AE81BF81F4
:100EE6000895A889B98914960E942008EA87FB8785
:100EF6000895DE011C960E9402080E9420080895AB
:100F06000E9402080E942008FA93EA931A930A9311
:100F16000895A32F0E94B606E0300895AC85BD85DE
:100F2600EE85FF8509950895AA85BB85AC91A0300D
:100F36000895EE85FF853497EE87FF87AE85BF85DA
:100F460014960D911C910895D898D998D09AD19855
:100F560015C0D198D098EE270000C99B0895C89B6C
:100F6600089504D0D19A02D0D09AE1E061E107C099
:100F7600D19AD09A03D0D098F9DFD19861E26A95D8
:100F8600F1F7089578E0D098F1DFC89BFECFEEDF49
:100F96008894C9990894D09AF1DFEE1F7A9599F74B
:100FA6007A2F772311F4D19801C0D19ADFDFD09838
:100FB600E5DFD09ADBDFD198D9CF78E0AA0F10F41D
:100FC600D19801C0D19ADADFD098D0DFC89BFECF86
:100FD600CDDFD09A7A9591F7D198C8DFD098CEDF39
:100FE600E1E0C999EE27D09AC1CF109639F084EC8A
:100FF60099E00197F1F7A8951197C9F7089500248C
:10100600AF0DB01D0895F195E195F0400895F69560
:10101600E795F695E795F695E795F695E79508959C
:10102600EA17E1E009F0EE270895FA9FF02DEB9F0D
:10103600F00DEA9FE02DF10D0895ED91FC911197C9
:1010460008950590F491E02D08957A936A93FA93A2
:10105600EA9308955A934A933A932A931A930A93D2
:1010660008955D814C813B812A811981088108950B
:00000001FF
