:020000000C945E
:1000020085000C94B5000C94BE000C94D8000C949E
:1000120000000C9400000C9400000C9400000C945E
:1000220000000C9400000C9400000C9400000C944E
:10003200D9000C9400000C9400000C9400000C9465
:1000420000000C9400000C9400000C9400000C942E
:1000520000000C9400000C9400000C9400000C941E
:1000620000000C9400000C9400000C9400000C940E
:1000720000000C9400000C9400000C9400000C94FE
:1000820000000C9400000C9400000000536875748A
:10009200646F776E2E2E21004F4646004F4E200091
:1000A200476167616C2E2E2E210050524F434553FB
:1000B2005320434F4E54524F4C0050726F7365732E
:1000C200204973692E2E2E2E0053756B7365732E85
:1000D2002E2E2E210050726F7365732050616E6157
:1000E200732E2E2E2E0050726F736573204B6F731A
:1000F2006F6E672E2E2E000080C0010002008C0061
:1001020002000005FA000000F894EE27ECBBF1E0D3
:10011200F5BFE5BFE0936C008DE0A2E0BB27ED9355
:100122008A95E9F780E090E1A0E0B1E0ED930197D4
:10013200E9F7ECEFF0E085919591009761F0A591D8
:10014200B59105901590BF01F00105900D920197B0
:10015200E1F7FB01F0CF8BBFEFEFEDBFE0E1EEBFC8
:10016200C0E0D5E00C94FC000E9430020E943E02E6
:10017200AEE8B0E00E94440227C00E943002A0E034
:1001820020FCA1E0E1E0EA270E94740220F820FCB2
:1001920005C00E944902AAE9B0E004C00E944902D7
:1001A200AEE9B0E00E94F2010E944D020DC0189526
:1001B2000E9430025394EAE0E51531F40E943E02B7
:1001C200A2EAB0E00E944402E991EFBFF991E991FD
:1001D200B991A9919991899179916991F99019901F
:1001E20009901895E0E0EDBDECBD5524ECE001C0AE
:1001F200E0E0EEBD0895E0E0EABBEBBBEFEFE7BB6A
:10020200E8E0E8BBEFEFE4BBE0E0E5BBE1BBEFEF2A
:10021200E2BBE0E0E2B9E3B9E0936100E09362009F
:10022200E0936400E0936500E0BFE3BFE2BFE1BF9B
:10023200EFBDECE0EEBDE0E0EEBDEDBDECBDE7BD37
:10024200E6BDE8E9EBBDE6E9EABDE0E0E9BDE8BD0F
:10025200E0937900E0937800E5BDE4BDE3BDE0936F
:100262008B00E0938A00E0938900E0938800E0939A
:100272008100E0938000E0938700E0938600E093A2
:100282008500E0938400E0938300E0938200E0E144
:10029200E7BFE0E0E0937D00EAE0E0936A00E0E09F
:1002A200EABFE7E0E9BFE8BFE0E0EAB9E0939A001D
:1002B200E0E8E8B9E0E0E0BDE6B9EDB9E09374004A
:1002C200A0E10E940502789433D0ACEAB0E00E942B
:1002D200F2010E944902AAE9B0E00E94F20120FE66
:1002E20025C00E94D301E9E0E8BBACEBB0E00E947C
:1002F20051028599FECF0E9454020E94D301E4E08C
:10030200E8BBA7EDB0E00E945102869BFECF0E949F
:1003120054020E94D301EAE0E8BBA8EEB0E00E94DA
:1003220051028499FECF0E945402D9CFD8CFFFCF79
:10033200E5B7E062E5BF0895E5B7E37EE061E5BFBA
:10034200EFB778948895EFBF0895AA93E5B3EF705D
:10035200AE2FE881E07FEA2BE5BB81E18A95F1F7D8
:10036200A99A81E18A95F1F7A99881E18A95F1F735
:1003720074C0AA93A881E9DFE881E295E883A881A5
:10038200E4DF87EA8A95F1F768C0AA93E881F0E092
:10039200E050FB4FE081A981AE0FEBDF498078800E
:1003A20022960895A2E089D0ACE0E3DFA1E085D0F7
:1003B200E0E07E2E4E2E0895AA93A881AA3011F075
:1003C200461448F0E0E0EA937394A72DDEDFA8819B
:1003D200AA3009F442C04394A89AA881CADFA89817
:1003E2003CC0BA93AA931A93E981FA813196E983C0
:1003F200FA833197E4911E2FE03019F0A12FDCDF50
:10040200F3CF188123960895AA93E4B3E06FE4BB77
:10041200A19AA09AA29AA998A898AA986880E88115
:10042200E058E0930205E881E054E0930305A4E17B
:10043200B0E00E946A0246D045D044D0A0E285DFF7
:100442008AEF90E00197F1F7A8E293DFA4E091DF51
:10045200A5E88FDFA6E08DDFA5DF219608950A9239
:100462001A92FA926A937A938A939A93AA93BA9374
:10047200EA93FA93EFB7EA930895E8E1E8BBE0E084
:10048200EA93A1E082CFADDFE0E0E9BF0C949D01E9
:10049200E6E0EA93A1E079CFA8EEB3E00C946A0219
:1004A200A0DF0C94F3000E94F900E0E0EA93A1E0DF
:1004B2006CDFABECB0E095DFEFCF5BDFA3E0B0E049
:1004C2000C946A02A0E341DF8AEF90E00197F1F712
:1004D2000895109639F084EC99E00197F1F7A89508
:1004E2001197C9F70895E894EE2309F068940895E6
:00000001FF
