:0C0000000C949B000C94CB000C94DB00D3
:10000C000C9411010C9421010C9400000C94000030
:10001C000C9400000C9400000C9400000C94000054
:10002C000C9400000C9400000C9400000C94000044
:10003C000C9400000C9400000C9400000C94000034
:10004C000C9400000C9400000C9400000C94000024
:10005C000C9400000C9400000C9400000C94000014
:10006C000C9400000C9400000C9400000C94000004
:10007C000C9400000C9400000C9400000C940000F4
:10008C001027E80364000A000100001000011000B2
:10009C000100000053687574646F776E2E2E21007A
:1000AC0050524F4345535320434F4E54524F4C00E4
:1000BC00484F4C440041646420636F756E746572E4
:1000CC0020212121004F4E202000436F756E746556
:1000DC0072203D20256420004F46460046696C6C1A
:1000EC002070726F636573732E2E2E0053756363CD
:1000FC0065732E2E2E2E2100486561742070726F50
:10010C00636573732E2E2E00456D7074792070729A
:10011C006F636573732E2E2E000080C001000200E9
:10012C009E000200100526010000F894EE27ECBB9F
:10013C00F1E0F5BFE5BFE0936C008DE0A2E0BB27DA
:10014C00ED938A95E9F780E090E1A0E0B1E0ED93C2
:10015C000197E9F7E8E2F1E085919591009761F05C
:10016C00A591B59105901590BF01F00105900D92E8
:10017C000197E1F7FB01F0CF8BBFEFEFEDBFE0E1B3
:10018C00EEBFC0E0D5E00C943F010E943C04E0E7D8
:10019C00EBBB0E944A04A1E00E94A503A0EAB0E0D8
:1001AC000E94E203E0E0E9BF56C00E943C04A0E0DC
:1001BC0020FCA1E0E1E0EA270E94E30420F820FC07
:1001CC0004C00024041405040CF009C00E944A0465
:1001DC000E944F040E945604ACEBB0E017C020FC08
:1001EC0005C0E0E0F0E02F01309709F407C00E9451
:1001FC005B040E946204A1ECB0E008C00E944A04B7
:10020C000E944F040E945604A1EDB0E00E94E2034C
:10021C000E94670420C00E943C04F20131962F0119
:10022C000E944A040E944F040E9462040E946B04C4
:10023C00A4EFB1E00EC00E943C04442455240E945B
:10024C004A040E944F040E9462040E946B04A8EEB0
:10025C00B3E00E94BF04E991EFBFF991E991B99124
:10026C00A9919991899179916991F9901990099035
:10027C001895EFE7EABBE0E1EBBBE0E0E7BBE8BBDE
:10028C00E4BBE5BBE1BBE2BBE7E0E2B9E3E0E3B929
:10029C00E0E0E0936100E0936200E0936400E0939F
:1002AC006500EAEAE0936A00E0E0EABFEFE0E9BF4C
:1002BC00E8BFA0E10E94F5037894ACEAB0E00E949C
:1002CC00E2030E945604A4EEB0E00E94E203042C68
:1002DC00052849F40E945B040E946204A1ECB0E082
:1002EC000E94E20308C00E944A040E944F040E942C
:1002FC0062040E946B04A8EEB3E00E94BF0420FECF
:10030C0004C00024041405040CF03EC00E94B20387
:10031C00E3E1EBBBA8EEB0E00E94E2030A9BFECF48
:10032C000E9462040E9480040E94B203E8E0EBBBCE
:10033C00A4E0B1E00E94E2030999FECF0E9462049E
:10034C000E9480040E94B203E4E2EBBBA4E1B1E0A2
:10035C000E94E2030899FECF0E946204A8EFB0E06D
:10036C000E94E203F20131972F010E9467040E9460
:10037C004A040E944F040E9462040E946B04E0E154
:10038C00EBBB0E946704BBCF042C052871F4E894E6
:10039C0020F8E0E0EA930E944F040E946204A1EC72
:1003AC00B0E00E94E2030E94670491CFFFCFBA93A2
:1003BC00AA931A930A93AA81BB8112960E94D6041F
:1003CC00309759F1AA81BB8114960E94D6048F01F3
:1003DC00309761F00230E0E01E0798F0F801319799
:1003EC008F01AA81BB811496ED93FC93AA81BB81EA
:1003FC001296ED91FD913196FE93EE933197AC816F
:10040C00A083AA81BB810E94D604FF232AF0ED9120
:10041C00FD913196FE93EE9306C0AA81BB81EFEF5E
:10042C00FFEFED93FC931981088125960895BA93FB
:10043C00AA9326970E94E80410E0AC85BD85E0E005
:10044C00F0E0ED93FC93EA89FB893196EA8BFB8B08
:10045C003197E4912E2FE03009F415C1E12FE030F3
:10046C0039F4253211F411E002C00E9485040AC14E
:10047C00E130A9F4253219F40E94850402C112E07E
:10048C0040E000E02D3211F401E0FCC02B3211F4FD
:10049C004BE2F8C0203211F440E2F4C002C0E2306A
:1004AC0039F450E013E0203311F40068EBC003C0C2
:1004BC00E33009F0E7C0203310F02A3308F007C00E
:1004CC00AAE05A9F502DE22FE0535E0FDBC0E22FC3
:1004DC00E33649F40E948C04E889F989A481AA9333
:1004EC000E949204CEC0E33741F40E948C040E9417
:1004FC0098040E9423041E2F0AC0E03761F40E9466
:10050C008C040E9498040E942F041E2F0860026025
:10051C000F7730E034C0E43611F0E93611F40460A2
:10052C0002C0E53731F4ECE8F0E0EE83FF8315E030
:10053C000CC0E83511F4086003C0E83709F0A1C01D
:10054C00E6E9F0E0EE83FF8314E002FF14C00E94A2
:10055C008C040E94A204AB85AA233AF4EA85FB859D
:10056C000E94CD04EA87FB874DE2403011F01F5FFB
:10057C0001C00B7F04C00E948C040E94A20400FDE9
:10058C0011C0151778F407FF08C002FF04C00B7FD9
:10059C00242F115001C020E301C020E20E948504E9
:1005AC005150EFCF312F01FF17C03030A1F003FFB6
:1005BC0006C0EE81FF812591EE83FF8305C0AE81DD
:1005CC00BF812D91AE83BF830E948504503009F00A
:1005DC0051503150EACF4BC020E3EE81FF810E9495
:1005EC00DA04E887F987EE81FF813296EE83FF8388
:1005FC00E885F985AA85BB85AE17BF0750F02F5F3C
:10060C00A885B985EA85FB85EA1BFB0BEA87FB8786
:10061C00EFCF2A3328F003FF02C0295F01C0295D08
:10062C0004FD1AC0213320F4A885B985119709F46B
:10063C0009C0531710F000FF01C013C020E207FFE0
:10064C000BC020E3006102FF07C00B7F4A930E949E
:10065C009204503009F051500E948504503009F03A
:10066C0051503150A885B985129708F0B5CF00FFCD
:10067C0008C0503031F05150E0E2EA930E949204ED
:10068C00F8CF10E0E0CEAC85BD850E94D6040E9468
:10069C00EF0464960895FF92F82E26970E94EA04C0
:1006AC000E94AA04309719F4EFEFFFEF23C0DE018C
:1006BC0016960E94C9048D010E94AA04EE83FF8342
:1006CC00E0E0E887E987DE011A960E94C9040E94DF
:1006DC00D604FA93EA931A930A93EDEDF1E0FA93A8
:1006EC00EA93DE011A96A3DE9F01AE81BF81E0E0A2
:1006FC00EC93F9010E94F1042A96FF900895AA93B5
:10070C00E5B3EF70AE2FE881E07FEA2BE5BB81E12A
:10071C008A95F1F7A99A81E18A95F1F7A99881E177
:10072C008A95F1F788C0AA93A881E9DFE881E29560
:10073C00E883A881E4DF87EA8A95F1F77CC0AA9365
:10074C00E881F0E0E05FFA4FE081A981AE0FEBDFCA
:10075C007980688022960895A2E00E94B104ACE0F2
:10076C00E2DFA1E00E94B104E0E06E2E7E2E08953F
:10077C00AA93A881AA3011F0791448F0E0E0EA932A
:10078C006394A62DDCDFA881AA3009F454C07394BD
:10079C00A89AA881C8DFA8984EC0BA93AA931A93B6
:1007AC00A981BA81ED91A983BA831E2FE03019F08B
:1007BC00A12FDEDFF5CF10C0BA93AA931A93E9816B
:1007CC00FA813196E983FA833197E4911E2FE03058
:1007DC0019F0A12FCDDFF3CF188123960895AA939A
:1007EC00E4B3E06FE4BBA19AA09AA29AA998A89846
:1007FC00AA989880E881E058E0931205E881E054CB
:10080C00E0931305A4E1B0E00E94BF040E94B7047A
:10081C000E94B7040E94B704A0E271DF8AEF90E057
:10082C000197F1F7A8E27FDFA4E07DDFA5E87BDF8D
:10083C00A6E079DF91DF21960895BA93AA93A99146
:10084C00B991EE27FF276D91662311F03196FBCFFE
:10085C000895BA93AA93AA27BB27E991F991059019
:10086C00002011F01196FBCFFD0108950A921A9207
:10087C00FA926A937A938A939A93AA93BA93EA9385
:10088C00FA93EFB7EA9308950E94B203E0E0EA937B
:10089C000895A0E00E94A503ACEAB0E00C94E2033A
:1008AC00E6E0EA93A1E00C94A5030E94B203E0E118
:1008BC00EBBBE0E0EA93EDCFE0E0EA93A1E00C942F
:1008CC00A503A8EEB3E00C94BF04E0E0F5E0FA93C6
:1008DC00EA93E6EDF0E0FA93EA93F2010E94D10478
:1008EC000E94DE0484E00E9451032896A0E0B5E04B
:1008FC000C94D303A8EFB0E00E94E203E2CF2A935A
:10090C00AD85BE85EF85F88909950895E889F98943
:10091C003497E88BF98B0895AD85BE85EF85F88902
:10092C0009950895A889B98914960E94D604EE8376
:10093C00FF83AE81BF810895A889B98914960E945E
:10094C00D604EA87FB870895DE011C960E94C90431
:10095C000E94D60408950E949903A3E0B0E00C9481
:10096C00BF04A0E30E9485038AEF90E00197F1F7A2
:10097C000895109639F084EC99E00197F1F7A89559
:10098C001197C9F708950024AF0DB01D0895F19586
:10099C00E195F04008956F2F660F660B762F089542
:1009AC00ED91FC91119708950590F491E02D089527
:1009BC007A936A93FA93EA930895E894EE2309F0F4
:1009CC00689408955A934A933A932A931A930A93E4
:1009DC0008955D814C813B812A811981088108959C
:00000001FF
