:060000000C94CE000C94EC
:1000060000000C9400000C9400000C9400000C946A
:1000160000000C9400000C9400000C9400000C945A
:1000260000000C9400000C9400000C9400000C944A
:1000360000000C9400000C9400000C9400000C943A
:1000460000000C9400000C9400000C9400000C942A
:1000560000000C9400000C9400000C9400000C941A
:1000660000000C9400000C9400000C9400000C940A
:1000760000000C9400000C9400000C9400000C94FA
:1000860000000C9400001027E80364000A00010039
:1000960000100001100001004D6173756B6B616EFD
:1000A600206E616D6120646570616E20616E6461B1
:1000B600203A200D002573004D6173756B6B616EE0
:1000C600206E616D612062656C616B616E67206197
:1000D6006E6461203A200D004D6173756B6B616E25
:1000E600206E6F6D6F72206B656C6F6D706F6B201D
:1000F600616E6461203A200D004D6173756B6B6112
:100106006E2049504B20616E6461203A200D004DEF
:100116006173756B6B616E20656D61696C20616ED4
:100126006461203A200D00446174612079616E6734
:100136002074656C616820616E646120696E7075FB
:10014600743A200D004E616D6120646570616E3AEF
:10015600202573200D004E616D612062656C616B18
:10016600616E673A202573200D004E6F6D6F722009
:100176006B656C6F6D706F6B3A202573200D0049AF
:10018600504B3A202573200D00456D61696C3A206D
:100196002573200D0000F894EE27ECBBF1E0F5BFC7
:1001A600E5BFE0936C008DE0A2E0BB27ED938A9556
:1001B600E9F780E090E1A0E0B1E0ED930197E9F77F
:1001C6008BBFEFEFEDBFE0E1EEBFC0E0D5E00C94F2
:1001D600EC00E0E0EBB9E8E1EAB9E6E0E09395008F
:1001E600E0E0E0939000E0E4E9B9E0E0E0939A0013
:1001F600E0E8E8B9E0E0E0BDEEE9F0E00E947E0468
:100206000E948D040E949504EEEBF0E00E947E04AD
:100216000E949C040E949504EEEDF0E00E947E048C
:100226000E94A4040E949504EFEFF0E00E947E0471
:100236000E94AC040E949504E5E1F1E00E947E0470
:100246000E94B4040E9495040E94BC04EDE2F1E011
:10025600FA93EA9380E00E94AE022296EBE4F1E084
:10026600FA93EA930E948D040E94AE022696ECE56C
:10027600F1E0FA93EA930E949C040E94AE0226964D
:10028600E0E7F1E0FA93EA930E94A4040E94AE022A
:100296002696E5E8F1E0FA93EA930E94AC040E9400
:1002A600AE022696EFE8F1E0FA93EA930E94B404D0
:1002B6000E94AE0226960E94BC049ECFFFCF5F9B93
:1002C600FECFECB10895AA935D9BFECFE881ECB911
:1002D60021960895BA93AA93AA81F5DFA881B981D8
:1002E600ED91FD913196FE93EE9323960895BA9380
:1002F600AA9326970E94350510E0AC85BD85E0E0FF
:10030600F0E0ED93FC93EA89FB893196EA8BFB8B4F
:100316003197E4912E2FE03009F415C1E12FE0303A
:1003260039F4253211F411E002C00E94C5040AC155
:10033600E130A9F4253219F40E94C50402C112E085
:1003460040E000E02D3211F401E0FCC02B3211F444
:100356004BE2F8C0203211F440E2F4C002C0E230B1
:1003660039F450E013E0203311F40068EBC003C009
:10037600E33009F0E7C0203310F02A3308F007C055
:10038600AAE05A9F502DE22FE0535E0FDBC0E22F0A
:10039600E33649F40E94CC04E889F989A481AA933A
:1003A6000E94D204CEC0E33741F40E94CC040E94DE
:1003B600D8040E9465041E2F0AC0E03761F40E942B
:1003C600CC040E94D8040E9471041E2F08600260AB
:1003D6000F7730E034C0E43611F0E93611F40460EA
:1003E60002C0E53731F4ECE8F0E0EE83FF8315E078
:1003F6000CC0E83511F4086003C0E83709F0A1C065
:10040600E6E9F0E0EE83FF8314E002FF14C00E94E9
:10041600CC040E94E204AB85AA233AF4EA85FB8564
:100426000E941C05EA87FB874DE2403011F01F5FF2
:1004360001C00B7F04C00E94CC040E94E20400FDB0
:1004460011C0151778F407FF08C002FF04C00B7F20
:10045600242F115001C020E301C020E20E94C504F0
:100466005150EFCF312F01FF17C03030A1F003FFFD
:1004760006C0EE81FF812591EE83FF8305C0AE8124
:10048600BF812D91AE83BF830E94C504503009F011
:1004960051503150EACF4BC020E3EE81FF810E94DC
:1004A6002C05E887F987EE81FF813296EE83FF837C
:1004B600E885F985AA85BB85AE17BF0750F02F5F83
:1004C600A885B985EA85FB85EA1BFB0BEA87FB87CE
:1004D600EFCF2A3328F003FF02C0295F01C0295D50
:1004E60004FD1AC0213320F4A885B985119709F4B3
:1004F60009C0531710F000FF01C013C020E207FF28
:100506000BC020E3006102FF07C00B7F4A930E94E5
:10051600D204503009F051500E94C504503009F001
:1005260051503150A885B985129708F0B5CF00FF14
:1005360008C0503031F05150E0E2EA930E94D204F4
:10054600F8CF10E0E0CEAC85BD850E9428050E945C
:100556003C0564960895FF92F82E26971A930A93FF
:10056600DE0114960E9418058D01E0E0EC83ED8310
:10057600EE83EF83DE0118960E94EA04EDE6F1E0D1
:10058600FA93EA93DE011896B2DE1981088128965D
:10059600FF900895BA93AA931A93A981BA81E0E0CD
:1005A600EC93AB81BC81EC911E2FE03019F0E0E0BA
:1005B600EC9302C084DE1E2FE12F18812596089544
:1005C600FF92BA93AA9324970E943505E0E0F0E0E3
:1005D600E887F9874E2FE889F9893196E88BF98BF8
:1005E6003197E4913E2FE03009F425C10E94F304CF
:1005F600C1F0EDB7FEB7FA93EA934F930E94F80461
:100606004F913E2FE03019F00E94F30409F407C021
:100616000E94FE041CF4EFEFFFEF0FC1EACF432F59
:1006260009C1353209F0EEC050E0E889F989359103
:10063600E88BF98B303310F03A3308F007C0AAE0A4
:100646005A9F502DE32FE0535E0FEFCF303009F461
:10065600F2C0EDB7FEB7FA93EA934F930E94F804FF
:100666004F912E2FAE2F0E944B04E03039F00E949E
:10067600FE041CF4EFEFFFEFE0C0EBCF203009F4EF
:10068600D1C0422F503009F45FEFE32FE33699F4DF
:100696000E940305EDB7FEB7FA93EA934F930E94C3
:1006A600F8044F91D801EC930E94FE041CF4EFEF7E
:1006B600FFEFC3C0A1C0E33741F50E940305E52F54
:1006C6005150E030F1F0EDB7FEB7FA93EA934F934D
:1006D6000E94F8044F913E2FE03019F00E94F30477
:1006E60039F00E94FE041CF4EFEFFFEFA6C009C02C
:1006F6001F930F930F5F1F4FE32FAF91BF91EC93A3
:10070600DECFD801E0E0EC9377C06894F1F8E89486
:10071600F2F8E32FE43611F0E93619F4E894F1F82B
:1007260002C0E53711F42AE008C0E83711F420E1E9
:1007360004C0E53209F466C07EC0E0E0EE83EF83D4
:100746006894F0F8E52F5150E03009F446C0EDB753
:10075600FEB7FA93EA934F930E94F8044F913E2F07
:10076600E13238F40E94FE041CF4EFEFFFEF65C09F
:1007760017C0F1FC08C06894F1F83D3211F4F2F8A4
:10078600E1CF3B32F9F2203131F4A32F0E94560417
:10079600E03031F009C0A32F0E944204E03021F47A
:1007A600F0FC49C0432F19C0313610F0375505C04B
:1007B600313410F0375301C03053E22FAE81BF8180
:1007C600F0E00E942005DF01E32FF0E0EA0FFB1FB7
:1007D600EE83FF83E894F0F8B5CF0E940305F2FE9E
:1007E60006C0EE81FF810E941C05EE83FF83EE8129
:1007F600FF81D801ED93FC93E885F9853196E8876A
:10080600F98718C0EDB7FEB7FA93EA934F930E94A3
:10081600F8044F91E31771F00E94FE041CF4EFEF09
:10082600FFEF0BC0E885F985309719F4EFEFFFEF7E
:1008360004C001C0D0CEE885F9850E943C056296C9
:10084600FF900895FF92F82E23971A930A93DE01DC
:1008560011960E9418058D01E0E0EB83EC83DE0122
:1008660015960E94EA04EDECF2E0FA93EA93DE01B3
:100876001896A6DE198108812596FF900895AA93F9
:10088600E1E0F991F03310F0FA3308F0EE2708951D
:10089600AA93E1E0F991F03229F0F93010F0FE3038
:1008A60008F0EE270895AA93E1E0F991F05340F09D
:1008B600FA3038F0FF75F750FA3010F0F03108F0E2
:1008C600EE270895BA93AA93A991B991EE27FF2727
:1008D6006D91662311F03196FBCF0895BA93AA93D2
:1008E600AA27BB27E991F9910590002011F01196EE
:1008F600FBCFFD010895FA93EA9380E00E94AE02D1
:100906002296A4EFB1E00E940E05EBEBF0E0FA931D
:10091600EA930895E0E0F5E0662777270E94300520
:1009260084E008950E9425042696A4EFB1E00C9475
:100936000E05EFEFF5E0662777270E94300584E085
:100946000895EEEFF6E0662777270E94300584E0EB
:100956000895EDEFF7E0662777270E94300584E0DB
:100966000895ECEFF8E0662777270E94300584E0CB
:100976000895E9EBF0E0FA93EA9380E00E94AE0274
:10098600229608952A93AD85BE85EF85F889099547
:100996000895E889F9893497E88BF98B0895AD8530
:1009A600BE85EF85F88909950895A889B9891496B1
:1009B6000E942805EE83FF83AE81BF810895A88932
:1009C600B98914960E942805EA87FB8708950E9434
:1009D60018050E942805FA93EA931A930A93089534
:1009E600A32F0E944B04E0300895AC85BD85EE85AB
:1009F600FF8509950895AA85BB85AC91A030089519
:100A0600EE85FF853497EE87FF87AE85BF85149602
:100A16000D911C910895109639F084EC99E0019798
:100A2600F1F7A8951197C9F708950024AF0DB01DE9
:100A36000895F195E195F0400895FA9FF02DEB9F0A
:100A4600F00DEA9FE02DF10D0895ED91FC911197BF
:100A560008950590F491E02D08957A936A93FA9398
:100A6600EA9308955A934A933A932A931A930A93C8
:100A760008955D814C813B812A8119810881089501
:00000001FF
