:060000000C9471000C9449
:10000600AA000C94B2000C9400000C9400000C940E
:1000160000000C9400000C9400000C9400000C945A
:1000260000000C9400000C9400000C94BE000C948C
:1000360000000C9400000C9400000C9400000C943A
:1000460000000C9400000C9400000C9400000C942A
:1000560000000C9400000C9400000C9400000C941A
:1000660000000C9400000C9400000C9400000C940A
:1000760000000C9400000C9400000C9400000C94FA
:1000860000000C9400001027E80364000A00010039
:10009600001000011000010000001414144649531A
:1000A600494B412D2D5549141414436F756E7465D3
:1000B600723D20252D356400436170656B206465B3
:1000C600682E2E2E210080C0020006009E00100021
:1000D6000005A00002002005CC000000F894EE27E1
:1000E600ECBBF1E0F5BFE5BFE0936C008DE0A2E06C
:1000F600BB27ED938A95E9F780E090E1A0E0B1E0B7
:10010600ED930197E9F7EEECF0E085919591009774
:1001160061F0A591B59105901590BF01F00105908C
:100126000D920197E1F7FB01F0CF8BBFEFEFEDBF2B
:10013600E0E1EEBFC0E0D5E00C94E800E0E0EDBD04
:10014600ECBD4424ECE001C0E0E0EEBD08950E9461
:10015600F303F30131963F010E94020428C00E9476
:10016600F30300240614070418F4F30131973F0142
:100176000E9402041CC00A921A92FA926A937A9317
:100186008A939A93AA93BA93EA93FA93EFB7EA9368
:100196004394EAE0E41559F4E0E0EA93A1E0D5D00F
:1001A600AEEBB0E00FD1E0E0EEBD0E94EB03E991CB
:1001B600EFBFF991E991B991A991999189917991B5
:1001C6006991F990199009901895E0E0EABBEBBBAC
:1001D600EFEFE7BBE0E0E8BBEFEFE4BBE0E0E5BB59
:1001E600E1BBEFEFE2BBE0E0E2B9E3B9E093610027
:1001F600E0936200E0936400E0936500E0BFE3BF34
:10020600E2BFE1BFEFBDECE0EEBDE0E0EDBDECBD71
:10021600E7BDE6BDE8E9EBBDE6E9EABDE0E0E9BD3C
:10022600E8BDE0937900E0937800E5BDE4BDE3BD69
:10023600E0938B00E0938A00E0938900E0938800C6
:10024600E0938100E0938000E0938700E0938600CE
:10025600E0938500E0938400E0938300E0938200BE
:10026600E0E1E7BFE0E0E0937D00EAE0E0936A00CA
:10027600E0E0EABFE3E0E9BFE8BFE0E0EAB9E09327
:100286009A00E0E8E8B9E0E0E0BDE6B9EDB9E09350
:100296007400A0E1AAD0E0E0EA93A1E056D0E0E144
:1002A600F5E0FA93EA93E0EBF0E0FA93EA93F301D0
:1002B600662777270E94780484E00E949A0328968E
:1002C600A0E1B5E070D078940E94E7035524EFE0F2
:1002D600E51560F05A92A0E038D0E52DF0E0E05048
:1002E600FB4FA0810E941E045394F1CFEFE05E2ED7
:1002F600E1E05E1640F05A92A0E027D0A4E10E9409
:100306001E045A94F5CFE2CFFFCFAA93E5B3EF7060
:10031600AE2FE881E07FEA2BE5BB81E18A95F1F714
:10032600A99A81E18A95F1F7A99881E18A95F1F771
:1003360088C0AA93A881E9DFE881E295E883A881CD
:10034600E4DF87EA8A95F1F77CC0AA93E881F0E0BA
:10035600E05EFA4FE081A981AE0FEBDF99808880DD
:1003660022960895A2E00E942404ACE0E2DFA1E018
:100376000E942404E0E08E2E9E2E0895AA93A88162
:10038600AA3011F09B1448F0E0E0EA938394A82D7C
:10039600DCDFA881AA3009F454C09394A89AA881F6
:1003A600C8DFA8984EC0BA93AA931A93A981BA81B6
:1003B600ED91A983BA831E2FE03019F0A12FDEDF5D
:1003C600F5CF10C0BA93AA931A93E981FA813196B0
:1003D600E983FA833197E4911E2FE03019F0A12FBB
:1003E600CDDFF3CF188123960895AA93E4B3E06F87
:1003F600E4BBA19AA09AA29AA998A898AA98B880AC
:10040600E881E058E0932205E881E054E093230573
:10041600A4E1B0E00E945E040E942A040E942A041D
:100426000E942A04A0E271DF8AEF90E00197F1F7BB
:10043600A8E27FDFA4E07DDFA5E87BDFA6E079DF29
:1004460091DF21960895BA93AA931A930A93AA81E3
:10045600BB8112960E947004309759F1AA81BB8124
:1004660014960E9470048F01309761F00230E0E02C
:100476001E0798F0F80131978F01AA81BB81149667
:10048600ED93FC93AA81BB811296ED91FD91319675
:10049600FE93EE933197AC81A083AA81BB810E9423
:1004A6007004FF232AF0ED91FD913196FE93EE93B1
:1004B60006C0AA81BB81EFEFFFEFED93FC93198194
:1004C600088125960895BA93AA9326970E947D04DB
:1004D60010E0AC85BD85E0E0F0E0ED93FC93EA89A1
:1004E600FB893196EA8BFB8B3197E4912E2FE03016
:1004F60009F415C1E12FE03039F4253211F411E089
:1005060002C00E9432040AC1E130A9F4253219F46E
:100516000E94320402C112E040E000E02D3211F4E4
:1005260001E0FCC02B3211F44BE2F8C0203211F48A
:1005360040E2F4C002C0E23039F450E013E0203368
:1005460011F40068EBC003C0E33009F0E7C02033C4
:1005560010F02A3308F007C0AAE05A9F502DE22F68
:10056600E0535E0FDBC0E22FE33649F40E94390404
:10057600E889F989A481AA930E943F04CEC0E33793
:1005860041F40E9439040E9445040E94CE031E2FA6
:100596000AC0E03761F40E9439040E9445040E94B3
:1005A600DA031E2F086002600F7730E034C0E436AD
:1005B60011F0E93611F4046002C0E53731F4ECE8D5
:1005C600F0E0EE83FF8315E00CC0E83511F4086017
:1005D60003C0E83709F0A1C0E6E9F0E0EE83FF8347
:1005E60014E002FF14C00E9439040E944F04AB8538
:1005F600AA233AF4EA85FB850E946C04EA87FB8706
:100606004DE2403011F01F5F01C00B7F04C00E9415
:1006160039040E944F0400FD11C0151778F407FF36
:1006260008C002FF04C00B7F242F115001C020E335
:1006360001C020E20E9432045150EFCF312F01FF5A
:1006460017C03030A1F003FF06C0EE81FF8125916F
:10065600EE83FF8305C0AE81BF812D91AE83BF833C
:100666000E943204503009F051503150EACF4BC04D
:1006760020E3EE81FF810E947404E887F987EE810A
:10068600FF813296EE83FF83E885F985AA85BB85CF
:10069600AE17BF0750F02F5FA885B985EA85FB85A1
:1006A600EA1BFB0BEA87FB87EFCF2A3328F003FF11
:1006B60002C0295F01C0295D04FD1AC0213320F460
:1006C600A885B985119709F409C0531710F000FFE2
:1006D60001C013C020E207FF0BC020E3006102FF48
:1006E60007C00B7F4A930E943F04503009F05150D7
:1006F6000E943204503009F051503150A885B98516
:10070600129708F0B5CF00FF08C0503031F05150B5
:10071600E0E2EA930E943F04F8CF10E0E0CEAC8519
:10072600BD850E9470040E94840464960895FF9219
:10073600F82E26970E947F040E945704309719F4DA
:10074600EFEFFFEF23C0DE0116960E9468048D01CD
:100756000E945704EE83FF83E0E0E887E987DE0125
:100766001A960E9468040E947004FA93EA931A93F8
:100776000A93E6E2F2E0FA93EA93DE011A96A3DE22
:100786009F01AE81BF81E0E0EC93F9010E948604EF
:100796002A96FF900895BA93AA93A991B991EE2744
:1007A600FF276D91662311F03196FBCF0895BA931A
:1007B600AA93AA27BB27E991F9910590002011F089
:1007C6001196FBCFFD010895E5B7E062E5BF0895F8
:1007D600E5B7E37EE5BFEFB778948895EFBF089558
:1007E6000A921A92FA926A937A938A939A93AA939E
:1007F600BA93EA93FA93EFB7EA930C94A700E0E072
:10080600EA93A1E00E94A801E0E1F5E0FA93EA93F9
:10081600E0EBF0E0FA93EA93F301662777270E946C
:10082600780484E00E949A032896A0E1B5E00E942D
:10083600D6010C94A1000E94C101A4E6B0E00C947C
:100846005E040E949C01A3E0B0E00C945E04A0E369
:100856000E9488018AEF90E00197F1F708952A93A4
:10086600AD85BE85EF85F88909950895E889F989EA
:100876003497E88BF98B0895AD85BE85EF85F889A9
:1008860009950895A889B98914960E947004EE8383
:10089600FF83AE81BF810895A889B98914960E9405
:1008A6007004EA87FB870895DE011C960E9468049F
:1008B6000E9470040895109639F084EC99E001972F
:1008C600F1F7A8951197C9F708950024AF0DB01D4B
:1008D6000895F195E195F0400895ED91FC911197F9
:1008E60008950590F491E02D08957A936A93FA930A
:1008F600EA9308955A934A933A932A931A930A933A
:1009060008955D814C813B812A8119810881089572
:00000001FF
