:100000000C9460000C9400000C9400000C94000010
:100010000C9400000C9400000C9400000C94000060
:100020000C9400000C9400000C9400000C94000050
:100030000C9400000C9400000C9400000C94000040
:100040000C9400000C9400000C9400000C94000030
:100050000C9400000C9400000C9400000C94000020
:100060000C9400000C9400000C9400000C94000010
:100070000C9400000C9400000C9400000C94000000
:100080000C9400000C9400000C9400001027E8036E
:1000900064000A0001000010000110000100446526
:1000A0006D6F204441432030383332004461746125
:1000B0003D202533640080C002001005B60000001A
:1000C000F894EE27ECBBF1E0F5BFE5BFE0936C00E0
:1000D0008DE0A2E0BB27ED938A95E9F780E090E1FF
:1000E000A0E0B1E0ED930197E9F7E8EBF0E085914E
:1000F0009591009761F0A591B59105901590BF017C
:10010000F00105900D920197E1F7FB01F0CF8BBF55
:10011000EFEFEDBFE0E1EEBFC0E0D5E00C949B0057
:10012000AA93949A9498E881E3B9959A9598959AA8
:10013000949A0C946603E0E0EABBEBBBE7BBE8BB38
:10014000EFEFE4BBE0E0E5BBE1BBE2BBEFEFE2B920
:10015000E0E0E3B9E0936100E0936200E0936400C3
:10016000E0936500E0BFE3BFE2BFE1BFEFBDEEBDDE
:10017000EDBDECBDE7BDE6BDEBBDEABDE9BDE8BD4B
:10018000E0937900E0937800E5BDE4BDE3BDE09342
:100190008B00E0938A00E0938900E0938800E0936D
:1001A0008100E0938000E0938700E0938600E09375
:1001B0008500E0938400E0938300E0938200E7BF32
:1001C000E0937D00E0936A00EABFE9BFEAB9E093FB
:1001D0009A00E0E8E8B9E0E0E0BDE6B9EDB9E09307
:1001E0007400A0E10E943A03AEE9B0E00E94270348
:1001F0005524EFEFE51520F1A52D92DFE0E0F5E0C5
:10020000FA93EA93ECEAF0E0FA93EA93E52DFF27FC
:10021000662777270E94D50384E00E9496022896DD
:10022000E0E0EA93A1E00E94EA02A0E0B5E00E94CB
:100230001803A4E6B0E00E94BB03E5E05E0ED9CF50
:10024000D7CFFFCFBA93AA931A930A93AA81BB81FF
:1002500012960E94CD03309759F1AA81BB81149662
:100260000E94CD038F01309761F00230E0E01E075D
:1002700098F0F80131978F01AA81BB811496ED9314
:10028000FC93AA81BB811296ED91FD913196FE936C
:10029000EE933197AC81A083AA81BB810E94CD03EC
:1002A000FF232AF0ED91FD913196FE93EE9306C067
:1002B000AA81BB81EFEFFFEFED93FC9319810881D9
:1002C00025960895BA93AA9326970E94DA0310E020
:1002D000AC85BD85E0E0F0E0ED93FC93EA89FB8915
:1002E0003196EA8BFB8B3197E4912E2FE03009F4A5
:1002F00015C1E12FE03039F4253211F411E002C0CC
:100300000E9481030AC1E130A9F4253219F40E9448
:10031000810302C112E040E000E02D3211F401E05F
:10032000FCC02B3211F44BE2F8C0203211F440E251
:10033000F4C002C0E23039F450E013E0203311F48D
:100340000068EBC003C0E33009F0E7C0203310F0D1
:100350002A3308F007C0AAE05A9F502DE22FE0533D
:100360005E0FDBC0E22FE33649F40E948803E88980
:10037000F989A481AA930E948E03CEC0E33741F489
:100380000E9488030E9494030E9468031E2F0AC0E3
:10039000E03761F40E9488030E9494030E94740372
:1003A0001E2F086002600F7730E034C0E43611F091
:1003B000E93611F4046002C0E53731F4ECE8F0E00E
:1003C000EE83FF8315E00CC0E83511F4086003C02C
:1003D000E83709F0A1C0E6E9F0E0EE83FF8314E01E
:1003E00002FF14C00E9488030E949E03AB85AA23CB
:1003F0003AF4EA85FB850E94C903EA87FB874DE250
:10040000403011F01F5F01C00B7F04C00E948803C1
:100410000E949E0300FD11C0151778F407FF08C065
:1004200002FF04C00B7F242F115001C020E301C044
:1004300020E20E9481035150EFCF312F01FF17C0FE
:100440003030A1F003FF06C0EE81FF812591EE83DD
:10045000FF8305C0AE81BF812D91AE83BF830E9413
:100460008103503009F051503150EACF4BC020E3A6
:10047000EE81FF810E94D103E887F987EE81FF8139
:100480003296EE83FF83E885F985AA85BB85AE1792
:10049000BF0750F02F5FA885B985EA85FB85EA1B69
:1004A000FB0BEA87FB87EFCF2A3328F003FF02C05C
:1004B000295F01C0295D04FD1AC0213320F4A885FD
:1004C000B985119709F409C0531710F000FF01C056
:1004D00013C020E207FF0BC020E3006102FF07C04A
:1004E0000B7F4A930E948E03503009F051500E94B6
:1004F0008103503009F051503150A885B9851297C9
:1005000008F0B5CF00FF08C0503031F05150E0E2A4
:10051000EA930E948E03F8CF10E0E0CEAC85BD8553
:100520000E94CD030E94E10364960895FF92F82E85
:1005300026970E94DC030E94A603309719F4EFEF80
:10054000FFEF23C0DE0116960E94C5038D010E94B5
:10055000A603EE83FF83E0E0E887E987DE011A96D1
:100560000E94C5030E94CD03FA93EA931A930A935B
:10057000E2E2F1E0FA93EA93DE011A96A3DE9F012C
:10058000AE81BF81E0E0EC93F9010E94E3032A967B
:10059000FF900895AA93E5B3EF70AE2FE881E07F56
:1005A000EA2BE5BB81E18A95F1F7A99A81E18A9569
:1005B000F1F7A99881E18A95F1F788C0AA93A881FB
:1005C000E9DFE881E295E883A881E4DF87EA8A959C
:1005D000F1F77CC0AA93E881F0E0E05FFA4FE08198
:1005E000A981AE0FEBDF4980788022960895A2E0C2
:1005F0000E94AD03ACE0E2DFA1E00E94AD03E0E0C9
:100600007E2E4E2E0895AA93A881AA3011F046148A
:1006100048F0E0E0EA937394A72DDCDFA881AA30CC
:1006200009F454C04394A89AA881C8DFA8984EC082
:10063000BA93AA931A93A981BA81ED91A983BA8337
:100640001E2FE03019F0A12FDEDFF5CF10C0BA93D6
:10065000AA931A93E981FA813196E983FA83319753
:10066000E4911E2FE03019F0A12FCDDFF3CF1881D8
:1006700023960895AA93E4B3E06FE4BBA19AA09AED
:10068000A29AA998A898AA986880E881E058E0936F
:100690001205E881E054E0931305A4E1B0E00E9464
:1006A000BB030E94B3030E94B3030E94B303A0E202
:1006B00071DF8AEF90E00197F1F7A8E27FDFA4E015
:1006C0007DDFA5E87BDFA6E079DF91DF2196089545
:1006D000BA93AA93A991B991EE27FF276D9166234A
:1006E00011F03196FBCF0895BA93AA93AA27BB279E
:1006F000E991F9910590002011F01196FBCFFD01D1
:1007000008952A93AD85BE85EF85F88909950895EA
:10071000E889F9893497E88BF98B0895AD85BE8512
:10072000EF85F88909950895A889B98914960E94DA
:10073000CD03EE83FF83AE81BF810895A889B98977
:1007400014960E94CD03EA87FB870895DE011C966C
:100750000E94C5030E94CD0308950E94DE02A3E01B
:10076000B0E00C94BB03A0E30E94CA028AEF90E0C1
:100770000197F1F70895109639F084EC99E001970C
:10078000F1F7A8951197C9F708950024AF0DB01D92
:100790000895F195E195F0400895ED91FC91119740
:1007A00008950590F491E02D08957A936A93FA9351
:1007B000EA9308955A934A933A932A931A930A9381
:1007C00008955D814C813B812A81198108810895BA
:00000001FF
