:040000000C947C00E0
:100004000C94AC000C9400000C9400000C940000C0
:100014000C9400000C9400000C9400000C9400005C
:100024000C9400000C9400000C9400000C941F012C
:100034000C9400000C9400000C9400000C9400003C
:100044000C9400000C9400000C9400000C9400002C
:100054000C9400000C9400000C9400000C9400001C
:100064000C9400000C9400000C9400000C9400000C
:100074000C9400000C9400000C9400000C940000FC
:100084000C9400000C9400001027E80364000A009C
:100094000100001000011000010000004745534812
:1000A40041144D2E14432E00436F756E7465723DDA
:1000B40020252D356400436F756E7465723D2000F4
:1000C400436F756E7465723D2020200080C001006E
:1000D4002D4E414E00494E46000002000C009E0089
:1000E4000B001405A00002002405D00001002B051C
:1000F400D2000000F894EE27ECBBF1E0F5BFE5BFB9
:10010400E0936C008DE0A2E0BB27ED938A95E9F7BC
:1001140080E090E1A0E0B1E0ED930197E9F7EEED26
:10012400F0E085919591009761F0A591B5910590C6
:100134001590BF01F00105900D920197E1F7FB01C5
:10014400F0CF8BBFEFEFEDBFE0E1EEBFC0E0D5E055
:100154000C9443010A921A92FA926A937A938A93BC
:100164009A93AA93BA93EA93FA93EFB7EA93F501B1
:1001740031965F01E1E0F0E0E0930005F0930105C2
:10018400E2E0F0E04F01F5010E94FD050E94CE047B
:10019400DF01CB010E94B605D4010E9402060E9431
:1001A4003C060E94960511F008F010C0F401D50138
:1001B4000E941A06309731F4E0E0E0930005E093E2
:1001C400010504C0F40131964F01DDCFE1E0F0E018
:1001D400EA15FB0529F4E0E0E0930005E09301054E
:1001E400A0910005B0910105119741F465010E94A9
:1001F4003904ECEAF0E00E943E040EC066010C2CC7
:100204000D2851F40E943904EAEBF0E0FA93EA93E2
:1002140080E00E94EC032496E0E00E944A04E99105
:10022400EFBFF991E991B991A99199918991799146
:100234006991F990199009901895AA93EA93FA9301
:10024400EFB7EA93E4E1F0E0AE16BF061CF4E1E098
:10025400F0E006C0A0E0C399A1E0E1E0EA27F0E005
:10026400E0930205F0930305E0910205E03011F4F8
:10027400C39801C0C39AE991EFBFF991E991A9919B
:100284001895E0E0EABBEBBBEFEFE7BBE0E0E8BBCF
:10029400EFEFE4BBE0E0E5BBE1BBE1E0E2BBE0E0C3
:1002A400E2B9E3B9E0936100E0936200E093640093
:1002B400E0936500E0BFE3BFE2BFE1BFEFBDECE068
:1002C400EEBDE0E0EDBDECBDE7BDE6BDECE4EBBDAD
:1002D400EAE4EABDE0E0E9BDE8BDE0937900E0933B
:1002E4007800E5BDE4BDE3BDE0938B00E0938A00B4
:1002F400E0938900E0938800E0938100E09380001C
:10030400E0938700E0938600E0938500E093840007
:10031400E0938300E0938200E0E1E7BFE0E0E09354
:100324007D00E2E0E0936A00E0E0EABFE1E0E9BFDB
:10033400E8BFE0E0EAB9E0939A00E0E8E8B9E0E079
:10034400E0BDE6B9EDB9E0937400A0E1A0D07894E3
:100354000E943904E4ECF0E00E943E044424552455
:10036400E6E0F0E0E415F50564F052D04A920E940C
:100374005204A4E6B0E00E949504F20131962F01E4
:10038400EFCFE5E0F0E03F01E1E0F0E06E167F063C
:1003940064F03ED06A920E945204A4E6B0E00E9447
:1003A4009504F30131973F01EFCFD8CFFFCFAA9344
:1003B400E5B3EF70AE2FE881E07FEA2BE5BB81E186
:1003C4008A95F1F7A99A81E18A95F1F7A99881E1D3
:1003D4008A95F1F789C0AA93A881E9DFE881E295BB
:1003E400E883A881E4DF87EA8A95F1F77DC0AA93C0
:1003F400E881F0E0EC5DFA4FE081A981AE0FEBDF1C
:10040400E981E0932805E881E0932905229608957F
:10041400A2E00E945B04ACE0DEDFA1E00E945B048A
:10042400E0E0E0932905E09328050895AA93A881C4
:10043400AA3031F0E0912A05A0912805AE1760F0AA
:10044400E0E0EA93A0912905AF5FA0932905CFDFEF
:10045400A881AA3009F448C0E0912805EF5FE09331
:100464002805A89AA881B7DFA8983EC0BA93AA9392
:100474001A93A981BA81ED91A983BA831E2FE03022
:1004840019F0A12FD3DFF5CF188123960895AA93ED
:10049400E4B3E06FE4BBA19AA09AA29AA998A898A1
:1004A400AA98E881E0932A05E058E0932605E881BC
:1004B400E054E0932705A4E1B0E00E9495040E9473
:1004C40061040E9461040E946104A0E270DF8AEF6B
:1004D40090E00197F1F7A8E27EDFA4E07CDFA5E8D5
:1004E4007ADFA6E078DF94DF21960895BA93AA9381
:1004F4001A930A93AA81BB8112960E942806309708
:1005040059F1AA81BB8114960E9428068F01309765
:1005140061F00230E0E01E0798F0F80131978F0196
:10052400AA81BB811496ED93FC93AA81BB81129698
:10053400ED91FD913196FE93EE933197AC81A083BA
:10054400AA81BB810E942806FF232AF0ED91FD9128
:100554003196FE93EE9306C0AA81BB81EFEFFFEFC5
:10056400ED93FC931981088125960895BA93AA9373
:1005740026970E944C0610E0AC85BD85E0E0F0E0D3
:10058400ED93FC93EA89FB893196EA8BFB8B3197D7
:10059400E4912E2FE03009F415C1E12FE03039F455
:1005A400253211F411E002C00E9469040AC1E1304D
:1005B400A9F4253219F40E94690402C112E040E052
:1005C40000E02D3211F401E0FCC02B3211F44BE2B7
:1005D400F8C0203211F440E2F4C002C0E23039F431
:1005E40050E013E0203311F40068EBC003C0E330A3
:1005F40009F0E7C0203310F02A3308F007C0AAE05E
:100604005A9F502DE22FE0535E0FDBC0E22FE336FA
:1006140049F40E947004E889F989A481AA930E948C
:100624007604CEC0E33741F40E9470040E947C0437
:100634000E9420041E2F0AC0E03761F40E94700457
:100644000E947C040E942C041E2F086002600F7715
:1006540030E034C0E43611F0E93611F4046002C02D
:10066400E53731F4ECE8F0E0EE83FF8315E00CC0ED
:10067400E83511F4086003C0E83709F0A1C0E6E9E1
:10068400F0E0EE83FF8314E002FF14C00E947004C4
:100694000E948604AB85AA233AF4EA85FB850E946E
:1006A400F105EA87FB874DE2403011F01F5F01C07E
:1006B4000B7F04C00E9470040E94860400FD11C0D8
:1006C400151778F407FF08C002FF04C00B7F242F1E
:1006D400115001C020E301C020E20E94690451507E
:1006E400EFCF312F01FF17C03030A1F003FF06C058
:1006F400EE81FF812591EE83FF8305C0AE81BF812A
:100704002D91AE83BF830E946904503009F051508B
:100714003150EACF4BC020E3EE81FF810E942C06CA
:10072400E887F987EE81FF813296EE83FF83E885BF
:10073400F985AA85BB85AE17BF0750F02F5FA88542
:10074400B985EA85FB85EA1BFB0BEA87FB87EFCFBC
:100754002A3328F003FF02C0295F01C0295D04FD8C
:100764001AC0213320F4A885B985119709F409C06A
:10077400531710F000FF01C013C020E207FF0BC0A5
:1007840020E3006102FF07C00B7F4A930E947604B6
:10079400503009F051500E946904503009F0515012
:1007A4003150A885B985129708F0B5CF00FF08C06D
:1007B400503031F05150E0E2EA930E947604F8CFD1
:1007C40010E0E0CEAC85BD850E9428060E94530649
:1007D40064960895FF92F82E26970E944E060E9472
:1007E4008E04309719F4EFEFFFEF23C0DE01169665
:1007F4000E94ED058D010E948E04EE83FF83E0E0EC
:10080400E887E987DE011A960E94ED050E94280612
:10081400FA93EA931A930A93E8E7F2E0FA93EA93D5
:10082400DE011A96A3DE9F01AE81BF81E0E0EC9366
:10083400F9010E9455062A96FF900895BA93AA9347
:10084400A991B991EE27FF276D91662311F0319696
:10085400FBCF0895BA93AA93AA27BB27E991F991EC
:100864000590002011F01196FBCFFD010895E4E0FE
:10087400F5E0FA93EA930895FA93EA93F6010E9455
:10088400FD050E94300684E00E94EC03289608953A
:10089400EA93A1E00E94F901A4E0B5E00C943802C7
:1008A400A0E00E94F901A4E1B5E00E943802E0E072
:1008B400EFCF0E94ED01A3E0B0E00C949504A0E317
:1008C4000E94D9018AEF90E00197F1F708952A93E5
:1008D400AD85BE85EF85F88909950895E889F9897C
:1008E4003497E88BF98B0895AD85BE85EF85F8893B
:1008F40009950895A889B98914960E942806EE835B
:10090400FF83AE81BF810895A889B98914960E9496
:100914002806EA87FB870895DE011C960E94ED05F0
:100924000E9428060895109639F084EC99E0019706
:10093400F1F7A8951197C9F70895552342F4503853
:1009440011F4E0FF04C03196691F791F6BF050E881
:10095400572711F45F9391C05F3F31F0660F000C8D
:1009640057956795752F08955F9300200AF091C0FD
:100974008AC050E8192E1522880F991F9527550F04
:10098400879550E8072E0522660F771F7527550FA8
:1009940067950895689401C0E8943097604070406A
:1009A400B1F0002426F0772312F400941CD1172E02
:1009B4007EE1112032F07A95EE0FFF1F661F111CA5
:1009C400F9CFEF2FF62F612D5F93C1DF5F9108956B
:1009D4004F93AF01FD01DA01AB01BC01CA01402D07
:1009E400012C142E4F910895EA0FFB1F681F0895E0
:1009F400E095F0956095EF5FFF4F6F4F08955F931B
:100A0400B8DF903839F1703821F1572F591B2BF189
:100A140012F4DEDFFACF583118F0AA27BB27882753
:100A2400583028F0AB2FB82F88275850F9CF5523CA
:100A340029F08695B795A7955A95D9F7502D512544
:100A440072F0D2DF38F46795F795E795739513F450
:100A540020C0BEDF7CDF5F910895D8F7FBCFEA1B8F
:100A6400FB0B680B51F010F40094C2DF662392F381
:100A7400EE0FFF1F661F7A95CBF7EE27FF27662739
:100A840077275F910895EFEFFFEF6FE77FEF5F91B7
:100A94000895EFEFFFEF6FE77FE75F9108955F93AE
:100AA40068DF703821F411200AF4EDCFF2CF9038CA
:100AB40009F4E3CF01240894970B1BF4D4F300202A
:100AC400F3CF792F1F932F933F934F931124112723
:100AD400222733274427552790E2AE17BF078607FE
:100AE400410730F0AE1BBF0B860B410B089401C0CD
:100AF4008894551F221F331F111CAA1FBB1F881F58
:100B0400441F9A9551F7F901612D4F913F912F910F
:100B14001F91662332F0550FEE1FFF1F661F7A9553
:100B240043F20BDF5F91089599239AF0772342F003
:100B3400971748F029F4AE17BF07860720F031F065
:100B4400989488940895989408940895189488948F
:100B540008957723C2F7971798F3A9F7EA17FB07C5
:100B6400680788F399F3ECCF7ED024975F939F8135
:100B7400992311F4289681CF12F428968ACF4F93A3
:100B840042E48E81BD81AC8188839983AA83BB832F
:100B9400FD01BC01AC81BD818E819F8180DF888194
:100BA4009981AA81BB812BDFECDE7A95D0DE888126
:100BB4009981AA81BB81AE27A87F21F4BF1786073C
:100BC400970729F04A9519F0DF01CB01DDCF4F914A
:100BD4005F91289608950024AF0DB01D0895F195F6
:100BE400E195F0400895F09560957095E195FF4F7B
:100BF4006F4F7F4F08956F2F660F660B762F089502
:100C04008B2F880F880B982F08950024112490E1CE
:100C1400AA0FBB1F001C111C0E1A1F0A18F40E0E7B
:100C24001F1E01C0A1609A9599F7FD01D001089596
:100C3400E894B7FF04C0A095B09511966894F7FDA9
:100C4400CEDFE3DFFD010EF4CADF0895ED91FC91E0
:100C5400119708950590F491E02D08957A936A937D
:100C6400FA93EA9308959A938A93BA93AA93089568
:100C7400689401C0E89401D090DE182E862F612D6F
:100C8400192E972F712D1B2EBF2FF12D1A2EAE2F3B
:100C9400E12D08955A934A933A932A931A930A9307
:100CA40008955D814C813B812A81198108810895D1
:00000001FF
