:0C0000000C945F000C948F000C94000026
:10000C000C9400000C9400000C9400000C94000064
:10001C000C9400000C9400000C9400000C94000054
:10002C000C9400000C94AC000C9400000C94000098
:10003C000C9400000C9400000C9400000C94000034
:10004C000C9400000C9400000C9400000C94000024
:10005C000C9400000C9400000C9400000C940F0104
:10006C000C9400000C9400000C9400000C94000004
:10007C000C9400000C9400000C9400000C940000F4
:10008C0000004F4E20004F464600252D3875204865
:10009C007A004672657175656E6379204D6574657D
:1000AC00720080C0010002008C0002001805AE0036
:1000BC000000F894EE27ECBBF1E0F5BFE5BFE09350
:1000CC006C008DE0A2E0BB27ED938A95E9F780E008
:1000DC0090E1A0E0B1E0ED930197E9F7E0EBF0E0FF
:1000EC0085919591009761F0A591B591059015902A
:1000FC00BF01F00105900D920197E1F7FB01F0CFE4
:10010C008BBFEFEFEDBFE0E1EEBFC0E0D5E00C94AC
:10011C002A010E949704A0E020FCA1E0E1E0EA277C
:10012C000E94B30520F8E0E00E94A50420FE05C063
:10013C000E94A904AEE8B0E006C0E0E0EEBDE0939A
:10014C008A00A2E9B0E00E943D0455C00E949704C9
:10015C00E0E0E0938A00EEBDE0910005F09101052E
:10016C006091020570910305A0E5B3EC80E090E08E
:10017C000E9435057F936F93FF93EF93E091890075
:10018C00F0E00E943005A0E0B1E080E090E00E9439
:10019C005505AF91BF918F919F910E942305E091DE
:1001AC008800F0E00E9430050E941E050E94BE04EB
:1001BC000E94C704A4E1B0E080E090E00E94350505
:1001CC000E94BE04E4E00E94A504E8E0F5E0FA9386
:1001DC00EA93E6E9F0E0FA93EA930E94C7040E94DE
:1001EC00AA0584E00E94AC032896A8E0B5E00E9422
:1001FC002E040E94A904E991EFBFF991E991B991FC
:10020C00A9919991899179916991F9901990099095
:10021C0018956A937A93AA93BA93EA93FA93EFB7E1
:10022C00EA93A0E0B5E00E94A005EF5FFF4F6F4F8F
:10023C007F4F0E94A505E991EFBFF991E991B99122
:10024C00A991799169911895E0E0EABBEBBBE7BB0A
:10025C00E8BBEFEFE4BBE0E0E5BBE1BBE1E0E2BB18
:10026C00E0E0E2B9E0E4E3B9E0E0E0936100E093C0
:10027C006200E0936400E0936500E0BFE3BFE2BF7F
:10028C00E1BFEFBDEAE0EEBDE0E0EEBDEDBDECBDE3
:10029C00E7BDE6BDE4EFEBBDE3E2EABDE0E0E9BDBE
:1002AC00E8BDE0937900E0937800E5BDE4BDE3BDE3
:1002BC00E0938B00EEE0E0938A00E0E0E0938A00AC
:1002CC00E0938900E0938800E0938100E093800044
:1002DC00E3ECE0938700EFE4E0938600E0E0E0934A
:1002EC008500E0938400E0938300E0938200E0E1DA
:1002FC00E7BFE0937D00E2E0E0936A00E0E0EABF54
:10030C00E1E0E9BFE8BFE0E0EAB9E0939A00E0E899
:10031C00E8B9E0E0E0BDE6B9EDB9E0937400A0E126
:10032C000E945004AEE9B0E00E943D04E0E00E945F
:10033C00A504A2E9B0E00E943D047894FFCFFFCF62
:10034C00BA93AA931A930A93AA81BB8112960E941C
:10035C009605309759F1AA81BB8114960E94960597
:10036C008F01309761F00230E0E01E0798F0F80141
:10037C0031978F01AA81BB811496ED93FC93AA81CE
:10038C00BB811296ED91FD913196FE93EE933197D0
:10039C00AC81A083AA81BB810E949605FF232AF021
:1003AC00ED91FD913196FE93EE9306C0AA81BB812F
:1003BC00EFEFFFEFED93FC931981088125960895DB
:1003CC00BA93AA932C970E94B80510E0AA89BB890E
:1003DC00E0E0F0E0ED93FC93E88DF98D3196E88F39
:1003EC00F98F3197E4912E2FE03009F4A7C1E12F5A
:1003FC00E03039F4253211F411E002C00E94D0042F
:10040C009CC1E130C1F4253219F40E94D00494C18E
:10041C0012E0E0E0E98B00E02D3211F401E08DC137
:10042C002B3219F4EBE2E98B88C1203219F4E0E2AB
:10043C00E98B83C102C0E23039F450E013E0203381
:10044C0011F400687AC102C0E33091F4203310F04B
:10045C002A3308F007C0AAE05A9F502DE22FE05330
:10046C005E0F6BC140E02E3211F414E066C10EC079
:10047C00E43091F4203310F02A3308F007C0AAE0DE
:10048C004A9F402DE22FE0534E0F57C12C3619F4E2
:10049C00026015E052C103C0E53009F04EC1E22FF5
:1004AC00E33649F40E94D704EE89FF89A481AA930C
:1004BC000E94DD0441C1E33741F40E94D7040E943D
:1004CC00E3040E947E041E2F0AC0E037A1F40E94B0
:1004DC00D7040E94E3040E948A041E2F08600F7741
:1004EC00403011F0411708F001C0142F40E0E0E05B
:1004FC00E88B30E077C0E43611F0E93611F4046093
:10050C0002C0E537A1F4EAE0E88B01FF08C0E0E0A7
:10051C00FAEC6AE97BE30E94ED041AE022C0E0E108
:10052C00F7E260E070E00E94ED0415E01AC0E835D7
:10053C0011F4086003C0E83709F0FEC0E0E1E88B75
:10054C0001FF08C0E0E0F0E060E070E10E94ED0423
:10055C0018E007C0E0E0F0E160E070E00E94ED041C
:10056C0014E0403011F00F7701C041E001FF08C0EA
:10057C000E94D704AE89BF8914960E949A0515C0B3
:10058C0002FF0AC00E94D704AE89BF8914960E944C
:10059C0096050E94300509C00E94D704AE89BF8918
:1005AC0014960E94960566277727EC87FD876E8741
:1005BC007F8702FF16C0AF85AA2362F4EC85FD8508
:1005CC006E857F850E942805EC87FD876E877F8767
:1005DC00EDE2E98BE989E03019F01F5F4F5F01C054
:1005EC000B7F342F00FD14C0151710F4351708F0CD
:1005FC000FC007FF08C002FF04C00B7F29891150F0
:10060C0001C020E301C020E20E94D0045150ECCF85
:10061C001417B0F4006102FF0AC00B7FE989EA935A
:10062C000E94DD04503009F0515011504150E0E36C
:10063C00EA930E94DD04503009F051504150E8CF4C
:10064C00312FE889E030B9F43030A1F003FF06C057
:10065C00EE81FF812591EE83FF8305C0AE81BF81C2
:10066C002D91AE83BF830E94D004503009F05150BD
:10067C003150EACF57C00E94F2040E945A052E2F27
:10068C002A3030F003FF02C0295C01C0295A01C096
:10069C00205D04FD25C0213360F4A885B9858A85C9
:1006AC009B85A130E0E0BE07E0E08E07E0E09E070E
:1006BC0009F40BC0431740F4531710F000FF01C0AE
:1006CC0014C020E207FF0CC020E3006102FF08C049
:1006DC000B7FE989EA930E94DD04503009F05150F8
:1006EC000E94D004503009F0515031500E94F20455
:1006FC000E947F05EC87FD876E877F87E889A88538
:10070C00B9858A859B85FF27662777270E945A051E
:10071C000E94ED04E885F9856A857B850E94AF050A
:10072C0009F0A9CF00FF08C0503031F05150E0E281
:10073C00EA930E94DD04F8CF10E04ECEAA89BB8963
:10074C000E9496050E94BF056A960895FF92F82EA6
:10075C0026970E94BA050E94FB04309719F4EFEF1C
:10076C00FFEF23C0DE0116960E941A058D010E9430
:10077C00FB04EE83FF83E0E0E887E987DE011A964D
:10078C000E941A050E949605FA93EA931A930A930B
:10079C00E6EAF1E0FA93EA93DE011A9611DE9F0184
:1007AC00AE81BF81E0E0EC93F9010E94C1052A966D
:1007BC00FF900895AA93E5B3EF70AE2FE881E07F28
:1007CC00EA2BE5BB81E18A95F1F7A99A81E18A953B
:1007DC00F1F7A99881E18A95F1F788C0AA93A881CD
:1007EC00E9DFE881E295E883A881E4DF87EA8A956E
:1007FC00F1F77CC0AA93E881F0E0E85EFA4FE08163
:10080C00A981AE0FEBDF5980488022960895A2E0B3
:10081C000E940205ACE0E2DFA1E00E940205E0E0EC
:10082C004E2E5E2E0895AA93A881AA3011F057146B
:10083C0048F0E0E0EA934394A42DDCDFA881AA30D1
:10084C0009F454C05394A89AA881C8DFA8984EC044
:10085C00BA93AA931A93A981BA81ED91A983BA8309
:10086C001E2FE03019F0A12FDEDFF5CF10C0BA93A8
:10087C00AA931A93E981FA813196E983FA83319725
:10088C00E4911E2FE03019F0A12FCDDFF3CF1881AA
:10089C0023960895AA93E4B3E06FE4BBA19AA09ABF
:1008AC00A29AA998A898AA987880E881E058E09331
:1008BC001A05E881E054E0931B05A4E1B0E00E9426
:1008CC0010050E9408050E9408050E940805A0E278
:1008DC0071DF8AEF90E00197F1F7A8E27FDFA4E0E7
:1008EC007DDFA5E87BDFA6E079DF91DF2196089517
:1008FC00BA93AA93A991B991EE27FF276D9166231C
:10090C0011F03196FBCF0895BA93AA93AA27BB276F
:10091C00E991F9910590002011F01196FBCFFD01A2
:10092C0008950A921A92FA926A937A938A939A93F6
:10093C00AA93BA93EA93FA93EFB7EA930895EA93DA
:10094C00A1E00C940004E0E0EDBDECBDE093890067
:10095C00E0938800E0930005E0930105E093020525
:10096C00E0930305EAE0EEBDEEE0E0938A00089523
:10097C00E0930405F0930505609306057093070555
:10098C000895E0910405F0910505609106057091BC
:10099C00070508952A93AB89BC89ED89FE890995D1
:1009AC000895EE89FF893497EE8BFF8B0895AB8900
:1009BC00BC89ED89FE8909950895AE89BF89149685
:1009CC000E949605EE83FF83AE81BF810895E88770
:1009DC00F9876A877B870895E885F9856A857B8521
:1009EC00AC85BD858E859F850895DE011C960E9481
:1009FC001A050E94960508950E94F403A3E0B0E046
:100A0C000C941005A0E30E94E0038AEF90E001979C
:100A1C00F1F70895109639F084EC99E00197F1F70D
:100A2C00A8951197C9F708950024AF0DB01D08952E
:100A3C00EA0FFB1F681F791F0895AE0FBF1F861F9B
:100A4C00971F0895F09560957095E195FF4F6F4F46
:100A5C007F4F08956F2F660F660B762F08957A9F40
:100A6C00702D6B9F700DF89F700DE99F700D6A9F34
:100A7C00602D710DFB9F600D711DE89F600D711D48
:100A8C008827FA9FF02D610D781FEB9FF00D611DEB
:100A9C00781FEA9FE02DF10D681F781F08952DD067
:100AAC00DEDF0EF4CFDF08953F934F935F93002466
:100ABC0011244427552730E2AA0FBB1F881F991F0A
:100ACC00001C111C441F551F0E1A1F0A460B570BF6
:100ADC0028F40E0E1F1E461F571F01C0A1603A9529
:100AEC0059F7FD01BC01D001CA015F914F913F91B3
:100AFC000895DADFFD01BC010895E89477FF02C088
:100B0C00A1DF689497FF0BC00024A095B095809549
:100B1C0090951196801D901D00F8039400FA08958D
:100B2C00ED91FC9111970895ED91FD916D917C9152
:100B3C0013970895ED91FD916D917D9108957E939C
:100B4C006E93FE93EE9308957A936A93FA93EA93D5
:100B5C0008953097604070400895E894EE2309F0B2
:100B6C00689408955A934A933A932A931A930A9342
:100B7C0008955D814C813B812A81198108810895FA
:00000001FF
