:020000000C945E
:1000020021010C9400000C9400000C9400000C944C
:1000120000000C9400000C9400000C9400000C945E
:1000220000000C9400000C9400000C9400000C944E
:1000320000000C9400000C9400000C9400000C943E
:1000420000000C9400000C9400000C9400000C942E
:1000520000000C9400000C9400000C9400000C941E
:1000620000000C9400000C9400000C9400000C940E
:1000720000000C9400000C9400000C9400000C94FE
:1000820000000C9400000C9400001027E8036400A8
:100092000A00010000100001100001002054656BED
:1000A200616E203120756E74756B206D656E79619D
:1000B2006C616B616E204C454430200D2054656BA1
:1000C200616E203220756E74756B206D656E79617C
:1000D2006C616B616E204C454431200D2054656B80
:1000E200616E203320756E74756B206D656E79615B
:1000F2006C616B616E204C454433200D2054656B5E
:10010200616E203420756E74756B206D656D696C3F
:100112006968206D6F6465207472616E73697369BA
:10012200204C4544200D204D6173756B6B616E2030
:1001320070696C6968616E204C45443A200D002557
:100142006400204C45442030206E79616C61200DA2
:1001520000204C45442031206E79616C61200D00F5
:10016200204C45442032206E79616C61200D0020C4
:1001720054656B616E203120756E74756B207472DC
:10018200616E73697369204C454420646172692011
:1001920030206B652037200D002054656B616E2086
:1001A2003220756E74756B207472616E7369736937
:1001B200204C454420646172692037206B652030F1
:1001C200200D00205472616E73697369204C45449E
:1001D20020646172692030206B6520370D00205445
:1001E20072616E73697369204C454420646172695F
:1001F2002037206B6520300D002047616C61742030
:10020200706572616E676B61742C20696E707574B3
:100212002079616E6720616E6461206D6173756B18
:100222006B616E2073616C6168200D0001002D4EC0
:10023200414E00494E460000010000052E0200001A
:10024200F894EE27ECBBF1E0F5BFE5BFE0936C005C
:100252008DE0A2E0BB27ED938A95E9F780E090E17B
:10026200A0E0B1E0ED930197E9F7EAE3F2E08591CE
:100272009591009761F0A591B59105901590BF01F8
:10028200F00105900D920197E1F7FB01F0CF8BBFD2
:10029200EFEFEDBFE0E1EEBFC0E0D5E00C9451011D
:1002A200EFEFE7BBE0E0E8BBEBB9E8E1EAB9E6E093
:1002B200E0939500E0E0E0939000E0E4E9B9E0E04B
:1002C200E0939A00E0E8E8B9E0E0E0BDE0E0E8BBF6
:1002D200EEE9F0E00E942C05E1E4F1E0FA93EA9302
:1002E200E4E0F0E060E070E00E9433050E943A052D
:1002F200E1E0F0E0E415F50521F4E8BBE4E4F1E027
:1003020080C0E2E0F0E0E415F50521F4E8BBE3E5A6
:10031200F1E077C0E3E0F0E0E415F50529F4E4E06C
:10032200E8BBE2E6F1E06DC0E4E0F0E0E415F505DB
:1003320009F065C0E1E7F1E00E942C050E943A0550
:10034200EBE9F1E00E942C050E943A05E1E4F1E0BC
:10035200FA93EA93E6E0F0E060E070E00E94330591
:10036200E1E0F0E0E615F705F1F4E5ECF1E00E94DA
:100372002C05E1E00E943E05E2E00E943E05E4E039
:100382000E943E05E8E00E943E05E0E10E943E0533
:10039200E0E20E943E05E0E40E943E05E0E8E8BBA0
:1003A200A4E6B0E029C0E2E0F0E0E615F705F1F4DA
:1003B200E0EEF1E00E942C05E0E80E943E05E0E458
:1003C2000E943E05E0E20E943E05E0E10E943E05F9
:1003D200E8E00E943E05E4E00E943E05E2E00E9461
:1003E2003E05E1E0E8BBA4E6B0E006C0EBEFF1E0D9
:1003F2000E942C05A4EFB1E00E948C050AC0EBEF2D
:10040200F1E0FA93EA9380E00E945C0322960E9454
:100412003A05EFE3F1E00E942C0558CFFFCF5F9B36
:10042200FECFECB10895AA935D9BFECFE881ECB9B3
:1004320021960895BA93AA93AA81F5DFA881B9817A
:10044200ED91FD913196FE93EE9323960895BA9322
:10045200AA9326970E94B30510E0AC85BD85E0E023
:10046200F0E0ED93FC93EA89FB893196EA8BFB8BF2
:100472003197E4912E2FE03009F415C1E12FE030DD
:1004820039F4253211F411E002C00E9443050AC179
:10049200E130A9F4253219F40E94430502C112E0A9
:1004A20040E000E02D3211F401E0FCC02B3211F4E7
:1004B2004BE2F8C0203211F440E2F4C002C0E23054
:1004C20039F450E013E0203311F40068EBC003C0AC
:1004D200E33009F0E7C0203310F02A3308F007C0F8
:1004E200AAE05A9F502DE22FE0535E0FDBC0E22FAD
:1004F200E33649F40E944A05E889F989A481AA935E
:100502000E945005CEC0E33741F40E944A050E9482
:1005120056050E9413051E2F0AC0E03761F40E949F
:100522004A050E9456050E941F051E2F08600260A0
:100532000F7730E034C0E43611F0E93611F404608C
:1005420002C0E53731F4ECE8F0E0EE83FF8315E01A
:100552000CC0E83511F4086003C0E83709F0A1C007
:10056200E6E9F0E0EE83FF8314E002FF14C00E948C
:100572004A050E946005AB85AA233AF4EA85FB8509
:100582000E949A05EA87FB874DE2403011F01F5F17
:1005920001C00B7F04C00E944A050E94600500FD55
:1005A20011C0151778F407FF08C002FF04C00B7FC3
:1005B200242F115001C020E301C020E20E94430514
:1005C2005150EFCF312F01FF17C03030A1F003FFA0
:1005D20006C0EE81FF812591EE83FF8305C0AE81C7
:1005E200BF812D91AE83BF830E944305503009F035
:1005F20051503150EACF4BC020E3EE81FF810E947F
:10060200AA05E887F987EE81FF813296EE83FF83A0
:10061200E885F985AA85BB85AE17BF0750F02F5F25
:10062200A885B985EA85FB85EA1BFB0BEA87FB8770
:10063200EFCF2A3328F003FF02C0295F01C0295DF2
:1006420004FD1AC0213320F4A885B985119709F455
:1006520009C0531710F000FF01C013C020E207FFCA
:100662000BC020E3006102FF07C00B7F4A930E9488
:100672005005503009F051500E944305503009F0A6
:1006820051503150A885B985129708F0B5CF00FFB7
:1006920008C0503031F05150E0E2EA930E94500518
:1006A200F8CF10E0E0CEAC85BD850E94A6050E9481
:1006B200BA0564960895FF92F82E26971A930A9324
:1006C200DE0114960E9496058D01E0E0EC83ED8335
:1006D200EE83EF83DE0118960E946805EBE1F2E0FB
:1006E200FA93EA93DE011896B2DE19810881289600
:1006F200FF900895BA93AA931A93A981BA81E0E070
:10070200EC93AB81BC81EC911E2FE03019F0E0E05C
:10071200EC9302C084DE1E2FE12F188125960895E6
:10072200FF92BA93AA9324970E94B305E0E0F0E007
:10073200E887F9874E2FE889F9893196E88BF98B9A
:100742003197E4913E2FE03009F425C10E947105F2
:10075200C1F0EDB7FEB7FA93EA934F930E94760584
:100762004F913E2FE03019F00E94710509F407C045
:100772000E947C051CF4EFEFFFEF0FC1EACF432F7D
:1007820009C1353209F0EEC050E0E889F9893591A6
:10079200E88BF98B303310F03A3308F007C0AAE047
:1007A2005A9F502DE32FE0535E0FEFCF303009F404
:1007B200F2C0EDB7FEB7FA93EA934F930E94760523
:1007C2004F912E2FAE2F0E94F904E03039F00E9493
:1007D2007C051CF4EFEFFFEFE0C0EBCF203009F413
:1007E200D1C0422F503009F45FEFE32FE33699F482
:1007F2000E948105EDB7FEB7FA93EA934F930E94E8
:1008020076054F91D801EC930E947C051CF4EFEF22
:10081200FFEFC3C0A1C0E33741F50E948105E52F78
:100822005150E030F1F0EDB7FEB7FA93EA934F93EF
:100832000E9476054F913E2FE03019F00E9471051B
:1008420039F00E947C051CF4EFEFFFEFA6C009C04F
:100852001F930F930F5F1F4FE32FAF91BF91EC9345
:10086200DECFD801E0E0EC9377C06894F1F8E89429
:10087200F2F8E32FE43611F0E93619F4E894F1F8CE
:1008820002C0E53711F42AE008C0E83711F420E18C
:1008920004C0E53209F466C07EC0E0E0EE83EF8377
:1008A2006894F0F8E52F5150E03009F446C0EDB7F6
:1008B200FEB7FA93EA934F930E9476054F913E2F2B
:1008C200E13238F40E947C051CF4EFEFFFEF65C0C3
:1008D20017C0F1FC08C06894F1F83D3211F4F2F847
:1008E200E1CF3B32F9F2203131F4A32F0E9404050B
:1008F200E03031F009C0A32F0E94F004E03021F46F
:10090200F0FC49C0432F19C0313610F0375505C0ED
:10091200313410F0375301C03053E22FAE81BF8122
:10092200F0E00E949E05DF01E32FF0E0EA0FFB1FDB
:10093200EE83FF83E894F0F8B5CF0E948105F2FEC2
:1009420006C0EE81FF810E949A05EE83FF83EE814D
:10095200FF81D801ED93FC93E885F9853196E8870C
:10096200F98718C0EDB7FEB7FA93EA934F930E9446
:1009720076054F91E31771F00E947C051CF4EFEFAE
:10098200FFEF0BC0E885F985309719F4EFEFFFEF21
:1009920004C001C0D0CEE885F9850E94BA056296EE
:1009A200FF900895FF92F82E23971A930A93DE017F
:1009B20011960E9496058D01E0E0EB83EC83DE0147
:1009C20015960E946805EBE7F3E0FA93EA93DE01DD
:1009D2001896A6DE198108812596FF900895AA939C
:1009E200E1E0F991F03310F0FA3308F0EE270895C0
:1009F200AA93E1E0F991F03229F0F93010F0FE30DB
:100A020008F0EE270895AA93E1E0F991F05340F03F
:100A1200FA3038F0FF75F750FA3010F0F03108F084
:100A2200EE270895BA93AA93A991B991EE27FF27C9
:100A32006D91662311F03196FBCF0895BA93AA9374
:100A4200AA27BB27E991F9910590002011F0119690
:100A5200FBCFFD010895FA93EA9380E00E945C03C4
:100A6200229608950E94AE0584E00E94D304269641
:100A72000895A4EFB1E00C948C05E8BBA4E6B0E0C5
:100A82000C948C052A93AD85BE85EF85F88909956E
:100A92000895E889F9893497E88BF98B0895AD8533
:100AA200BE85EF85F88909950895A889B9891496B4
:100AB2000E94A605EE83FF83AE81BF810895A889B7
:100AC200B98914960E94A605EA87FB8708950E94B9
:100AD20096050E94A605FA93EA931A930A9308953B
:100AE200A32F0E94F904E0300895AC85BD85EE8500
:100AF200FF8509950895AA85BB85AC91A03008951C
:100B0200EE85FF853497EE87FF87AE85BF85149605
:100B12000D911C910895109639F084EC99E001979B
:100B2200F1F7A8951197C9F708950024AF0DB01DEC
:100B32000895F195E195F0400895FA9FF02DEB9F0D
:100B4200F00DEA9FE02DF10D0895ED91FC911197C2
:100B520008950590F491E02D08957A936A93FA939B
:100B6200EA9308955A934A933A932A931A930A93CB
:100B720008955D814C813B812A8119810881089504
:00000001FF
