:060000000C946E000C944C
:10000600BF000C94C6000C9400000C9400000C94E5
:1000160000000C9400000C9400000C9400000C945A
:1000260000000C9400000C9400000C9400000C944A
:1000360000000C9400000C9400000C9400000C943A
:1000460000000C9400000C9400000C9400000C942A
:1000560000000C9400000C9400000C9400000C941A
:1000660000000C9400000C9400000C9400000C940A
:1000760000000C9400000C9400000C9400000C94FA
:1000860000000C940000000000705265616420447A
:100096004143204D43503439323100566F6C746100
:1000A6007365203D2025352E3366205600002D4EE3
:1000B600414E000080C001002D4E414E00494E4683
:1000C6000000040004008C0002001405BA000100C0
:1000D6001805BC000000F894EE27ECBBF1E0F5BF74
:1000E600E5BFE0936C008DE0A2E0BB27ED938A9517
:1000F600E9F780E090E1A0E0B1E0ED930197E9F740
:10010600E8ECF0E085919591009761F0A591B591A5
:1001160005901590BF01F00105900D920197E1F74A
:10012600FB01F0CF8BBFEFEFEDBFE0E1EEBFC0E02C
:10013600D5E00C94D200BA93AA930E949709072D92
:100146001127102F0027F801AC81BD81EA0FFB1F94
:10015600EC83FD833C812D81C59AC49AC498A22F55
:100166000E942A05A32F0E942A05C49AC598C59AFB
:100176000E949E0926960895EA93FA93EFB7EA93AA
:10018600F201319606C0EA93FA93EFB7EA93F201C9
:1001960031972F01E991EFBFF991E9911895E7E0C1
:1001A600E7BBE0E0E8BBE4BBE5BBEAE0E0936A005E
:1001B600E0E0EABFE3E0E9BFE8BFE2E5EDB9E0E091
:1001C600EEB9A0E10E94FD047894E0E0EA93A0E095
:1001D6000E94AD04A0E9B0E00E94EA04D201ABDFC0
:1001E600F201662777270E94B907DF01CB01E0E01D
:1001F600F0E060E875E40E949108A0E0B0E080EAD3
:1002060090E40E944308E0931005F0931105609373
:10021600120570931305E0E0F5E0FA93EA93E1EA3C
:10022600F0E0FA93EA93E0911005F09111056091E0
:100236001205709113050E947A0984E00E94590400
:100246002896E0E0EA93A1E00E94AD04A0E0B5E0C4
:100256000E94DB04A4E6B0E00E944307BFCFFFCFB5
:10026600BA93AA931A930A93AA81BB8112960E9403
:100276006109309729F1AA81BB8114960E94610910
:100286008F01309761F00230E0E01E0780F0F80140
:1002960031978F01AA81BB811496ED93FC93AA81B5
:1002A600BB8112960E9441063197AC81A083AA8138
:1002B600BB810E946109FF2312F00E94410606C01D
:1002C600AA81BB81EFEFFFEFED93FC9319810881C3
:1002D600259608950E944706E0E8EA83EFE3EB835C
:1002E6000E949709EE85FF85EF3FAFEFFA0749F4C5
:1002F600E885F985FA93EA93A4EBB0E00E9432050B
:10030600B7C0EF3FAFE7FA0749F4E885F985FA93F6
:10031600EA93A5EBB0E00E943205AAC0AB85A730F0
:1003260010F0E6E0EB871B85E12F1150E03019F065
:100336000E944E06F9CFEC85FD856E857F850E946D
:10034600910921F430E00E944E062DC03B850E94A3
:100356005D0609F008F40BC00E944E060E945D0679
:1003660028F00E9468060E946D06F8CF0DC00E9414
:100376005D0640F40E9468060E9479060E94800687
:100386003150F5CF0E944E06EC85FD856E857F8542
:100396000E9485060E9480060E945D0620F00E944B
:1003A60068060E946D0610E0EB85E117A8F1AC81A6
:1003B600BD818E819F810E948C060E948506DF0189
:1003C600CB010E948905EC83FD836E837F830E94A7
:1003D60068060E9491080E9480070E2F0E949306CD
:1003E6000E949A06FF27662777270E94B907AC81E5
:1003F600BD818E819F810E9443080E9468060E94EB
:100406009F060E948006E12F1F5FE03069F60E947A
:100416009306EEE2EC93C8CF0E94A4063197AA8514
:10042600A08330302CF43195A885B985EDE203C060
:10043600A885B985EBE2EC930E94A4060E94A40667
:100446003197BF01A32FEAE00E941B09E05DDB01A3
:10045600EC930E94A4063197BF01A32FEAE00E9405
:100466004509E05DDB01EC93A885B985E0E0EC93F6
:100476000E949E0960960895BA93AA93EF97619792
:100486000E94950910E0FE01E85AFF4F0190F081A5
:10049600E02DE887F987FE01EA5AFF4F0190F081C7
:1004A600E02DEE83FF83AE81BF81E0E0F0E0ED93C7
:1004B600FC93DE01A45ABF4F0E9441063197E49196
:1004C6002E2FE03009F4E9C1E12FE03039F425326E
:1004D60011F411E002C00E94AA06DEC1E130C1F4A7
:1004E600253219F40E94AA06D6C112E0E0E0ED8B8F
:1004F60000E02D3211F401E0CFC12B3219F4EBE20A
:10050600ED8BCAC1203219F4E0E2ED8BC5C102C001
:10051600E23039F450E013E0203311F40068BCC136
:1005260002C0E33091F4203310F02A3308F007C0FC
:10053600AAE05A9F502DE22FE0535E0FADC140E076
:100546002E3211F414E0A8C10FC0E43099F4203320
:1005560010F02A3308F008C00062AAE04A9F402D36
:10056600E22FE0534E0F98C12C3619F4026015E0C5
:1005760093C103C0E53009F08FC1E22FE33659F489
:100586000E94B1060E94B8060E94B106A481AA93F1
:100596000E94BF0680C1E53411F0E53609F403C0B8
:1005A600E63609F048C0FE017696EE87FF870E9480
:1005B600C5060E9465090E94CC060E94D106AD853B
:1005C600AA2332F0AD89AB3259F0A03281F017C0C0
:1005D6000E94D3060E944D070E94CC06EDE2ED8BE9
:1005E60007FF05C0ED89EA930E94BF0608C0EE85A5
:1005F600FF853196EE87FF873197AD89A08305FF8A
:1006060046E0263651F40E94D3060E947A094A93A0
:10061600AB89BC890E94A00509C00E94D3060E942E
:100626007A094A932A93AC89BD8954DEFE017696EF
:100636000E94D8061EC0E33739F40E94D1060E94F4
:10064600E0060E94D8060EC0E037C1F40E94D1062B
:100656000E94E006EE87FF87AE85BF850E944B05A8
:100666001E2F08600F77403011F0411708F001C0C7
:10067600142F40E0E0E0EC8B30E06DC0E43611F082
:10068600E93611F4046002C0E537A1F4EAE0EC8B28
:1006960001FF08C0E0E0FAEC6AE97BE30E94E506A8
:1006A6001AE022C0E0E1F7E260E070E00E94E506B1
:1006B60015E01AC0E83511F4086003C0E83709F000
:1006C600EAC0E0E1EC8B01FF08C0E0E0F0E060E0AA
:1006D60070E10E94E50618E007C0E0E0F0E160E0A6
:1006E60070E00E94E50614E0403011F00F7701C07B
:1006F60041E001FF08C00E94D1060E94C50614967B
:100706000E9465090FC002FF07C00E94D1060E9421
:10071600E0060E94080906C00E94D1060E94E00673
:1007260066277727EA87FB876C877D8702FF12C0DB
:10073600AD85AA2342F40E94D3060E94FA080E94BD
:10074600CC06EDE2ED8BED89E03019F01F5F4F5FCF
:1007560001C00B7F342F00FD14C0151710F4351798
:1007660008F00FC007FF08C002FF04C00B7F2D89E9
:10077600115001C020E301C020E20E94AA06515098
:10078600ECCF141790F4006102FF06C00E94EA063F
:1007960009F0515011504150E0E3EA930E94BF0620
:1007A600503009F051504150ECCF312FEC89E030F8
:1007B600B9F43030A1F003FF06C0EE85FF85259120
:1007C600EE87FF8705C0AE85BF852D91AE87BF87B3
:1007D6000E94AA06503009F051503150EACF51C05C
:1007E6000E94FC060E9420092E2F2A3030F003FFBB
:1007F60002C0295C01C0295A01C0205D04FD21C048
:10080600213360F4A889B9898A899B89A130E0E0FF
:10081600BE07E0E08E07E0E09E0709F40BC0431731
:1008260040F4531710F000FF01C010C020E207FF8C
:1008360008C020E3006102FF04C00E94EA0609F036
:1008460051500E94AA06503009F0515031500E9472
:10085600FC060E9451090E94CC06EC89A889B98938
:100866008A899B89FF27662777270E9420090E948D
:10087600E506E889F9896A897B890E94910909F068
:10088600AFCF00FF08C0503031F05150E0E2EA939C
:100896000E94BF06F8CF10E00CCEAE81BF810E9449
:1008A60061090E949C09EF966F960895FF92F82EB3
:1008B60026970E9497090E940507309719F4EFEFD3
:1008C600FFEF23C0DE0116960E94F6088D010E94F6
:1008D6000507EE83FF83E0E0E887E987DE011A96E5
:1008E6000E94F6080E946109FA93EA931A930A9302
:1008F600E3E3F1E0FA93EA93DE011A96BDDD9F0188
:10090600AE81BF81E0E0EC93F9010E949E092A9630
:10091600FF900895AA93E5B3EF70AE2FE881E07FCC
:10092600EA2BE5BB81E18A95F1F7A99A81E18A95DF
:10093600F1F7A99881E18A95F1F78FC0AA93A8816A
:10094600E9DFE881E295E883A881E4DF87EA8A9512
:10095600F1F783C0AA93E881F0E0EC5EFA4FE081FC
:10096600A981AE0FEBDF6980988022960895A2E0F8
:100976000E940C07ACE0E2DFA1E00E940C07E0E079
:100986009E2E6E2E0895AA93A881AA3011F068149F
:1009960048F0E0E0EA939394A92DDCDFA881AA3021
:1009A60009F45BC06394A89AA881C8DFA89855C0CB
:1009B600BA93AA931A93A981BA81ED91A983BA83AE
:1009C6001E2FE03019F0A12FDEDFF5CF10C0BA934D
:1009D600AA931A93E981FA813196E983FA833197CA
:1009E600E4911E2FE03019F0A12FCDDFF3CF18814F
:1009F60023960895AA93E4B3E06FE4BBA19AA09A64
:100A0600A29AA998A898AA988880E881E058E093C5
:100A16001605E881E054E0931705A4E1B0E00E94D2
:100A260043070E9412070E9412070E941207A0E2C3
:100A360071DF8AEF90E00197F1F7A8E27FDFA4E08B
:100A46007DDFA5E87BDFA6E079DF91DF06C0AA930C
:100A5600E881EFB9779BFECFEFB121960895BA935F
:100A6600AA93E991F991A991B991CD0105900D92B9
:100A76000020E1F7FC010895BA93AA93A991B991D0
:100A8600EE27FF276D91662311F03196FBCF08956F
:100A9600BA93AA93AA27BB27E991F991059000205A
:100AA60011F01196FBCFFD0108950E947F097B810D
:100AB6006A81F981E88177FB770F67FD7160972F6F
:100AC6009E5781F078F0983190F4AA27BB278827A3
:100AD60008948795B795A7959A95D1F7EA23FB23AE
:100AE600682305C0E8947727EE27FF2766276F77E8
:100AF600769508F4606877F9A991B99189919991E9
:100B0600EA17FB076807790797FB08950E947F0994
:100B16000E9470090E9458050E94750919F40E94E6
:100B26006B0909C0E6F70E946B09A0E0B0E080E817
:100B36009FE30E94EC0724960895A6D0E0E0EA839E
:100B4600EFE3EB831A930A93EB85FC85EF3FAFEF58
:100B5600FA0731F46CD1AEEBB0E00E9432058AC0E0
:100B6600EF3FAFE7FA0731F462D1AFEBB0E00E9496
:100B7600320580C0AC85AA2352F4E985FA856B85D7
:100B86007C850E944D0758D15CD1EDE2EC93A88597
:100B9600A73010F0E6E0E8871885E12F1150E03025
:100BA60021F056D1B6D059D1F8CF5CD10E94F307C7
:100BB60043D110E0E0E0F0E060E87FE34ED152D1AF
:100BC6000E94D60868F044D191D047D11F5F1732F2
:100BD60030F02DD1A3ECB0E00E9432054BC0EFCF30
:100BE600103021F42ED1E0E3EC9320C0E12F115018
:100BF600E030E1F02DD18DD085D0DF01CB010E9410
:100C060089052BD12FD10E9491080E9480070E2FB3
:100C160018D18DD0F0E01CD10E9408090E94B907B6
:100C26000E94430828D188D007D1E0CFE885E0307C
:100C3600E9F007D1EEE2EC93E885E150E887EF5F53
:100C4600A9F019D153D0F8D0E985FA856B857C8552
:100C56000E9480070E2FF5D06AD0F0E00CD10E94DA
:100C660008090E94B90768D0E7D0E6CFAE81BF81F8
:100C7600E0E0EC93198108812D960895ED91FD91A0
:100C86003196FE93EE930895BA93AA932497E0E0E3
:100C9600E883E9830895AC81BD818E819F81E0E080
:100CA600F0E060E271E40E944308EC83FD836E830A
:100CB6007F830895EC81FD816E817F81AC85BD8542
:100CC6008E859F850E94D6080895AC85BD858E8544
:100CD6009F850895EDECFCEC6CEC7DE30E944308E7
:100CE600EC87FD876E877F873F5F0895E0E0F0E041
:100CF60060E271E40E9443080895EC87FD876E87E1
:100D06007F870895A0E0B0E080E09FE30E94F307AC
:100D16000895EDECFCEC6CEC7DE30E94430808952D
:100D2600A885B9851196A887B98711970895E02FE8
:100D3600E05DEC93E02F08950E9484090E94EC0781
:100D46000895E885F9853196E887F98708952A9305
:100D5600AF81B885E985FA8509950895FE01E65AB9
:100D6600FF4F0190F081E02D08953497DE01A65AD9
:100D7600BF4FED93FC930895AF81B885E985FA8559
:100D860009950895DE01A65ABF4F0D90BC91A02D7E
:100D96000895EA87FB876C877D870895DFDFE5CFB7
:100DA600EA85FB856C857D850895EE87FF87AE8590
:100DB600BF850E943F051E2F0895E4DF14960E940A
:100DC60061090895E88BF98B6A8B7B8B08950B7FFD
:100DD600ED89EA93DE01A95ABF4F0D90BC91A02D73
:100DE600FE01E75AFF4F0190F081E02D0995503042
:100DF6000895E889F9896A897B89AA85BB858C85E6
:100E06009D850895DE011C960E94F6080E946109E0
:100E160008950E94A104A3E0B0E00C944307A0E368
:100E26000E948D048AEF90E00197F1F70895EE8114
:100E3600FF81FA93EA930895E987FA876B877C879F
:100E46000895AE81BF811196AE83BF831197089531
:100E5600AA81BB818C819D810895EA83FB836C8383
:100E66007D830895EA81FB816C817D81A985BA85A0
:100E76008B859C850895A985BA858B859C85089563
:100E8600109639F084EC99E00197F1F7A89511973F
:100E9600C9F7089530976040704009F0705808957A
:100EA600552342F4503811F4E0FF04C03196691F0F
:100EB600791F6BF050E8572711F45F93CFC05F3F5F
:100EC60031F0660F000C57956795752F08955F935F
:100ED60000200AF0CFC0C8C050E8192E1522880F8E
:100EE600991F9527550F879550E8072E0522660FFF
:100EF600771F7527550F67950895689401C0E89484
:100F06005F93F2DF703818F07F3F08F4A7C056E110
:100F1600571BAAF4519558300EF4593030F0EFEFC4
:100F2600FFEF6FEF7FE777F91AC077275523B9F000
:100F3600EE0FFF1F661F771F5A95D1F710C0772750
:100F4600583028F0EF2FF62F672F5850F9CF55233A
:100F560031F076956795F795E7955A95D1F7002084
:100F66000AF445D15F910895689401C0E8943097DA
:100F760060407040B1F0002426F0772312F400940C
:100F860036D1172E7EE1112032F07A95EE0FFF1F33
:100F9600661F111CF9CFEF2FF62F612D5F938ADFA5
:100FA6005F9108954F93AF01FD01DA01AB01BC01DA
:100FB600CA01402D012C142E4F910895EA0FFB1FF4
:100FC600681F0895E095F0956095EF5FFF4F6F4FAE
:100FD60008955F9381DF903871F150E8152604C0BB
:100FE6005F937ADF903839F1703821F1572F591B0A
:100FF6002BF112F4D7DFFACF583118F0AA27BB2706
:101006008827583028F0AB2FB82F88275850F9CFAB
:10101600552329F08695B795A7955A95D9F7502D5A
:10102600512572F0CBDF38F46795F795E795739500
:1010360013F420C0B7DF3EDF5F910895D8F7FBCFEA
:10104600EA1BFB0B680B51F010F40094BBDF662320
:1010560092F3EE0FFF1F661F7A95CBF7EE27FF2759
:10106600662777275F910895EFEFFFEF6FE77FEF32
:101076005F910895EFEFFFEF6FE77FE75F910895C8
:101086005F932ADF703851F3903841F301240894B6
:10109600791F23F41CF300203AF3ECCF0F921F9331
:1010A6002F933F934F93112722279927689FA001DB
:1010B6008F9F302D410D591F6B9F300D411D591FBC
:1010C6008E9F27D0BF9F25D06A9F23D0BE9F1DD05D
:1010D600AF9F1BD0AE9F110D291F391F491F591FE6
:1010E600E32FF42F652F522F4F913F912F911F9190
:1010F6000F9066232AF0550FEE1FFF1F661F02C0D2
:1011060073954BF2CDDE5F910895100D211D391FA9
:1011160002C0200D311D491F591F08955F93DCDE63
:10112600703821F411200AF49FCFA4CF903809F427
:1011360095CF01240894970B1BF4D4F30020F3CF2A
:10114600792F1F932F933F934F9311241127222713
:1011560033274427552790E2AE17BF078607410776
:1011660030F0AE1BBF0B860B410B089401C0889470
:10117600551F221F331F111CAA1FBB1F881F441F88
:101186009A9551F7F901612D4F913F912F911F913A
:10119600662332F0550FEE1FFF1F661F7A9543F246
:1011A6007FDE5F91089599239AF0772342F097178F
:1011B60048F029F4AE17BF07860720F031F098945F
:1011C6008894089598940894089518948894089596
:1011D6007723C2F7971798F3A9F7EA17FB0768076B
:1011E60088F399F3ECCF0024AF0DB01D0895F09568
:1011F60060957095E195FF4F6F4F7F4F0895FE2FD5
:10120600FF0FFF0B6F2F7F2F08956F2F660F660B53
:10121600762F0895002498E0AA0F001C0E1A10F4E9
:101226000E0E01C0A1609A95B9F7EA2FA02D089578
:1012360039D0F0DF0EF4E19508953F934F935F9315
:10124600002411244427552730E2AA0FBB1F881F0C
:10125600991F001C111C441F551F0E1A1F0A460B0E
:10126600570B28F40E0E1F1E461F571F01C0A16004
:101276003A9559F7FD01BC01D001CA015F914F9122
:101286003F910895E894A7FF02C0A1956894E7FDF1
:10129600E195C0DFEA2F0EF4E1950895CEDFFD015A
:1012A600BC010895E894E7FF02C0E1956894A7FFA2
:1012B60004C0A19500F8039400FA0895ED91FC91FD
:1012C60011970895ED91FD916D917C911397089575
:1012D600E881F9816A817B810895A881B9818A8133
:1012E6009B810895E883F9836A837B8308957A93C3
:1012F6006A93FA93EA9308959A938A93BA93AA9370
:101306000895182E862F612D192E972F712D1B2EBD
:10131600BF2FF12D1A2EAE2FE12D08953097604084
:10132600704008955A934A933A932A931A930A93CC
:1013360008955D814C813B812A8119810881089538
:00000001FF
