:0E0000000C94CC000C9400000C9400000C94A6
:10000E0000000C9400000C9400000C9400000C9462
:10001E0000000C9400000C9400000C9400000C9452
:10002E0000000C9400000C9400000C9400000C9442
:10003E0000000C9400000C9400000C9400000C9432
:10004E0000000C9400000C9400000C9400000C9422
:10005E0000000C9400000C9400000C9400000C9412
:10006E0000000C9400000C9400000C9400000C9402
:10007E0000000C9400000C9400000C94000010275B
:10008E00E80364000A0001000010000110000100E6
:10009E00000000050805110517051D05210526059B
:1000AE002B0533053D0545054E054A616E7561729A
:1000BE0069004665627275617269004D61726574A0
:1000CE0000417072696C004D6569004A756E690079
:1000DE004A756C690041677573747573005365706A
:1000EE0074656D626572004F6B746F626572004E5F
:1000FE006F76656D62657200446573656D626572DB
:10010E000025326420257320253464002532643A9C
:10011E00253032643A253032640001002D4E414EB6
:10012E0000494E46000080C0010002009E000800FB
:10013E000005B80009000805C00006001105C90039
:10014E0006001705CF0004001D05D500050021058A
:10015E00D90005002605DE0008002B05E3000A0085
:10016E003305EB0008003D05F50009004505FD00CF
:10017E0009004E05060118007805A0000100900543
:10018E0028010200940534010000F894EE27ECBB20
:10019E00F1E0F5BFE5BFE0936C008DE0A2E0BB2778
:1001AE00ED938A95E9F780E090E1A0E0B1E0ED9360
:1001BE000197E9F7E6E3F1E085919591009761F0FB
:1001CE00A591B59105901590BF01F00105900D9286
:1001DE000197E1F7FB01F0CF8BBFEFEFEDBFE0E151
:1001EE00EEBFC0E0D5E00C94FC000E94A105E0E05B
:1001FE00EA93A0E00E9468035524E9E04E2EEDE15B
:10020E007E2EE5E16E2EE4E19E2EEAE08E2EEFEDDF
:10021E00F7E05F01E0E0EA939A928A92D5010E949C
:10022E006004E0E0EA936A927A924A92A52D0E94C7
:10023E000304A0E10E94DF04E0E0EA93E9E0F0E0CD
:10024E00FA93EA93E8E0F0E0FA93EA93AAE0B0E0DA
:10025E000E941B04E8E5F5E0FA93EA93EFE0F1E083
:10026E00FA93EA93E92D0E943E05E82DF0E03197CE
:10027E00A8E7B5E0EE0FFF1FAE0FBF1F0E940406EA
:10028E00662777270E940C06F501662777270E94BE
:10029E000C060E944405A0E00E949E04A8E5B5E06D
:1002AE000E944B05E0E0EA93E6E0F0E0FA93EA9371
:1002BE00E7E0F0E0FA93EA93E4E0F0E0FA93EA93F1
:1002CE00A5E0B0E00E94DF03E8E6F5E0FA93EA93DA
:1002DE00EAE1F1E0FA93EA93E62D0E943E05E72D5E
:1002EE000E943E05E42D0E943E050E944405A1E0B9
:1002FE000E949E04A8E6B5E00E944B059DCFFFCF5D
:10030E00BA93AA931A930A93AA81BB8112960E945A
:10031E000406309759F1AA81BB8114960E940406F7
:10032E008F01309761F00230E0E01E0798F0F8017F
:10033E0031978F01AA81BB811496ED93FC93AA810C
:10034E00BB811296ED91FD913196FE93EE9331970E
:10035E00AC81A083AA81BB810E940406FF232AF0F0
:10036E00ED91FD913196FE93EE9306C0AA81BB816D
:10037E00EFEFFFEFED93FC9319810881B6C2BA93AC
:10038E00AA9326970E94110610E0AC85BD85E0E089
:10039E00F0E0ED93FC93EA89FB893196EA8BFB8BB7
:1003AE003197E4912E2FE03009F415C1E12FE030A2
:1003BE0039F4253211F411E002C00E9451050AC130
:1003CE00E130A9F4253219F40E94510502C112E060
:1003DE0040E000E02D3211F401E0FCC02B3211F4AC
:1003EE004BE2F8C0203211F440E2F4C002C0E23019
:1003FE0039F450E013E0203311F40068EBC003C071
:10040E00E33009F0E7C0203310F02A3308F007C0BC
:10041E00AAE05A9F502DE22FE0535E0FDBC0E22F71
:10042E00E33649F40E945805E889F989A481AA9314
:10043E000E945E05CEC0E33741F40E9458050E942B
:10044E0064050E940E051E2F0AC0E03761F40E945B
:10045E0058050E9464050E941A051E2F086002604E
:10046E000F7730E034C0E43611F0E93611F4046051
:10047E0002C0E53731F4ECE8F0E0EE83FF8315E0DF
:10048E000CC0E83511F4086003C0E83709F0A1C0CC
:10049E00E6E9F0E0EE83FF8314E002FF14C00E9451
:1004AE0058050E946E05AB85AA233AF4EA85FB85B2
:1004BE000E940006EA87FB874DE2403011F01F5F75
:1004CE0001C00B7F04C00E9458050E946E0500FDFE
:1004DE0011C0151778F407FF08C002FF04C00B7F88
:1004EE00242F115001C020E301C020E20E945105CB
:1004FE005150EFCF312F01FF17C03030A1F003FF65
:10050E0006C0EE81FF812591EE83FF8305C0AE818B
:10051E00BF812D91AE83BF830E945105503009F0EB
:10052E0051503150EACF4BC020E3EE81FF810E9443
:10053E000806E887F987EE81FF813296EE83FF8306
:10054E00E885F985AA85BB85AE17BF0750F02F5FEA
:10055E00A885B985EA85FB85EA1BFB0BEA87FB8735
:10056E00EFCF2A3328F003FF02C0295F01C0295DB7
:10057E0004FD1AC0213320F4A885B985119709F41A
:10058E0009C0531710F000FF01C013C020E207FF8F
:10059E000BC020E3006102FF07C00B7F4A930E944D
:1005AE005E05503009F051500E945105503009F04F
:1005BE0051503150A885B985129708F0B5CF00FF7C
:1005CE0008C0503031F05150E0E2EA930E945E05CF
:1005DE00F8CF10E0E0CEAC85BD850E9404060E94E7
:1005EE00180664960895FF92F82E26970E94130619
:1005FE000E947605309719F4EFEFFFEF23C0DE016E
:10060E0016960E94FC058D010E947605EE83FF83EF
:10061E00E0E0E887E987DE011A960E94FC050E9459
:10062E000406FA93EA931A930A93E7E8F1E0FA9331
:10063E00EA93DE011A96A3DE9F01AE81BF81E0E050
:10064E00EC93F9010E941A062A96FF900895AA9338
:10065E001A93EA81EE0FE06A1E2F0E94A605A12FC3
:10066E000E94DA05A9810E94DA050E94A605E12FF3
:10067E00E160AE2F0E94DA05A0E00E94BF051E2F9A
:10068E000E94B505E12F91C1AA930E94A605EA81A9
:10069E00EE0FE06AAE2F0E94DA05A9810E94DA05FC
:1006AE00A8810E94DA050E94B50580C1AA93E8814F
:1006BE00EA93A0E0CCDFE0935705E1FB20F80C9421
:1006CE000C05AA931A9310E9E981E03009F010EBBA
:1006DE00E0E0E0935705E89420F8EA81EA93E0E041
:1006EE00EA93A0E0D1DFEA81EA93E4E0EA93EC81B9
:1006FE00EA93A4E0ACDFEF73AE2FC6DFEA81EA9394
:10070E00E8E0EA93A12FC0DF50C10E947D05E068AA
:10071E000E9484057AC10E947D05EF770E948405B0
:10072E0074C10E947D05EF7B0E9484056EC10E94FC
:10073E007D05E0640E94840568C1AA93E981EA936D
:10074E00A98185DFAE2F0E942705FCC0AA93EA81FE
:10075E00EA93EA81EA93AA810E943405AE2F94DFD0
:10076E0025C1BA93AA93EB81EA93EB81EA93EA81CE
:10077E00AE2F8ADFEB81EA93EB81EF5FEB83EA9397
:10078E00AB8182DF24960895BA93AA93EC81EA9303
:10079E00EC81EA93AC810E943405AE2FEA81E370BE
:1007AE00E295E07FEE0FEE0FEA2BAE2F6DDF9DC0D0
:1007BE00BA93AA93A885BBDFE885EA93A1E0BDDFD3
:1007CE00A881B981EC93E885EA93A2E0B6DFAA810D
:1007DE00BB81EC93E885EA93A3E0AFDFAC81BD81EA
:1007EE00EC93E885EA93A4E0A8DFAE81BF81EC9399
:1007FE00A88597DF29960895AA93AC8186DFEC81B0
:10080E00EA93E1E0EA93AA810E948E05E2E0EA9380
:10081E00AB810E948E05E3E0EA93AC810E948E05C7
:10082E00E4E0EA93AD815EC0BA93AA930E941306E8
:10083E00AA857DDFEA85EA93A5E009DF1E2FEA850A
:10084E00EA93A6E004DFEF71AE2F0E942705AE817A
:10085E00BF81EC93AA8565DFE12FEF73AE2F0E9467
:10086E002705A885B985EC9312951F7016951695D8
:10087E00EA85EA93A0E1EBDE0E2FEA85EA93A1E189
:10088E00E6DEFE2FE0E0E02B9F01E3701E1749F03D
:10089E00EA85EA93E0E1EA93F90131969F01DF01DF
:1008AE0060DFAC81BD812D933C930E941A062B967E
:1008BE000895BA93AA93EC81EA93E0E1EA93AA81B0
:1008CE00BB814FDFAC8121DFEC81EA93E5E0EA9357
:1008DE00ED81EA93AB81BC8157DFEC81EA93E6E0D0
:1008EE00EA93AC8133DFAC8116DF25960895AA9387
:1008FE00E5B3EF70AE2FE881E07FEA2BE5BB81E137
:10090E008A95F1F7A99A81E18A95F1F7A99881E183
:10091E008A95F1F77AC0AA93A881E9DFE881E2957A
:10092E00E883A881E4DF87EA8A95F1F76EC0AA937F
:10093E00E881F0E0EC56FA4FE081A981AE0FEBDFD3
:10094E00D980C88022960895A2E00E949305ACE05B
:10095E00E2DFA1E00E949305E0E0CE2EDE2E0895A8
:10096E00AA93A881AA3021F0E0919805DE1648F0EE
:10097E00E0E0EA93C394AC2DDADFA881AA3009F443
:10098E0044C0D394A89AA881C6DFA8983EC0BA9353
:10099E00AA931A93A981BA81ED91A983BA831E2FC6
:1009AE00E03019F0A12FDCDFF5CF188123960895E2
:1009BE00AA93E4B3E06FE4BBA19AA09AA29AA99875
:1009CE00A898AA98E881E0939805E058E0939605D8
:1009DE00E881E054E0939705A4E1B0E00E94F205AF
:1009EE000E9499050E9499050E949905A0E27FDF59
:1009FE008AEF90E00197F1F7A8E28DDFA4E08BDF9C
:100A0E00A5E889DFA6E087DF9FDF21960895BA93D8
:100A1E00AA93A991B991EE27FF276D91662311F044
:100A2E003196FBCF0895BA93AA93AA27BB27E991D3
:100A3E00F9910590002011F01196FBCFFD0108955C
:100A4E00AA93E881E295EF70AE2FAA0FAA0FEA0FD4
:100A5E00EE0FA991AF70EA0F0895AA93A991EE2710
:100A6E00AA5012F0E05FFCCFA65FEA0F0895FF27B1
:100A7E00662777270E940C0608958CE00E94FA02E2
:100A8E006096E0E0EA9308950E94CE04AAEFB0E0EB
:100A9E000C94F2052A93AD85BE85EF85F8890995EC
:100AAE000895E889F9893497E88BF98B0895AD8517
:100ABE00BE85EF85F88909950895A889B989149698
:100ACE000E940406EE83FF83AE81BF810895A8893C
:100ADE00B98914960E940406EA87FB870895DE0101
:100AEE001C960E94FC050E9404060895AA93A881F4
:100AFE000E945D03E09157050895E0935705E88144
:100B0E00EA93E0E0EA93A09157050C944B030E9400
:100B1E00AD03EC81EA9308950E949204A3E0B0E045
:100B2E000C94F205A0E30E947E048AEF90E00197F8
:100B3E00F1F70895D898D998D09AD19815C0D19830
:100B4E00D098EE270000C99B0895C89B089504D045
:100B5E00D19A02D0D09AE1E061E107C0D19AD09A41
:100B6E0003D0D098F9DFD19861E26A95F1F7089534
:100B7E0078E0D098F1DFC89BFECFEEDF8894C9995C
:100B8E000894D09AF1DFEE1F7A9599F77A2F772392
:100B9E0011F4D19801C0D19ADFDFD098E5DFD09A59
:100BAE00DBDFD198D9CF78E0AA0F10F4D19801C02D
:100BBE00D19ADADFD098D0DFC89BFECFCDDFD09AA6
:100BCE007A9591F7D198C8DFD098CEDFE1E0C99938
:100BDE00EE27D09AC1CF109639F084EC99E00197A8
:100BEE00F1F7A8951197C9F708950024AF0DB01D20
:100BFE000895F195E195F0400895ED91FC911197CE
:100C0E0008950590F491E02D08957A936A93FA93DE
:100C1E00EA9308955A934A933A932A931A930A930E
:100C2E0008955D814C813B812A8119810881089547
:00000001FF
