:0C0000000C9446000C9400000C940000CE
:10000C000C9400000C9400000C9400000C94000064
:10001C000C9400000C9400000C9400000C94000054
:10002C000C9400000C9400000C9400000C94000044
:10003C000C9400000C9400000C9400000C94000034
:10004C000C9400000C9400000C9400000C94000024
:10005C000C9400000C9400000C9400000C94000014
:10006C000C9400000C9400000C9400000C94000004
:10007C000C9400000C9400000C9400000C940000F4
:10008C00F894EE27ECBBF1E0F5BFE5BFE0936C0014
:10009C008DE0A2E0BB27ED938A95E9F780E090E133
:1000AC00A0E0B1E0ED930197E9F78BBFEFEFEDBF67
:1000BC00E0E1EEBFC0E0D5E00C946400E0E0EABB08
:1000CC00EBBBEFEFE7BBE0E0E8BBE4BBE5BBE1BBC0
:1000DC00E2BBE2B9E3B9E0936100E0936200E09324
:1000EC006400E0936500E0BFE3BFE2BFE1BFEAEB71
:1000FC00EFBDE2E1EEBDE0E0EDBDECBDE0E3E7BD60
:10010C00E4EDE6BDE2E0EBBDE1E7EABDEDE2E9BD21
:10011C00EBE2E8BDE4E0E0937900E2EEE0937800F6
:10012C00E0E0E5BDE4BDE3BDE0938B00E0938A0025
:10013C00E0938900E0938800E0938100E0938000D5
:10014C00E0938700E0938600E0938500E0938400C1
:10015C00E0938300E0938200E7BFE0937D00E0939F
:10016C006A00EABFE9BFEAB9E0939A00E0E8E8B9AF
:10017C00E0E0E0BDE6B9EDB9E0937400E1E7F2E050
:10018C002F01E2EEF4E0E415F50528F013D0F201AE
:10019C003A962F01F6CFE2EEF4E02F01E1E7F2E020
:1001AC004E165F0628F006D0F2013A972F01F6CFD3
:1001BC00E5CFFFCF5BBC4ABC59BC48BC4092780031
:1001CC0050927900A4E6B0E00C94EC00109639F053
:1001DC0084EC99E00197F1F7A8951197C9F7089568
:00000001FF
