:0A0000000C94BB000C9400000C945B
:10000A0000000C9400000C9400000C9400000C9466
:10001A0000000C9400000C9400000C9400000C9456
:10002A0000000C9400000C94F4000C9400000C9452
:10003A0000000C9400000C9400000C9400000C9436
:10004A0000000C9400000C9400000C9400000C9426
:10005A0000000C9400000C9400000C9400000C9416
:10006A0000000C9400000C9400000C9400000C9406
:10007A0000000C9400000C9400000C9400000C94F6
:10008A000000536C656570204D6F64653A204F4ED1
:10009A0000536C656570204D6F64653A204F4E0DB4
:1000AA00004D6173756B6B616E204E6F2E53656EDA
:1000BA00736F722028302D37293A200025640025D5
:1000CA00640D00496E7075742053616C61682E2E40
:1000DA002E210D004D6173756B6B616E204A756D33
:1000EA006C616820446174612028302D35303030CD
:1000FA0030293A20004D6173756B6B616E20536134
:10010A006D706C696E672054696D652028302D31D9
:10011A00303030296D733A200044617461282564B7
:10012A00293D20256400566F6C7420282564293DDA
:10013A002025342E3266200D00446174612825641E
:10014A00293D2025342E326600002D4E414E0000F6
:10015A0080C001002D4E414E00494E46000002006B
:10016A0014055A0101001B055C010000F894EE27F2
:10017A00ECBBF1E0F5BFE5BFE0936C008DE0A2E0D7
:10018A00BB27ED938A95E9F780E090E1A0E0B1E022
:10019A00ED930197E9F7E8E6F1E0859195910097EB
:1001AA0061F0A591B59105901590BF01F0010590F8
:1001BA000D920197E1F7FB01F0CF8BBFEFEFEDBF97
:1001CA00E0E1EEBFC0E0D5E00C943601E0E0EDBD21
:1001DA00ECBD4424ECE001C0E0E0EEBD08950A92D3
:1001EA001A92FA926A937A938A939A93AA93BA93EF
:1001FA00EA93FA93EFB7EA934394EAE0E415A9F491
:10020A000E949B07E0E0EA93A1E00E948A07E0E0EF
:10021A00EEBDACE8B0E00E94D807ABE9B0E00E94BE
:10022A005C020E945E070E946207E991EFBFF991A2
:10023A00E991B991A9919991899179916991F990E5
:10024A00199009901895AA93E881E7B981E28A95ED
:10025A00F1F7369A349BFECF349AE4B1F5B10C9497
:10026A005A02E0E0EABBEBBBE7BBE8BBE4BBE5BB99
:10027A00E1BBE2BBE2E0E2B9E3E0E3B9E0E0E0934C
:10028A006100EFEFE0936200E0E0E0936400E09346
:10029A006500E0BFE3BFE2BFE1BFEFBDECE0EEBD4A
:1002AA00E0E0EDBDECBDE7BDE6BDE8E9EBBDE6E9A2
:1002BA00EABDE0E0E9BDE8BDE0937900E0937800AB
:1002CA00E5BDE4BDE3BDE0938B00E0938A00E093D3
:1002DA008900E0938800E0938100E0938000E09336
:1002EA008700E0938600E0938500E0938400E09322
:1002FA008300E0938200E0E1E7BFE0E0E0937D0065
:10030A00E0936A00EABFE9BFEBB9E8E1EAB9E6E0DF
:10031A00E0939500E0E0E0939000E0E4E9B9E0E0E2
:10032A00E0939A00E0E8E8B9E0E0E7B9E6E8E6B980
:10033A00E0E0E0BDEDB9E0937400A0E10E94E407BB
:10034A007894ABEAB0E00E944509E5E0F0E060E0AD
:10035A0070E00E944E090E945B090E946209E7E070
:10036A00E51510F40E946709E7E0E51550F3AEEDD4
:10037A00B0E00E944509E6E0F0E060E070E00E942B
:10038A004E09F3010E946B09E0E5F3ECE615F70567
:10039A0010F40E946709E0E5F3ECE615F70538F377
:1003AA00AFEFB0E00E944509ECE0F0E060E070E0F9
:1003BA000E944E09F6010E946B09E8EEF3E0EC1583
:1003CA00FD0510F40E946709E8EEF3E0EC15FD055F
:1003DA0038F30E949B07E1E0F0E04F0168147904CA
:1003EA0008F458C0A52D2FDF5F01EAE9F0E0FA937F
:1003FA00EA9380E00E94C4052296E4E0F5E0FA93CD
:10040A00EA93E3E2F1E00E947009F5016627772793
:10041A000E947309A0E00E947C09F50166277727EC
:10042A000E942F0BDF01CB01E0E0F0E060E874E40A
:10043A000E94070CA0E0B0E080EA90E40E94B90BA9
:10044A00E0930005F093010560930205709303059C
:10045A00E0E3F1E00E9470090E9482090E94FC0C0C
:10046A0088E00E94C4052A96E4E0F5E0FA93EA934C
:10047A00E3E4F1E00E9470090E9482090E94730974
:10048A00A1E00E947C09D6010E94B90AF4013196C2
:10049A004F01A4CF56CFFFCF5F9BFECFECB108959B
:1004AA00AA935D9BFECFE881ECB921960895BA9391
:1004BA00AA931A930E948B0919F0A12FF1DFFACFA0
:1004CA00AAE0EEDF188108C0BA93AA93AA81E8DFEE
:1004DA00A881B9810E94950923960895BA93AA938F
:1004EA001A930A93AA81BB8112960E94E30C309751
:1004FA0029F1AA81BB8114960E94E30C8F013097DF
:10050A0061F00230E0E01E0780F0F80131978F01B8
:10051A00AA81BB811496ED93FC93AA81BB811296A2
:10052A000E9495093197AC81A083AA81BB810E9460
:10053A00E30CFF2312F00E94950906C0AA81BB8131
:10054A00EFEFFFEFED93FC93198108814BC30E94F3
:10055A009B09E0E8EA83EFE3EB830E94190DEE853D
:10056A00FF85EF3FAFEFFA0749F4E885F985FA937B
:10057A00EA93A4E5B1E00E943608B7C0EF3FAFE7BF
:10058A00FA0749F4E885F985FA93EA93A5E5B1E013
:10059A000E943608AAC0AB85A73010F0E6E0EB87C8
:1005AA001B85E12F1150E03019F00E94A209F9CF02
:1005BA00EC85FD856E857F850E94130D21F430E060
:1005CA000E94A2092DC03B850E94B10909F008F4D6
:1005DA000BC00E94A2090E94B10928F00E94BC091E
:1005EA000E94C109F8CF0DC00E94B10940F40E94CF
:1005FA00BC090E94CD090E94D4093150F5CF0E944E
:10060A00A209EC85FD856E857F850E94D9090E9425
:10061A00D4090E94B10920F00E94BC090E94C109B4
:10062A0010E0EB85E117A8F1AC81BD818E819F8135
:10063A000E94E0090E94D909DF01CB010E948D08BE
:10064A00EC83FD836E837F830E94BC090E94070CA2
:10065A000E94F60A0E2F0E94E7090E94EE09FF2760
:10066A00662777270E942F0BAC81BD818E819F81DF
:10067A000E94B90B0E94BC090E94F3090E94D40986
:10068A00E12F1F5FE03069F60E94E709EEE2EC9382
:10069A00C8CF0E94F8093197AA85A08330302CF47C
:1006AA003195A885B985EDE203C0A885B985EBE245
:1006BA00EC930E94F8090E94F8093197BF01A32F11
:1006CA00EAE00E949D0CE05DDB01EC930E94F809D0
:1006DA003197BF01A32FEAE00E94C70CE05DDB015E
:1006EA00EC93A885B985E0E0EC930E94200D609612
:1006FA000895BA93AA93EF9761970E94170D10E095
:10070A00FE01E85AFF4F0190F081E02DE887F98752
:10071A00FE01EA5AFF4F0190F081E02DEE83FF833C
:10072A00AE81BF81E0E0F0E0ED93FC93DE01A45AD4
:10073A00BF4F0E9495093197E4912E2FE03009F4BA
:10074A00E7C1E12FE03039F4253211F411E002C09B
:10075A000E94FE09DCC1E130C1F4253219F40E947D
:10076A00FE09D4C112E0E0E0ED8B00E02D3211F475
:10077A0001E0CDC12B3219F4EBE2ED8BC8C1203276
:10078A0019F4E0E2ED8BC3C102C0E23039F450E063
:10079A0013E0203311F40068BAC102C0E33091F4C7
:1007AA00203310F02A3308F007C0AAE05A9F502DD0
:1007BA00E22FE0535E0FABC140E02E3211F414E099
:1007CA00A6C10FC0E43099F4203310F02A3308F0A0
:1007DA0008C00062AAE04A9F402DE22FE0534E0F64
:1007EA0096C12C3619F4026015E091C103C0E530B8
:1007FA0009F08DC1E22FE33659F40E94050A0E94DE
:10080A000C0A0E94050AA481AA930E94130A7EC1B7
:10081A00E53411F0E53609F403C0E63609F048C0BC
:10082A00FE017696EE87FF870E94190A0E94E70C5E
:10083A000E94200A0E94250AAD85AA2332F0AD89BA
:10084A00AB3259F0A03281F017C00E94270A0E94E9
:10085A00C30A0E94200AEDE2ED8B07FF05C0ED896D
:10086A00EA930E94130A08C0EE85FF853196EE8747
:10087A00FF873197AD89A08305FF46E0263651F4FC
:10088A000E94270A0E94FC0C4A93AB89BC890E94E9
:10089A00A40809C00E94270A0E94FC0C4A932A93C2
:1008AA00AC89BD8954DEFE0176960E942C0A1CC0D2
:1008BA00E33739F40E94250A0E94340A0E942C0A5E
:1008CA000CC0E037B1F40E94250A0E94340A0E9443
:1008DA00390A0E944F081E2F08600F77403011F026
:1008EA00411708F001C0142F40E0E0E0EC8B30E043
:1008FA006DC0E43611F0E93611F4046002C0E53740
:10090A00A1F4EAE0EC8B01FF08C0E0E0FAEC6AE946
:10091A007BE30E943E0A1AE022C0E0E1F7E260E0CF
:10092A0070E00E943E0A15E01AC0E83511F408602A
:10093A0003C0E83709F0EAC0E0E1EC8B01FF08C028
:10094A00E0E0F0E060E070E10E943E0A18E007C0D3
:10095A00E0E0F0E160E070E00E943E0A14E040301E
:10096A0011F00F7701C041E001FF08C00E94250A7B
:10097A000E94190A14960E94E70C0FC002FF07C0D2
:10098A000E94250A0E94340A0E94820C06C00E9414
:10099A00250A0E94340A66277727EA87FB876C872D
:1009AA007D8702FF12C0AD85AA2342F40E94270A5E
:1009BA000E94740C0E94200AEDE2ED8BED89E03072
:1009CA0019F01F5F4F5F01C00B7F342F00FD14C069
:1009DA00151710F4351708F00FC007FF08C002FFFB
:1009EA0004C00B7F2D89115001C020E301C020E211
:1009FA000E94FE095150ECCF141790F4006102FFD7
:100A0A0006C00E94430A09F0515011504150E0E3D8
:100A1A00EA930E94130A503009F051504150ECCF2A
:100A2A00312FEC89E030B9F43030A1F003FF06C071
:100A3A00EE85FF852591EE87FF8705C0AE85BF85C8
:100A4A002D91AE87BF870E94FE09503009F05150A0
:100A5A003150EACF51C00E94550A0E94A20C2E2F93
:100A6A002A3030F003FF02C0295C01C0295A01C0B4
:100A7A00205D04FD21C0213360F4A889B9898A89DF
:100A8A009B89A130E0E0BE07E0E08E07E0E09E0728
:100A9A0009F40BC0431740F4531710F000FF01C0CC
:100AAA0010C020E207FF08C020E3006102FF04C073
:100ABA000E94430A09F051500E94FE09503009F081
:100ACA00515031500E94550A0E94D30C0E94200AAC
:100ADA00EC89A889B9898A899B89FF27662777279C
:100AEA000E94A20C0E943E0AE889F9896A897B89D8
:100AFA000E94130D09F0AFCF00FF08C0503031F04B
:100B0A005150E0E2EA930E94130AF8CF10E00ECEA9
:100B1A00AE81BF810E94E30C0E941E0DEF966F9674
:100B2A000895FF92F82E26970E94190D0E945E0AD8
:100B3A00309719F4EFEFFFEF1DC0DE0116960E9401
:100B4A006C0C8D010E945E0AEE83FF83E0E0E88769
:100B5A00E987DE011A960E94650AE3E7F2E0FA9352
:100B6A00EA93DE011A96C5DD9F01AE81BF81E0E0FE
:100B7A00EC93F9010E94200D2A96FF900895FF92A6
:100B8A00F82E26971A930A93DE0114960E946C0C8B
:100B9A008D01E0E0EC83ED83EE83EF83DE011896AE
:100BAA000E94650AE9E6F2E0FA93EA93DE011896F2
:100BBA00A0DD198108812896FF900895BA93AA9317
:100BCA001A93A981BA81E0E0EC93AB81BC81EC91E4
:100BDA001E2FE03019F0E0E0EC9302C05DDC1E2F1E
:100BEA00E12F188125960895FF92BA93AA93249724
:100BFA000E94170DE0E0F0E0E887F9874E2FE889B8
:100C0A00F9893196E88BF98B3197E4913E2FE030E0
:100C1A0009F42BC10E946E0AC1F0EDB7FEB7FA9330
:100C2A00EA934F930E94730A4F913E2FE03019F0D6
:100C3A000E946E0A09F407C00E94790A1CF4EFEFB9
:100C4A00FFEF15C1EACF432F0FC1353209F0F4C0C7
:100C5A0050E0E889F9893591E88BF98B303310F047
:100C6A003A3308F007C0AAE05A9F502DE32FE05309
:100C7A005E0FEFCF303009F4F8C0EDB7FEB7FA9344
:100C8A00EA934F930E94730A4F912E2FAE2F0E9420
:100C9A001C08E03039F00E94790A1CF4EFEFFFEFEC
:100CAA00E6C0EBCF203009F4D7C0422F503009F408
:100CBA005FEFE32FE336B1F40E947E0A14960D919A
:100CCA001C91EDB7FEB7FA93EA934F930E94730A09
:100CDA004F91D801EC930E94790A1CF4EFEFFFEFD1
:100CEA00C6C0A7C0E33759F50E947E0A14960D9133
:100CFA001C91E52F5150E030F1F0EDB7FEB7FA93B1
:100D0A00EA934F930E94730A4F913E2FE03019F0F5
:100D1A000E946E0A39F00E94790A1CF4EFEFFFEF85
:100D2A00A6C009C01F930F930F5F1F4FE32FAF9108
:100D3A00BF91EC93DECFD801E0E0EC937AC06894DF
:100D4A00F1F8E894F2F8E32FE43611F0E93619F4F1
:100D5A00E894F1F802C0E53711F42AE008C0E83750
:100D6A0011F420E104C0E53209F466C07EC0E0E077
:100D7A00EE83EF836894F0F8E52F5150E03009F4E0
:100D8A0046C0EDB7FEB7FA93EA934F930E94730AEF
:100D9A004F913E2FE13238F40E94790A1CF4EFEFAA
:100DAA00FFEF65C017C0F1FC08C06894F1F83D3246
:100DBA0011F4F2F8E1CF3B32F9F2203131F4A32FEA
:100DCA000E942708E03031F009C0A32F0E941308BF
:100DDA00E03021F4F0FC49C0432F19C0313610F03D
:100DEA00375505C0313410F0375301C03053E22F64
:100DFA00AE81BF81F0E00E94870CDF01E32FF0E0B3
:100E0A00EA0FFB1FEE83FF83E894F0F8B5CF0E9448
:100E1A007E0A14960D911C91F2FE06C0EE81FF81A6
:100E2A000E94700CEE83FF83EE81FF81D801ED935F
:100E3A00FC930E94F80918C0EDB7FEB7FA93EA933B
:100E4A004F930E94730A4F91E31771F00E94790A37
:100E5A001CF4EFEFFFEF0BC0E885F985309719F422
:100E6A00EFEFFFEF04C001C0CACEE885F9850E9402
:100E7A001E0D6296FF900895FF92F82E23971A93FB
:100E8A000A93DE0111960E946C0C8D01E0E0EB835F
:100E9A00EC83DE0115960E94650AE3EEF5E0FA930B
:100EAA00EA93DE011896A0DE198108812596FF9043
:100EBA000895E5B7E062E5BF0895E5B7E37EE5BFCB
:100ECA00EFB778948895EFBF0895AA93E5B3EF70CA
:100EDA00AE2FE881E07FEA2BE5BB81E18A95F1F745
:100EEA00A99A81E18A95F1F7A99881E18A95F1F7A2
:100EFA0093C0AA93A881E9DFE881E295E883A881F3
:100F0A00E4DF87EA8A95F1F787C0AA93E881F0E0DF
:100F1A00EC5EFA4FE081A981AE0FEBDFE981E09345
:100F2A001805E881E093190522960895A2E00E9427
:100F3A00820AACE0DEDFA1E00E94820AE0E0E093F0
:100F4A001905E09318050895AA93A881AA3031F0EB
:100F5A00E0911A05A0911805AE1760F0E0E0EA9357
:100F6A00A0911905AF5FA0931905CFDFA881AA3018
:100F7A0009F452C0E0911805EF5FE0931805A89AAA
:100F8A00A881B7DFA89848C0BA93AA931A93A981EF
:100F9A00BA81ED91A983BA831E2FE03019F0A12FEF
:100FAA00D3DFF5CF09C0BA93AA931A930E948B098B
:100FBA0019F0A12FC9DFFACF188123960895AA93B1
:100FCA00E4B3E06FE4BBA19AA09AA29AA998A89860
:100FDA00AA98E881E0931A05E058E0931605E8819B
:100FEA00E054E0931705A4E1B0E00E94B90A0E9418
:100FFA00880A0E94880A0E94880AA0E266DF8AEFAD
:10100A0090E00197F1F7A8E274DFA4E072DFA5E8A7
:10101A0070DFA6E06EDF8ADF21960895AA93E1E0E9
:10102A00F991F03310F0FA3308F0EE270895AA93F5
:10103A00E1E0F991F03229F0F93010F0FE3008F0D1
:10104A00EE270895AA93E1E0F991F05340F0FA30BF
:10105A0038F0FF75F750FA3010F0F03108F0EE274B
:10106A000895BA93AA93E991F991A991B991CD01F9
:10107A0005900D920020E1F7FC010895BA93AA9316
:10108A00A991B991EE27FF276D91662311F0319648
:10109A00FBCF0895BA93AA93AA27BB27E991F9919E
:1010AA000590002011F01196FBCFFD0108950E94D2
:1010BA00010D7B816A81F981E88177FB770F67FDF2
:1010CA007160972F9E5781F078F0983190F4AA2793
:1010DA00BB27882708948795B795A7959A95D1F73E
:1010EA00EA23FB23682305C0E8947727EE27FF2726
:1010FA0066276F77769508F4606877F9A991B991B0
:10110A0089919991EA17FB076807790797FB089570
:10111A000E94010D0E94F20C0E945C080E94F70CCA
:10112A0019F40E94ED0C09C0E6F70E94ED0CA0E04C
:10113A00B0E080E89FE30E94620B24960895F6D0FF
:10114A00E0E0EA83EFE3EB831A930A93EB85FC85ED
:10115A00EF3FAFEFFA0731F4DED1AEE5B1E00E941E
:10116A0036088AC0EF3FAFE7FA0731F4D4D1AFE5CA
:10117A00B1E00E94360880C0AC85AA2352F4E98502
:10118A00FA856B857C850E94C30ACAD1CED1EDE26D
:10119A00EC93A885A73010F0E6E0E8871885E12FE0
:1011AA001150E03021F0C8D106D1CBD1F8CFCED141
:1011BA000E94690BB5D110E0E0E0F0E060E87FE35F
:1011CA00C0D1C4D10E944C0C68F0B6D1E1D0B9D1DB
:1011DA001F5F173230F09FD1A3E6B1E00E943608B4
:1011EA004BC0EFCF103021F4A0D1E0E3EC9320C044
:1011FA00E12F1150E030E1F09FD1DDD0D5D0DF01F1
:10120A00CB010E948D089DD1A1D10E94070C0E949A
:10121A00F60A0E2F8AD1DDD0F0E08ED10E94820C20
:10122A000E942F0B0E94B90B9AD1D8D079D1E0CF66
:10123A00E885E030E9F079D1EEE2EC93E885E15017
:10124A00E887EF5FA9F08BD1A3D06AD1E985FA8547
:10125A006B857C850E94F60A0E2F67D1BAD0F0E022
:10126A007ED10E94820C0E942F0BB8D059D1E6CFB2
:10127A00AE81BF81E0E0EC93198108812D96089533
:10128A000E945C020E94EB00E6ECF0E0FA93EA931B
:10129A0008950E94FC0C84E00E94410726960E9451
:1012AA00F100E9ECF0E0FA93EA930895E52DFF27BF
:1012BA00662777270E94FC0C089584E00E94C405E3
:1012CA0026960895ADECB0E00C945C026627772769
:1012DA000E94FC0CF2CFFA93EA93E8CF0E94FC0C2E
:1012EA0088E00E9496052C96E0E0EA9308950E9411
:1012FA008A07A4E0B5E00C94C907E0910005F091D3
:10130A00010560910205709103050895E981FA814A
:10131A003196E983FA833197E4911E2FE0300895DC
:10132A00ED91FD913196FE93EE930895BA93AA93A7
:10133A002497E0E0E883E9830895AC81BD818E813A
:10134A009F81E0E0F0E060E271E40E94B90BEC8377
:10135A00FD836E837F830895EC81FD816E817F8199
:10136A00AC85BD858E859F850E944C0C0895AC8501
:10137A00BD858E859F850895EDECFCEC6CEC7DE3D4
:10138A000E94B90BEC87FD876E877F873F5F0895C0
:10139A00E0E0F0E060E271E40E94B90B0895EC87A6
:1013AA00FD876E877F870895A0E0B0E080E09FE325
:1013BA000E94690B0895EDECFCEC6CEC7DE30E9455
:1013CA00B90B0895A885B9851196A887B987119789
:1013DA000895E02FE05DEC93E02F08950E94060D3A
:1013EA000E94620B0895E885F9853196E887F987A6
:1013FA0008952A93AF81B885E985FA8509950895F4
:10140A00FE01E65AFF4F0190F081E02D08953497CE
:10141A00DE01A65ABF4FED93FC930895AF81B885BC
:10142A00E985FA8509950895DE01A65ABF4F0D9000
:10143A00BC91A02D0895EA87FB876C877D87089564
:10144A00DFDFE5CFEA85FB856C857D850895EE872C
:10145A00FF87AE85BF850E9443081E2F0895E4DFEB
:10146A0014960E94E30C0895EE87FF87AE85BF8528
:10147A000895E88BF98B6A8B7B8B08950B7FED8936
:10148A00EA93DE01A95ABF4F0D90BC91A02DFE012F
:10149A00E75AFF4F0190F081E02D099550300895E9
:1014AA00E889F9896A897B89AA85BB858C859D85A6
:1014BA000895DE011C960E946C0C0E94E30C0895AC
:1014CA000E946C0C0E94E30CFA93EA931A930A9313
:1014DA000895A32F0E941C08E0300895AC85BD85AD
:1014EA00EE85FF8509950895AA85BB85AC91A03044
:1014FA000895EE85FF853497B7CF0E947E07A3E053
:10150A00B0E00C94B90AA0E30E946A078AEF90E05F
:10151A000197F1F70895EE81FF81FA93EA9308950E
:10152A00E987FA876B877C870895AE81BF81119618
:10153A00AE83BF8311970895AA81BB818C819D8157
:10154A000895EA83FB836C837D830895EA81FB8196
:10155A006C817D81A985BA858B859C850895A9852D
:10156A00BA858B859C850895109639F084EC99E0AC
:10157A000197F1F7A8951197C9F708953097604038
:10158A00704009F070580895552342F4503811F408
:10159A00E0FF04C03196691F791F6BF050E85727A6
:1015AA0011F45F93CFC05F3F31F0660F000C57957F
:1015BA006795752F08955F9300200AF0CFC0C8C0C1
:1015CA0050E8192E1522880F991F9527550F8795D0
:1015DA0050E8072E0522660F771F7527550F679566
:1015EA000895689401C0E8945F93F2DF703818F0A8
:1015FA007F3F08F4A7C056E1571BAAF4519558300B
:10160A000EF4593030F0EFEFFFEF6FEF7FE777F925
:10161A001AC077275523B9F0EE0FFF1F661F771FF1
:10162A005A95D1F710C07727583028F0EF2FF62FA8
:10163A00672F5850F9CF552331F076956795F7956E
:10164A00E7955A95D1F700200AF449D15F91089598
:10165A00689401C0E894309760407040B1F000246B
:10166A0026F0772312F400943AD1172E7EE1112046
:10167A0032F07A95EE0FFF1F661F111CF9CFEF2F7C
:10168A00F62F612D5F938ADF5F9108954F93AF0123
:10169A00FD01DA01AB01BC01CA01402D012C142E57
:1016AA004F910895EA0FFB1F681F0895E095F09582
:1016BA006095EF5FFF4F6F4F08955F9381DF90381A
:1016CA0071F150E8152604C05F937ADF903839F13A
:1016DA00703821F1572F591B2BF112F4D7DFFACFAB
:1016EA00583118F0AA27BB278827583028F0AB2F83
:1016FA00B82F88275850F9CF552329F08695B795E2
:10170A00A7955A95D9F7502D512572F0CBDF38F4A9
:10171A006795F795E795739513F420C0B7DF3EDF19
:10172A005F910895D8F7FBCFEA1BFB0B680B51F0CA
:10173A0010F40094BBDF662392F3EE0FFF1F661FBF
:10174A007A95CBF7EE27FF27662777275F910895CB
:10175A00EFEFFFEF6FE77FEF5F910895EFEFFFEF96
:10176A006FE77FE75F9108955F932ADF703851F33F
:10177A00903841F301240894791F23F41CF30020C4
:10178A003AF3ECCF0F921F932F933F934F93112766
:10179A0022279927689FA0018F9F302D410D591F3D
:1017AA006B9F300D411D591F8E9F27D0BF9F25D09B
:1017BA006A9F23D0BE9F1DD0AF9F1BD0AE9F110D35
:1017CA00291F391F491F591FE32FF42F652F522F45
:1017DA004F913F912F911F910F9066232AF0550F39
:1017EA00EE1FFF1F661F02C073954BF2CDDE5F919D
:1017FA000895100D211D391F02C0200D311D491FEA
:10180A00591F08955F93DCDE703821F411200AF421
:10181A009FCFA4CF903809F495CF01240894970B51
:10182A001BF4D4F30020F3CF792F1F932F933F9308
:10183A004F9311241127222733274427552790E253
:10184A00AE17BF078607410730F0AE1BBF0B860BEA
:10185A00410B089401C08894551F221F331F111C85
:10186A00AA1FBB1F881F441F9A9551F7F901612DC2
:10187A004F913F912F911F91662332F0550FEE1F22
:10188A00FF1F661F7A9543F27FDE5F9108959923C1
:10189A009AF0772342F0971748F029F4AE17BF075A
:1018AA00860720F031F098948894089598940894C3
:1018BA0008951894889408957723C2F7971798F390
:1018CA00A9F7EA17FB07680788F399F3ECCF002416
:1018DA00AF0DB01D0895F195E195F0400895F0958A
:1018EA0060957095E195FF4F6F4F7F4F0895FE2FDA
:1018FA00FF0FFF0B6F2F7F2F08956F2F660F660B59
:10190A00762F0895FA9FF02DEB9FF00DEA9FE02DB8
:10191A00F10D0895002498E0AA0F001C0E1A10F485
:10192A000E0E01C0A1609A95B9F7EA2FA02D08956D
:10193A0039D0F0DF0EF4E19508953F934F935F930A
:10194A00002411244427552730E2AA0FBB1F881F01
:10195A00991F001C111C441F551F0E1A1F0A460B03
:10196A00570B28F40E0E1F1E461F571F01C0A160F9
:10197A003A9559F7FD01BC01D001CA015F914F9117
:10198A003F910895E894A7FF02C0A1956894E7FDE6
:10199A00E195C0DFEA2F0EF4E1950895CEDFFD014F
:1019AA00BC010895E894E7FF02C0E1956894A7FF97
:1019BA0004C0A19500F8039400FA0895ED91FC91F2
:1019CA0011970895ED91FD916D917C91139708956A
:1019DA00E881F9816A817B810895A881B9818A8128
:1019EA009B810895E883F9836A837B8308957A93B8
:1019FA006A93FA93EA9308959A938A93BA93AA9365
:101A0A000895182E862F612D192E972F712D1B2EB2
:101A1A00BF2FF12D1A2EAE2FE12D08953097604079
:101A2A00704008955A934A933A932A931A930A93C1
:101A3A0008955D814C813B812A811981088108952D
:00000001FF
