:020000020000FC
:0200000045C0F9
:0200040064C0D6
:0200080067C0CF
:10008C000FEF0DBF00E10EBF00E001BB0FEF02BB95
:10009C0002B90093610007BB03E009BF0AE00093BB
:1000AC006A0000E40FBD0BE40ABD0CE40BBD01E0DB
:1000BC0007BF0CE00EBD789420E0422F0CD017D077
:1000CC00FFCF2395422F07D012D018952A95422F97
:1000DC0002D00DD0189560E04A302AF063954A5052
:1000EC000CE00EBDF9CF6295642B562F089553B9D1
:0C00FC002A300AF0089500E00EBD0895BF
:00000001FF
