:100000000C9463000C948B000C948B000C948B006C
:100010000C948B000C948B000C948B000C942C078C
:100020000C948B000C948B000C948B000C942A087D
:100030000C948B000C948B000C948B000C948B0014
:100040000C94E0070C948B000C94AE070C9488077A
:100050000C948B000C948B000C948B000C948B00F4
:100060000C94E6080C948B0000000000230026008E
:10007000290000000008000201000003040700003E
:100080000000000000000200000000250028002BF6
:100090000000000000240027002A000404040404D7
:1000A0000404040202020202020303030303030125
:1000B00002040810204080010204081020010204FC
:1000C00008102000050A11241FBECFEFD8E0DEBFC4
:1000D000CDBF12E0A0E0B1E0E2EAF3E202C0059099
:1000E0000D92A431B107D9F723E0A4E1B2E001C039
:1000F0001D92A63CB207E1F710E0C3E6D0E004C0D1
:100100002197FE010E94C911C236D107C9F70E948A
:10011000890A0C94CF110C94000090E0FC01E15589
:10012000FF4F249185569F4FFC018491882399F0BD
:1001300090E0880F991FFC01EF56FF4FA591B491F5
:10014000FC01E957FF4F859194918FB7F894EC919A
:10015000E22BEC938FBF0895CF92DF92EF92FF9244
:10016000CF936C0180911101893049F08F3F09F4E0
:1001700043C0CF91FF90EF90DF90CF900895E6E8D5
:10018000F0E0C491C7FDF5CF89E00E948D00F12C0D
:10019000E12CCC23D9F0960150E040E0C23009F0C8
:1001A00099C07A0160E970ED83E090E00E94900FC1
:1001B000BA01A901415051096109710993E04F3F0A
:1001C00051056105710509F00CF4C0C068E478EED2
:1001D00081E090E0A70196010E94900FBA01A90169
:1001E000415051096109710994E0C111AFC085B551
:1001F000887F836085BDB6C089E080931101E6E801
:10020000F0E0C491CF3F09F4B4CFC13019F148F008
:10021000C23009F43DC0C7FDACCF89E00E948D001B
:10022000BACF14BC15BC84B5826084BD85B581602D
:1002300085BDE4EAF0E0E491F0E0EE0FFF1FE9573E
:10024000FF4F85919491E8EBF0E0E491E093DC02BC
:10025000C0E09ACF109280001092810080918100BE
:10026000886080938100809181008160809381000B
:10027000E4EAF0E0E491F0E0EE0FFF1FE957FF4FF2
:1002800085919491E8EBF0E0E491E093DB027CCF80
:100290001092B0001092B1008091B0008260809303
:1002A000B0008091B10081608093B100E4EAF0E099
:1002B000E491F0E0EE0FFF1FE957FF4F8591949115
:1002C0009093DA028093D902E8EBF0E0E491E093B6
:1002D000D8025ACF60E072E18AE790E00E94900F66
:1002E000BA01A9014150510961097109C130A1F553
:1002F00080918100887F8160809381005093890084
:10030000409388008FEF9FEFDC018093E102909390
:10031000E202A093E302B093E40280916F00826056
:1003200080936F0026CF4093B3008FEF9FEFDC01E7
:100330008093DD029093DE02A093DF02B093E0028F
:100340008091700082608093700013CF8091B10023
:10035000887F892B8093B100C13081F2C23019F3BC
:10036000C11107CF47BD8FEF9FEFDC018093E502FE
:100370009093E602A093E702B093E80280916E00AA
:10038000826080936E00F5CE8F929F92AF92BF9263
:10039000FF920F931F93CF93DF93F090B7032BE05F
:1003A0002F1508F44CC02091B90308E512E0021B98
:1003B000110927FD1395000F111F000F111F209128
:1003C000B803C8E8D0E0C21BD10927FDD395CC0FF4
:1003D000DD1FCC0FDD1F4E010D2E000CAA08BB083F
:1003E0009801012E000C440B550B281939094A09B4
:1003F0005B09DC010E94BA0F24EB30E040E050E0E2
:100400000E94900F820E931EA41EB51E8C169D0690
:100410002CF0E801801691060CF4E4012297CC0F31
:10042000DD1F2FB7F8948F2D90E0FC01EE0FFF1F1A
:10043000E80FF91FEE56FC4FD283C1832FBFDF9127
:10044000CF911F910F91FF90BF90AF909F908F9091
:10045000089508950895AF92BF92CF92DF92EF92E0
:10046000FF920F931F93CF93DF936C017B018B015E
:10047000040F151FEB015E01AE18BF08C017D107AE
:1004800059F06991D601ED91FC910190F081E02D38
:10049000C6010995892B79F7C501DF91CF911F918D
:1004A0000F91FF90EF90DF90CF90BF90AF900895A5
:1004B000FC01538D448D252F30E0842F90E0821B6A
:1004C000930B541710F0CF96089501970895FC01EF
:1004D000918D828D981761F0A28DAE0FBF2FB11D47
:1004E0005D968C91928D9F5F9F73928F90E008959F
:1004F0008FEF9FEF0895FC01918D828D981731F059
:10050000828DE80FF11D858D90E008958FEF9FEFAC
:100510000895FC01918D228D892F90E0805C9F4F82
:10052000821B91098F739927089589EE92E00E94AA
:10053000890221E0892B09F420E0822F089580E0D0
:1005400090E0892B29F00E94950281110C94000003
:100550000895FC01A48DA80FB92FB11DA35ABF4F58
:100560002C91848D90E001968F739927848FA689B2
:10057000B7892C93A089B1898C91837080648C9306
:10058000938D848D981306C00288F389E02D8081B5
:100590008F7D80830895EF92FF920F931F93CF93E7
:1005A000DF93EC0181E0888F9B8D8C8D98131AC0AE
:1005B000E889F989808185FF15C09FB7F894EE8995
:1005C000FF896083E889F9898081837080648083F2
:1005D0009FBF81E090E0DF91CF911F910F91FF903D
:1005E000EF900895F62E0B8D10E00F5F1F4F0F73E5
:1005F0001127E02E8C8D8E110CC00FB607FCFACFA0
:10060000E889F989808185FFF5CFCE010E94A90292
:10061000F1CFEB8DEC0FFD2FF11DE35AFF4FF08270
:100620009FB7F8940B8FEA89FB8980818062CFCFD6
:10063000CF93DF93EC01888D8823B9F0AA89BB8919
:10064000E889F9898C9185FD03C0808186FD0DC004
:100650000FB607FCF7CF8C9185FFF2CF808185FF25
:10066000EDCFCE010E94A902E9CFDF91CF9108958D
:10067000833081F028F4813099F08230A9F0089518
:100680008730A9F08830C9F08430B1F480918000BF
:100690008F7D03C0809180008F77809380000895C4
:1006A00084B58F7784BD089584B58F7DFBCF80910D
:1006B000B0008F778093B00008958091B0008F7D57
:1006C000F9CFCF93DF93282F30E0F901EE58FF4F99
:1006D0008491F901E155FF4FD491F901E556FF4F9F
:1006E000C491CC23A1F081110E943803EC2FF0E0DB
:1006F000EE0FFF1FE859FF4FA591B491EC91ED2348
:1007000081E090E009F480E0DF91CF91089580E0EE
:1007100090E0FACF1F93CF93DF93282F30E0F901B9
:10072000EE58FF4F8491F901E155FF4FD491F90143
:10073000E556FF4FC491CC23A9F0162F81110E94DA
:100740003803EC2FF0E0EE0FFF1FE957FF4FA591A4
:10075000B4918FB7F894EC91111108C0D095DE23B5
:10076000DC938FBFDF91CF911F910895DE2BF8CFDF
:100770009091110189130BC0E6E8F0E0E4919FEF3E
:1007800090931101E13049F028F0E23061F060E02F
:100790000C948A0310926E00FACF90916F009D7FA7
:1007A00090936F00F4CF909170009D7F90937000B4
:1007B00091E09093B0009091B100987F94609093F5
:1007C000B1001092B300E3CF8E50806480937C0020
:1007D00080917A00806480937A0080917A0086FD0F
:1007E000FCCF809178009091790008953FB7F894FC
:1007F0008091CC029091CD02A091CE02B091CF0217
:1008000026B5A89B05C02F3F19F00196A11DB11D6B
:100810003FBFBA2FA92F982F8827BC01CD01620FA7
:10082000711D811D911D42E0660F771F881F991F62
:100830004A95D1F708958F929F92AF92BF92CF922F
:10084000DF92EF92FF924B015C010E94F6036B0175
:100850007C010E94F6036C197D098E099F09683E90
:10086000734081059105A8F321E0821A9108A1083F
:10087000B10888EEC80E83E0D81EE11CF11C81147B
:100880009104A104B10429F7FF90EF90DF90CF907D
:10089000BF90AF909F908F9008950895209155023A
:1008A000260F3327331F21323105ECF420919E02AD
:1008B000FC0190E080E0243069F082E00895A0918E
:1008C00055022191AC014B5C5D4FA40FB52FB11DBA
:1008D0002C930196861798F380915502680F6093C8
:1008E000550280E0089581E0089510929E0281E013
:1008F00080939D021092780261E082E10E948A0357
:1009000061E083E10E948A03E9EBF0E080818E7F61
:10091000808380818D7F808388E48093B80085E424
:100920008093BC000895CF93DF9391E090933402BD
:100930008823B9F0C091B800D091BA008091BC0072
:100940008A7B8093BC0060E082E10E948A0360E0C1
:1009500083E10E948A030E947504D093BA00C09379
:10096000B800DF91CF9108950895E091D70280916A
:10097000D602E81730F4F0E0EC5EFD4F808190E0A5
:1009800008958FEF9FEF08959091D7028091D6023E
:100990002FEF3FEF981748F4E92FF0E0EC5EFD4FA2
:1009A000208130E09F5F9093D702C9010895809124
:1009B000D6029091D702891B990B0895CF92DF92AE
:1009C000EF92FF920F931F93CF93DF937C01CB01A4
:1009D0008A012091A402222389F0EB016B01C40E4D
:1009E000D51ECC15DD0569F06991D701ED91FC911B
:1009F0000190F081E02DC7010995F3CF642F0E948B
:100A00004E04C801DF91CF911F910F91FF90EF909D
:100A1000DF90CF900895CF93DF931F92CDB7DEB7CD
:100A200069832091A4022223F9F02091D40220327C
:100A300058F021E030E0FC013383228390E080E035
:100A40000F90DF91CF9108958091D502E82FF0E0CB
:100A5000EB55FD4F998190838F5F8093D5028093F2
:100A6000D40281E090E0ECCF61E0CE0101960E94DB
:100A70004E04F7CFCF92DF92EF92FF920F931F9326
:100A8000CF93DF93FC01C48121E02093A402C093A3
:100A9000C5021092D5021092D4028385682B86E895
:100AA00093E00E940B05D091D402D13208F092C09D
:100AB0000E94F6036B017C0180919E02811165C04A
:100AC00082E080939E0281E080939D028FEF80936D
:100AD0009C0210929B02D0939A02A5EAB2E0EAE748
:100AE000F2E080E0D81385C01092790280917902FB
:100AF000CC0FC82BC093790280917802813009F025
:100B00007CC0109278020E94F6036B017C018091F8
:100B100079028093BB008091A0029091A102A091E4
:100B2000A202B091A302892B8A2B8B2B99F00E94F1
:100B3000F6030091A0021091A1022091A20230912F
:100B4000A3026C197D098E099F090617170728074C
:100B50003907E0F18091BC0083FDD9CF85EC80930B
:100B6000BC000E94F6036B017C0180919E028230E2
:100B700009F445C080919C028F3F61F180919C02F5
:100B8000803241F180919C0225C08091A002909119
:100B9000A102A091A202B091A302892B8A2B8B2BD8
:100BA00009F48ACF0E94F6030091A0021091A102DD
:100BB0002091A2023091A3026C197D098E099F0930
:100BC000061717072807390708F076CF80919F028C
:100BD0000E9493041092D5021092D4021092A402A3
:100BE000DF91CF911F910F91FF90EF90DF90CF9009
:100BF00008959D9191938F5F75CF85EEB0CF8091D1
:100C0000A0029091A102A091A202B091A302892B0F
:100C10008A2B8B2B09F4A9CF0E94F6030091A00226
:100C20001091A1022091A2023091A3026C197D09BA
:100C30008E099F09061717072807390708F095CF6F
:100C4000C5CF90E080E00895FC0101900020E9F715
:100C50003197AF01481B590BBC018AEB93E00C9410
:100C60002B028F929F92AF92BF920F931F93CF93BD
:100C7000DF93CDB7DEB7A1970FB6F894DEBF0FBEF6
:100C8000CDBF19A2423008F44AE08E010F5D1F4F1C
:100C9000842E912CB12CA12CA50194010E94C20F8D
:100CA000E62FB901CA01EA30F4F4E05DD801EE9311
:100CB0008D01232B242B252B79F790E080E01097D2
:100CC00019F0CD010E942406A1960FB6F894DEBF5C
:100CD0000FBECDBFDF91CF911F910F91BF90AF900D
:100CE0009F908F900895E95CE1CF0C9424060F93B8
:100CF0001F93CF938C01C62F0E943A056C2F64601E
:100D0000C8010E943A056C2F6B7FC8010E943A050A
:100D100083EC90E00197F1F7CF911F910F91089527
:100D20000F931F93CF93DF938C01D62FC42F607F37
:100D3000642B0E94770680E1D89FB00111246C2BB0
:100D4000C801DF91CF911F910F910C947706CF933B
:100D5000DF93CDB7DEB728970FB6F894DEBF0FBE8E
:100D6000CDBF98E0E2E1F1E0DE01119601900D9235
:100D70009A95E1F79091C203961708F46FEF262F2A
:100D800030E0220F331F41E050E04C0F5D1F240F75
:100D9000351FF9016081680F606840E08AEB93E0DD
:100DA00028960FB6F894DEBF0FBECDBFDF91CF916E
:100DB0000C94900640E061E08AEB93E00E9490067C
:100DC0008BE39FE10197F1F7089541E00E949006BF
:100DD00081E090E0089541E0682F8AEB93E00E9463
:100DE000900681E090E0089585ED8093BC008091AD
:100DF000A0029091A102A091A202B091A302079635
:100E0000A11DB11D23E0B695A795979587952A95C5
:100E1000D1F72091BC0024FD03C010929E020895DA
:100E20004091A0025091A1026091A2027091A30290
:100E3000452B462B472B69F30097A105B10541F0DF
:100E40002AE22A95F1F700C00197A109B109E1CF83
:100E500080919F020C9493041F920F920FB60F92F1
:100E600011242F933F934F935F936F937F938F93AF
:100E70009F93AF93BF93EF93FF938091DD02909187
:100E8000DE02A091DF02B091E002892B8A2B8B2B2E
:100E9000D1F19091D802E091D902F091DA028081EB
:100EA000892780838091DD029091DE02A091DF028C
:100EB000B091E002181619061A061B069CF48091E0
:100EC000DD029091DE02A091DF02B091E002019775
:100ED000A109B1098093DD029093DE02A093DF02A5
:100EE000B093E002FF91EF91BF91AF919F918F91ED
:100EF0007F916F915F914F913F912F910F900FBE16
:100F00000F901F901895809111010E94B803EACFAD
:100F10001F920F920FB60F9211242F933F934F936E
:100F20005F936F937F938F939F93AF93BF93EF9351
:100F3000FF9389EE92E00E94A902FF91EF91BF9189
:100F4000AF919F918F917F916F915F914F913F9161
:100F50002F910F900FBE0F901F9018951F920F9218
:100F60000FB60F9211242F938F939F93EF93FF93BC
:100F7000E091F902F091FA028081E091FF02F09194
:100F8000000382FD1BC09081809102038F5F8F73ED
:100F900020910303821741F0E0910203F0E0E75152
:100FA000FD4F958F80930203FF91EF919F918F9159
:100FB0002F910F900FBE0F901F9018958081F4CF46
:100FC0001F920F920FB60F9211242F933F938F937E
:100FD0009F93AF93BF938091C8029091C902A09153
:100FE000CA02B091CB023091C70223E0230F2D3704
:100FF00058F50196A11DB11D2093C7028093C80228
:101000009093C902A093CA02B093CB028091CC0204
:101010009091CD02A091CE02B091CF020196A11D78
:10102000B11D8093CC029093CD02A093CE02B093D9
:10103000CF02BF91AF919F918F913F912F910F90D0
:101040000FBE0F901F90189526E8230F0296A11D42
:10105000B11DD2CF1F920F920FB60F9211242F9372
:101060003F934F935F936F937F938F939F93AF9330
:10107000BF93CF93DF93EF93FF938091C602C0910C
:10108000B603D0E087FF24C0109285001092840040
:101090008091C6028F5F8093C6028091C602082E9F
:1010A000000C990B8C179D0724F48091C6028C309C
:1010B000C4F18091840090918500049680349C490D
:1010C00008F47AC08091840090918500049676C0DF
:1010D0008091C602082E000C990B8C179D07C4F650
:1010E000E091C6028E2FEE0F990BFC01EE0FFF1F51
:1010F000E80FF91FEE56FC4F808186FFC9CFE091C3
:10110000C6028E2FEE0F990BFC01EE0FFF1FE80FAA
:10111000F91FEE56FC4F808160E08F730E948A03B6
:10112000B7CF2091840030918500E091C6028E2FC8
:10113000EE0F990BFC01EE0FFF1FE80FF91FEE56A3
:10114000FC4F81819281820F931F9093890080933D
:101150008800E091C6028E2FEE0F990BFC01EE0F76
:10116000FF1FE80FF91FEE56FC4F808186FF11C06C
:10117000E091C6028E2FEE0F990BFC01EE0FFF1FC0
:10118000E80FF91FEE56FC4F808161E08F730E94DB
:101190008A03FF91EF91DF91CF91BF91AF919F9122
:1011A0008F917F916F915F914F913F912F910F9010
:1011B0000FBE0F901F90189580E49CE990938900D2
:1011C000809388008FEF8093C602E3CF1F920F9227
:1011D0000FB60F9211242F933F934F935F936F930A
:1011E0007F938F939F93AF93BF93EF93FF938091E0
:1011F000B900887F803609F44AC0F0F5883209F4D6
:10120000A7C018F5803109F49BC0B8F4882309F40D
:10121000F9C0883009F494C0FF91EF91BF91AF916C
:101220009F918F917F916F915F914F913F912F91FE
:101230000F900FBE0F901F901895883109F488C049
:10124000803251F780939C0214C0803409F49DC011
:1012500040F48033B9F38833F9F680939C0285EC2F
:10126000B0C0803509F485C0883509F496C088344B
:1012700099F60E94F406D0CF883909F48CC038F56D
:10128000883729F050F4883611F0803729F683E04A
:1012900080939E021092770257C0883809F47BC071
:1012A000803919F0803809F0B7CF80917702803209
:1012B00008F071C0E091770281E08E0F8093770291
:1012C0008091BB00F0E0E95AFD4F80833DC0803B38
:1012D00039F0E0F4803A09F479C0883A09F09CCFFB
:1012E00084E080939E021092560210925502E09183
:1012F000D202F091D30209958091550281110FC05D
:1013000081E0809355021092350209C0803C09F4B7
:10131000A6CF883C09F4A3CF883B09F07DCFE091AC
:10132000560281E08E0F80935602F0E0EB5CFD4F99
:1013300080818093BB00909156028091550229C014
:10134000809179028093BB0085EC8093BC0064CFD0
:1013500090919B0280919A02981758F5E0919B0218
:1013600081E08E0F80939B02F0E0E658FD4F808174
:10137000E9CFE0919B0281E08E0F80939B028091E8
:10138000BB00F0E0E658FD4F808390919B02809176
:101390009A029817C8F285E8D8CFE0919B0281E0C5
:1013A0008E0F80939B028091BB00F0E0E658FD4FCA
:1013B000808380919D0281115CCF81E080937802CF
:1013C00084EA8093BC0010929E0226CF85EC809325
:1013D000BC0010929E0280917702803230F4E0913E
:1013E0007702F0E0E95AFD4F10826091770270E0D9
:1013F000E091D002F091D10287E592E00995109238
:1014000077020ACF10929C0234CF1092EC02109215
:10141000EB0288EE93E0A0E0B0E08093ED029093C1
:10142000EE02A093EF02B093F00221E531E0309399
:10143000EA022093E90225EC30E03093F602209393
:10144000F50224EC30E03093F8022093F70220EC10
:1014500030E03093FA022093F90221EC30E030932F
:10146000FC022093FB0222EC30E03093FE0220933A
:10147000FD0226EC30E0309300032093FF0210922F
:1014800002031092030310920403109205031092BA
:1014900089031092880380938A0390938B03A0930F
:1014A0008C03B0938D0383E691E090938703809340
:1014B00086031092BD031092BC0385E791E09093E0
:1014C000BB038093BA0387E28093BE0384E18093D9
:1014D000C30384E08093C4031092C5038091B603D4
:1014E0008C3098F491E0980F9093B6038093B703F3
:1014F00090E0FC01EE0FFF1FE80FF91FEE56FC4FC6
:1015000088EB9BE09283818308958FEF8093B703EC
:101510000895789484B5826084BD84B5816084BD6B
:1015200085B5826085BD85B5816085BD80916E0081
:10153000816080936E0010928100809181008260B2
:1015400080938100809181008160809381008091EF
:1015500080008160809380008091B10084608093DE
:10156000B1008091B00081608093B00080917A00DA
:10157000846080937A0080917A00826080937A0000
:1015800080917A00816080937A0080917A008068EF
:1015900080937A001092C1008091B7038C3008F0DC
:1015A00050C083E00E948D008091B703282F30E067
:1015B000F901EE0FFF1FE20FF31FEE56FC4F908173
:1015C000907C936090831092B8031092B9032CE042
:1015D000622F0E94BD11829FB001112430E020E0F3
:1015E000AB01420F531FFA01EE0FFF1FE40FF51F6F
:1015F000EE56FC4F908196FD16C02F5F3F4F2C306A
:10160000310571F781110FC01092800082E0809344
:1016100081001092850010928400B19A80916F0031
:10162000826080936F00E091B7038E2F90E0FC0101
:10163000EE0FFF1FE80FF91FEE56FC4F808180640C
:101640008083E091F902F091FA0282E08083E091D8
:10165000F502F091F6021082E091F702F091F802A3
:101660008FEC808310920103E091FD02F091FE0265
:1016700086E08083E091FB02F091FC028081806132
:101680008083E091FB02F091FC028081886080837E
:10169000E091FB02F091FC02808180688083E09100
:1016A000FB02F091FC0280818F7D808384E00E94A8
:1016B0008D0085E00E948D0086E00E948D0087E00D
:1016C0000E948D0089E00E948D0088E00E948D00BC
:1016D00061E084E00E948A0361E085E00E948A0361
:1016E00061E086E00E948A0361E087E00E948A034D
:1016F00060E088E00E948A0389E00E94B80390E0DD
:1017000080E00E94C4011092D7021092D60210927B
:10171000D5021092D4020E94750489E292E090935F
:10172000D3028093D2028AE292E09093D102809316
:10173000D0021092BF038091C403823018F098E069
:101740009093BF038093C20362E370E080E090E077
:101750000E941B046091C5038AEB93E00E943A0546
:1017600068EE73E080E090E00E941B0460E38AEB87
:1017700093E00E947706CBE4D6E4CE010197F1F71F
:1017800060E38AEB93E00E9477062197F1F760E32C
:101790008AEB93E00E94770683E592E00197F1F7E8
:1017A00060E28AEB93E00E9477066091BF0360627B
:1017B00040E08AEB93E00E94900684E08093C003AF
:1017C00040E06CE08AEB93E00E9490060E94DA060B
:1017D00082E08093C10340E066E08AEB93E00E94E0
:1017E000900640E062E08AEB93E00E9490068BE373
:1017F0009FE10197F1F788E08093C50360E08AEBF1
:1018000093E00E943A0560E080E00E94A70680E035
:1018100091E00E94750664EF71E080E090E00E9424
:101820001B0461E080E00E94A706CCE3D1E00CE459
:1018300011E089910E94EB0666E970E080E090E09B
:101840000E941B040C171D07A1F761E080E00E94B5
:10185000A706CBE2D1E089910E94EB0666E970E031
:1018600080E090E00E941B0481E0CB33D80799F719
:1018700061E080E00E94A706CAE1D1E00AE211E03F
:1018800089910E94EB0666E970E080E090E00E949A
:101890001B040C171D07A1F764EF71E080E090E0D6
:1018A0000E941B040E94DA0660E085E00E94A70601
:1018B0008DE791E00E94750661E082E00E94A70634
:1018C00083E891E00E94750668EB7BE080E090E0A1
:1018D0000E941B040E94DA0680E0282E80E0382E49
:1018E0000E94DA0680E10E94E4039C01990F440BF8
:1018F000550B2652324041095109A4E6B0E00E943E
:10190000AF0F24ED3EEF4FEF5FEF0E94900F6901A4
:101910007A01890160E088E00E94A7064AE0C701D9
:10192000B601F7FE0BC08DE20E94EB066627772713
:10193000CB016C197D098E099F094AE00E9431068E
:1019400060E08BE00E94A7068FE891E00E94750698
:1019500081E10E94E403EC0160E08DE00E94A706B3
:101960006E010D2E000CEE08FF084AE0C701B6011B
:10197000F7FE0BC08DE20E94EB0666277727CB01AE
:101980006C197D098E099F094AE00E9431068EE09C
:101990000E94E403BC01990F880B990B0E949610DA
:1019A00020E030E040EA50E40E944B1120E030E0BB
:1019B00040E85AE30E944B1120E030E040E05FE352
:1019C0000E94F30F20E030E048EC52E40E944B11FB
:1019D0006B017C0160E080E00E94A706A7019601F0
:1019E000C701B6010E94B811882309F498C081E9A3
:1019F00091E00E94240660E085E00E94A7068FED3A
:101A00000E94EB0660E086E00E94A7068DE991E067
:101A10000E947506083211050CF40FC1CC3281E02A
:101A2000D8070CF40AC120E030E04CE052E4C701D2
:101A3000B6010E94601018160CF4FFC061E080E04F
:101A40000E94A7068FEA91E00E9475068FE991E057
:101A50000E94750687E00E946103019751F588EEA8
:101A600093E00E94AC006AEF70E080E090E00E949A
:101A70001B0489E00E94B8036AEF70E080E090E008
:101A80000E941B0488EE93E00E94AC006AEF70E0B5
:101A900080E090E00E941B0489E00E94B80388EE79
:101AA00093E00E94AC006AEF70E080E090E00E945A
:101AB0001B0489E00E94B80360E087E00E948A036B
:101AC00061E084E00E948A0361E085E00E948A036D
:101AD00061E086E00E948A0389E00E94B80360E02A
:101AE00088E00E948A0390E080E00E94C4016CEDCF
:101AF00075E080E090E00E941B0468EE73E080E0F7
:101B000090E00E941B042114310409F4E9CE0E94E4
:101B10009502882309F4E4CE0E940000E1CE46013C
:101B20005701E894B7F82FEF3FEF4FE75FE7C501A4
:101B3000B4010E94B81181110DC02FEF3FEF4FE7A4
:101B40005FE7C501B4010E94601018161CF485E916
:101B500091E04FCF2FEF3FEF4FE75FE4C701B601B2
:101B60000E94461118161CF489E991E042CF2FEF2C
:101B70003FEF4FE75FECC701B6010E94601087FDA1
:101B8000F3CF20E030E0A901C701B6010E94601048
:101B900087FF50C08DE20E94EB06C701B601905846
:101BA0002AE037ED43EA5BE30E94F40F2B013C018E
:101BB0000E9465104B015C010E9494109B01AC01D6
:101BC000C301B2010E94F30F2B013C014AE0C501A1
:101BD000B4010E9431068EE20E94EB0620E030E064
:101BE00040E251E4C301B2010E944B112B013C01C0
:101BF0000E9465104B01B12CA12C4AE0C501B40133
:101C00000E943106C501B4010E9494109B01AC01F1
:101C1000C301B2010E94F30F20E030E040E251E442
:101C20000E944B110E94651090E080E04AE00E9403
:101C30003106E1CEC701B601B3CF61E087E00E9473
:101C40008A03083211050CF0C6C084E00E946103CB
:101C5000019751F561E080E00E94A7068FEA91E0CC
:101C60000E94750680EB91E00E94750686E792E07F
:101C70000E94AC006AEF70E080E090E00E941B04DC
:101C800080E293E00E94AC006AEF70E080E090E0B8
:101C90000E941B048EEE92E00E94AC006AEF70E09E
:101CA00080E090E00E941B0489E00E94B8038AE56E
:101CB00090E00E94C40160E084E00E948A036CED21
:101CC00075E080E090E00E941B04CC32D1400CF023
:101CD000BAC085E00E946103019751F561E080E0A0
:101CE0000E94A7068FEA91E00E94750681ED91E0BF
:101CF0000E94750688EE93E00E94AC006AEF70E0E7
:101D000080E090E00E941B0488E592E00E94AC0015
:101D10006AEF70E080E090E00E941B0488EE93E0A0
:101D20000E94AC006AEF70E080E090E00E941B042B
:101D300089E00E94B80361E088E00E948A0360E0C5
:101D400085E00E948A036CED75E080E090E00E94DF
:101D50001B0420E030E04CE052E4C701B6010E94D1
:101D6000461118160CF0A8C086E00E946103019786
:101D700051F561E080E00E94A7068FEA91E00E94A1
:101D8000750682EF91E00E94750684E893E00E9458
:101D9000AC006AEF70E080E090E00E941B0488E5F0
:101DA00092E00E94AC006AEF70E080E090E00E9458
:101DB0001B0480E293E00E94AC006AEF70E080E0D8
:101DC00090E00E941B0489E00E94B80360E086E076
:101DD0000E948A038CCE90E080E00E94C40184E0DF
:101DE0000E946103892B51F561E080E00E94A70603
:101DF0008FEA91E00E94750681EC91E00E947506E1
:101E00008AEB92E00E94AC006AEF70E080E090E024
:101E10000E941B048EE393E00E94AC006AEF70E026
:101E200080E090E00E941B048FE093E00E94AC00F1
:101E30006AEF70E080E090E00E941B0489E00E945D
:101E4000B80361E039CF85E00E946103892B51F529
:101E500061E080E00E94A7068FEA91E00E9475068B
:101E600082EE91E00E9475068BED93E00E94AC003B
:101E70006AEF70E080E090E00E941B048FE093E046
:101E80000E94AC006AEF70E080E090E00E941B04CA
:101E900080E793E00E94AC006AEF70E080E090E0A1
:101EA0000E941B0489E00E94B80361E085E00E9463
:101EB0008A0360E088E045CF86E00E946103892BB9
:101EC00051F561E080E00E94A7068FEA91E00E9450
:101ED000750683E092E00E9475068AEB92E00E940C
:101EE000AC006AEF70E080E090E00E941B0484E7A1
:101EF00095E00E94AC006AEF70E080E090E00E9404
:101F00001B0480E793E00E94AC006AEF70E080E081
:101F100090E00E941B0489E00E94B80361E057CF63
:101F2000052E97FB1EF400940E94A70F57FD07D0C3
:101F30000E94C20F07FC03D04EF40C94A70F5095DB
:101F40004095309521953F4F4F4F5F4F08959095A5
:101F50008095709561957F4F8F4F9F4F08950E9498
:101F6000E40FA59F900DB49F900DA49F800D911D2F
:101F700011240895B7FF0C94AF0F0E94AF0F821B7E
:101F8000930B0895A1E21A2EAA1BBB1BFD010DC0E5
:101F9000AA1FBB1FEE1FFF1FA217B307E407F50719
:101FA00020F0A21BB30BE40BF50B661F771F881FF5
:101FB000991F1A9469F760957095809590959B018B
:101FC000AC01BD01CF010895A29FB001B39FC00134
:101FD000A39F700D811D1124911DB29F700D811D55
:101FE0001124911D08955058BB27AA270E940B1059
:101FF0000C940C110E94FE1038F00E94051120F084
:1020000039F49F3F19F426F40C94FB100EF4E0957C
:10201000E7FB0C94F510E92F0E941D1158F3BA1735
:10202000620773078407950720F079F4A6F50C94EE
:102030003F110EF4E0950B2EBA2FA02D0B01B90124
:1020400090010C01CA01A0011124FF27591B99F02E
:10205000593F50F4503E68F11A16F040A22F232F3A
:10206000342F4427585FF3CF469537952795A7958A
:10207000F0405395C9F77EF41F16BA0B620B730B31
:10208000840BBAF09150A1F0FF0FBB1F661F771FA2
:10209000881FC2F70EC0BA0F621F731F841F48F457
:1020A000879577956795B795F7959E3F08F0B0CFE0
:1020B0009395880F08F09927EE0F979587950895C7
:1020C0000E94D11008F481E008950E94251188F043
:1020D0009F5798F0B92F9927B751B0F0E1F0660FEC
:1020E000771F881F991F1AF0BA95C9F714C0B1302D
:1020F00091F00E943F11B1E008950C943F11672FB9
:10210000782F8827B85F39F0B93FCCF3869577955B
:102110006795B395D9F73EF4909580957095619544
:102120007F4F8F4F9F4F0895E89409C097FB3EF46F
:1021300090958095709561957F4F8F4F9F4F992314
:10214000A9F0F92F96E9BB279395F6958795779592
:102150006795B795F111F8CFFAF4BB0F11F460FF52
:102160001BC06F5F7F4F8F4F9F4F16C0882311F0AA
:1021700096E911C0772321F09EE8872F762F05C0BE
:10218000662371F096E8862F70E060E02AF09A9559
:10219000660F771F881FDAF7880F9695879597F94E
:1021A0000895990F0008550FAA0BE0E8FEEF1616E8
:1021B0001706E807F907C0F012161306E407F5073B
:1021C00098F0621B730B840B950B39F40A2661F0AF
:1021D000232B242B252B21F408950A2609F4A14052
:1021E000A6958FEF811D811D089597F99F6780E85F
:1021F00070E060E008959FEF80EC089500240A9459
:102200001616170618060906089500240A941216D1
:102210001306140605060895092E0394000C11F404
:10222000882352F0BB0F40F4BF2B11F460FF04C0B1
:102230006F5F7F4F8F4F9F4F089557FD9058440F0A
:10224000551F59F05F3F71F04795880F97FB991F15
:1022500061F09F3F79F087950895121613061406D2
:10226000551FF2CF4695F1DF08C01616170618065F
:10227000991FF1CF86957105610508940895E8943A
:10228000BB2766277727CB0197F908950E94D110C5
:1022900008F48FEF08950E945E110C940C110E94B7
:1022A000FE1038F00E94051120F0952311F00C94D7
:1022B000F5100C94FB1011240C9440110E941D1178
:1022C00070F3959FC1F3950F50E0551F629FF00189
:1022D000729FBB27F00DB11D639FAA27F00DB11DA2
:1022E000AA1F649F6627B00DA11D661F829F22272B
:1022F000B00DA11D621F739FB00DA11D621F839FB2
:10230000A00D611D221F749F3327A00D611D231F87
:10231000849F600D211D822F762F6A2F11249F57D5
:1023200050409AF0F1F088234AF0EE0FFF1FBB1FD8
:10233000661F771F881F91505040A9F79E3F510597
:1023400080F00C94F5100C9440115F3FE4F3983E3C
:10235000D4F3869577956795B795F795E7959F5F41
:10236000C1F7FE2B880F911D9695879597F90895D3
:102370000E94D110880B990B0895991B79E004C035
:10238000991F961708F0961B881F7A95C9F78095B4
:102390000895EE0FFF1F0590F491E02D0994F89435
:0223A000FFCF6D
:1023A2004B656C6F6D706F6B3A20312020202020BE
:1023B20000FF0000400014005400556D617220417E
:1023C2002E20412E20202020202000596F6E617483
:1023D20068616E204C2E2020202020004765736803
:1023E20061204D2E432E20202020202000000000BE
:1023F20000CB022B0258021803890267027B0200FB
:102402000000000B05DE042106B404D704C404B5A1
:102412000400000000E5062B0221064D04536D6105
:10242200727400477265656E20486F75736500258A
:10243200006E616E00696E66006F76660043002072
:10244200202020204E4F524D414C202020202000A1
:1024520020204D656E6769736920416972202020D2
:10246200002020204169722043756B757020202066
:102472000020204C616D7075204E79616C612020C6
:102482002000204361686179612043756B7570207B
:102492002000537568752054696E6767692E2E2E69
:1024A2002120002020537568752043756B757020BC
:0424B20020200000E6
:00000001FF
