:060000000C9463000C9457
:1000060000000C9400000C9400000C9400000C946A
:1000160000000C9400000C9400000C9400000C945A
:1000260000000C9400000C9400000C9400000C944A
:1000360000000C9400000C9400000C9400000C943A
:1000460000000C9400000C9400000C9400000C942A
:1000560000000C9400000C9400000C9400000C941A
:1000660000000C9400000C9400000C9400000C940A
:1000760000000C9400000C9400000C9400000C94FA
:1000860000000C940000414443203D2025336400C9
:10009600444143203D2025332E32662056002D4E06
:1000A600414E000080C001002D4E414E00494E4693
:1000B600000002002405AA0001002805AC0000008B
:1000C600F894EE27ECBBF1E0F5BFE5BFE0936C00DA
:1000D6008DE0A2E0BB27ED938A95E9F780E090E1F9
:1000E600A0E0B1E0ED930197E9F7E8EBF0E0859148
:1000F6009591009761F0A591B59105901590BF0176
:10010600F00105900D920197E1F7FB01F0CF8BBF4F
:10011600EFEFEDBFE0E1EEBFC0E0D5E00C94AD003F
:10012600AA93949A9498E881E3B9959A9598959AA2
:10013600949A0C940905AA93E881E066E7B9A1E0D0
:10014600B0E00E942307369A349BFECF349AE5B17D
:100156000C940905EFEFE4BBE0E0E5BBEFEFE1BB94
:10016600E0E0E2BBEFEFE2B9E0E0E3B9E0E6E7B9F1
:10017600E4E8E6B9E0E0E0BDA0E10E94DD04552434
:10018600EFEFE51508F45BC00E94AB04A0E0D3DFF7
:100196006E2E7724E0E0EA93A0E00E949E04E0E061
:1001A600F5E0FA93EA93ECE8F0E0FA93EA93F301C8
:1001B6000E94E8080E941A06A0E0B5E00E94CC045E
:1001C600A52DAEDFE52DFF27662777270E94990725
:1001D600DF01CB01E0E0F0E06FE773E40E94710815
:1001E600A0E0B0E080EA90E40E942308E0932005B6
:1001F600F09321056093220570932305E0E0EA93CE
:10020600A1E00E949E04E0E1F5E0FA93EA93E6E9B4
:10021600F0E0FA93EA93E0912005F09121056091D0
:100226002205709123050E941A06A0E1B5E00E94FE
:10023600CC04A2E3B0E00E9423075394A1CF9FCF42
:10024600FFCFBA93AA931A930A93AA81BB811296F7
:100256000E944109309729F1AA81BB8114960E9418
:1002660041098F01309761F00230E0E01E0780F00F
:10027600F80131978F01AA81BB811496ED93FC9307
:10028600AA81BB8112960E9421063197AC81A08378
:10029600AA81BB810E944109FF2312F00E94210618
:1002A60006C0AA81BB81EFEFFFEFED93FC931981A6
:1002B6000881259608950E942706E0E8EA83EFE381
:1002C600EB830E947709EE85FF85EF3FAFEFFA07D4
:1002D60049F4E885F985FA93EA93A4EAB0E00E9426
:1002E6000B05B7C0EF3FAFE7FA0749F4E885F98594
:1002F600FA93EA93A5EAB0E00E940B05AAC0AB8583
:10030600A73010F0E6E0EB871B85E12F1150E030B7
:1003160019F00E942E06F9CFEC85FD856E857F8546
:100326000E94710921F430E00E942E062DC03B8503
:100336000E943D0609F008F40BC00E942E060E949A
:100346003D0628F00E9448060E944D06F8CF0DC0D3
:100356000E943D0640F40E9448060E9459060E94EB
:1003660060063150F5CF0E942E06EC85FD856E8520
:100376007F850E9465060E9460060E943D0620F069
:100386000E9448060E944D0610E0EB85E117A8F191
:10039600AC81BD818E819F810E946C060E9465069C
:1003A600DF01CB010E946205EC83FD836E837F83B0
:1003B6000E9448060E9471080E9460070E2F0E9444
:1003C60073060E947A06FF27662777270E949907F9
:1003D600AC81BD818E819F810E9423080E944806C0
:1003E6000E947F060E946006E12F1F5FE03069F6DB
:1003F6000E947306EEE2EC93C8CF0E948406319702
:10040600AA85A08330302CF43195A885B985EDE214
:1004160003C0A885B985EBE2EC930E9484060E948E
:1004260084063197BF01A32FEAE00E94FB08E05D36
:10043600DB01EC930E9484063197BF01A32FEAE00B
:100446000E942509E05DDB01EC93A885B985E0E013
:10045600EC930E947E0960960895BA93AA93EF974B
:1004660061970E94750910E0FE01E85AFF4F01905E
:10047600F081E02DE887F987FE01EA5AFF4F0190E7
:10048600F081E02DEE83FF83AE81BF81E0E0F0E0F6
:10049600ED93FC93DE01A45ABF4F0E9421063197CB
:1004A600E4912E2FE03009F4E9C1E12FE03039F470
:1004B600253211F411E002C00E948A06DEC1E13045
:1004C600C1F4253219F40E948A06D6C112E0E0E092
:1004D600ED8B00E02D3211F401E0CFC12B3219F47F
:1004E600EBE2ED8BCAC1203219F4E0E2ED8BC5C117
:1004F60002C0E23039F450E013E0203311F4006812
:10050600BCC102C0E33091F4203310F02A3308F066
:1005160007C0AAE05A9F502DE22FE0535E0FADC1EF
:1005260040E02E3211F414E0A8C10FC0E43099F473
:10053600203310F02A3308F008C00062AAE04A9F70
:10054600402DE22FE0534E0F98C12C3619F402606D
:1005560015E093C103C0E53009F08FC1E22FE33601
:1005660059F40E9491060E9498060E949106A48161
:10057600AA930E949F0680C1E53411F0E53609F47E
:1005860003C0E63609F048C0FE017696EE87FF877F
:100596000E94A5060E9445090E94AC060E94B1066B
:1005A600AD85AA2332F0AD89AB3259F0A03281F085
:1005B60017C00E94B3060E942D070E94AC06EDE20A
:1005C600ED8B07FF05C0ED89EA930E949F0608C0E0
:1005D600EE85FF853196EE87FF873197AD89A0833B
:1005E60005FF46E0263651F40E94B3060E945A09DA
:1005F6004A93AB89BC890E94790509C00E94B3065B
:100606000E945A094A932A93AC89BD8954DEFE0199
:1006160076960E94B8061EC0E33739F40E94B106EA
:100626000E94C0060E94B8060EC0E037C1F40E94C0
:10063600B1060E94C006EE87FF87AE85BF850E9481
:1006460024051E2F08600F77403011F0411708F07F
:1006560001C0142F40E0E0E0EC8B30E06DC0E436E2
:1006660011F0E93611F4046002C0E537A1F4EAE0BE
:10067600EC8B01FF08C0E0E0FAEC6AE97BE30E943C
:10068600C5061AE022C0E0E1F7E260E070E00E94F1
:10069600C50615E01AC0E83511F4086003C0E8374E
:1006A60009F0EAC0E0E1EC8B01FF08C0E0E0F0E011
:1006B60060E070E10E94C50618E007C0E0E0F0E1E6
:1006C60060E070E00E94C50614E0403011F00F773C
:1006D60001C041E001FF08C00E94B1060E94A506C4
:1006E60014960E9445090FC002FF07C00E94B1067A
:1006F6000E94C0060E94E80806C00E94B1060E9439
:10070600C00666277727EA87FB876C877D8702FF07
:1007160012C0AD85AA2342F40E94B3060E94DA08ED
:100726000E94AC06EDE2ED8BED89E03019F01F5F1B
:100736004F5F01C00B7F342F00FD14C0151710F456
:10074600351708F00FC007FF08C002FF04C00B7F73
:100756002D89115001C020E301C020E20E948A06C3
:100766005150ECCF141790F4006102FF06C00E94AE
:10077600CA0609F0515011504150E0E3EA930E9435
:100786009F06503009F051504150ECCF312FEC8983
:10079600E030B9F43030A1F003FF06C0EE85FF85E6
:1007A6002591EE87FF8705C0AE85BF852D91AE8763
:1007B600BF870E948A06503009F051503150EACF67
:1007C60051C00E94DC060E9400092E2F2A3030F00C
:1007D60003FF02C0295C01C0295A01C0205D04FD47
:1007E60021C0213360F4A889B9898A899B89A130FF
:1007F600E0E0BE07E0E08E07E0E09E0709F40BC0EC
:10080600431740F4531710F000FF01C010C020E258
:1008160007FF08C020E3006102FF04C00E94CA0669
:1008260009F051500E948A06503009F0515031505B
:100836000E94DC060E9431090E94AC06EC89A88958
:10084600B9898A899B89FF27662777270E9400092D
:100856000E94C506E889F9896A897B890E9471091F
:1008660009F0AFCF00FF08C0503031F05150E0E240
:10087600EA930E949F06F8CF10E00CCEAE81BF81AE
:100886000E9441090E947C09EF966F960895FF9297
:10089600F82E26970E9477090E94E506309719F4EC
:1008A600EFEFFFEF23C0DE0116960E94D6088D01FA
:1008B6000E94E506EE83FF83E0E0E887E987DE0134
:1008C6001A960E94D6080E944109FA93EA931A934F
:1008D6000A93E4E2F1E0FA93EA93DE011A96BDDDAB
:1008E6009F01AE81BF81E0E0EC93F9010E947E0991
:1008F6002A96FF900895AA93E5B3EF70AE2FE8818C
:10090600E07FEA2BE5BB81E18A95F1F7A99A81E1BF
:100916008A95F1F7A99881E18A95F1F777C0AA93AC
:10092600A881E9DFE881E295E883A881E4DF87EA28
:100936008A95F1F76BC0AA93E881F0E0EC5DFA4F77
:10094600E081A981AE0FEBDF498098802296089559
:10095600A2E00E94EC06ACE0E2DFA1E00E94EC0619
:10096600E0E09E2E4E2E0895AA93A881AA3011F09B
:10097600481448F0E0E0EA939394A92DDCDFA881BF
:10098600AA3009F443C04394A89AA881C8DFA8985E
:100996003DC0BA93AA931A93A981BA81ED91A9830E
:1009A600BA831E2FE03019F0A12FDEDFF5CF1881B4
:1009B60023960895AA93E4B3E06FE4BBA19AA09AA4
:1009C600A29AA998A898AA988880E881E058E09306
:1009D6002605E881E054E0932705A4E1B0E00E94F3
:1009E60023070E94F2060E94F2060E94F206A0E287
:1009F60082DF8AEF90E00197F1F7A8E290DFA4E0AA
:100A06008EDFA5E88CDFA6E08ADFA2DF21960895B7
:100A1600BA93AA93E991F991A991B991CD0105905B
:100A26000D920020E1F7FC010895BA93AA93A991CB
:100A3600B991EE27FF276D91662311F03196FBCF12
:100A46000895BA93AA93AA27BB27E991F99105902D
:100A5600002011F01196FBCFFD0108950E945F0959
:100A66007B816A81F981E88177FB770F67FD716089
:100A7600972F9E5781F078F0983190F4AA27BB27DC
:100A8600882708948795B795A7959A95D1F7EA236D
:100A9600FB23682305C0E8947727EE27FF27662700
:100AA6006F77769508F4606877F9A991B99189917D
:100AB6009991EA17FB076807790797FB08950E9443
:100AC6005F090E9450090E9431050E94550919F4D8
:100AD6000E944B0909C0E6F70E944B09A0E0B0E06E
:100AE60080E89FE30E94CC0724960895ADD0E0E00D
:100AF600EA83EFE3EB831A930A93EB85FC85EF3FDA
:100B0600AFEFFA0731F473D1AEEAB0E00E940B05FD
:100B16008AC0EF3FAFE7FA0731F469D1AFEAB0E038
:100B26000E940B0580C0AC85AA2352F4E985FA859C
:100B36006B857C850E942D075FD163D1EDE2EC9336
:100B4600A885A73010F0E6E0E8871885E12F115058
:100B5600E03021F05DD1BDD060D1F8CF63D10E94E5
:100B6600D3074AD110E0E0E0F0E060E87FE355D13A
:100B760059D10E94B60868F04BD198D04ED11F5F6C
:100B8600173230F034D1A3EBB0E00E940B054BC016
:100B9600EFCF103021F435D1E0E3EC9320C0E12F04
:100BA6001150E030E1F034D194D08CD0DF01CB018C
:100BB6000E94620532D136D10E9471080E946007F8
:100BC6000E2F1FD194D0F0E023D10E94E8080E9496
:100BD60099070E9423082FD18FD00ED1E0CFE88548
:100BE600E030E9F00ED1EEE2EC93E885E150E887DB
:100BF600EF5FA9F020D15AD0FFD0E985FA856B8541
:100C06007C850E9460070E2FFCD071D0F0E013D1D6
:100C16000E94E8080E9499076FD0EED0E6CFAE8119
:100C2600BF81E0E0EC93198108812D9608950E941A
:100C36005A0984E00E944A0428960895ED91FD9190
:100C46003196FE93EE930895BA93AA932497E0E023
:100C5600E883E9830895AC81BD818E819F81E0E0C0
:100C6600F0E060E271E40E942308EC83FD836E836A
:100C76007F830895EC81FD816E817F81AC85BD8582
:100C86008E859F850E94B6080895AC85BD858E85A4
:100C96009F850895EDECFCEC6CEC7DE30E94230847
:100CA600EC87FD876E877F873F5F0895E0E0F0E081
:100CB60060E271E40E9423080895EC87FD876E8741
:100CC6007F870895A0E0B0E080E09FE30E94D3070D
:100CD6000895EDECFCEC6CEC7DE30E94230808958E
:100CE600A885B9851196A887B98711970895E02F29
:100CF600E05DEC93E02F08950E9464090E94CC0702
:100D06000895E885F9853196E887F98708952A9345
:100D1600AF81B885E985FA8509950895FE01E65AF9
:100D2600FF4F0190F081E02D08953497DE01A65A19
:100D3600BF4FED93FC930895AF81B885E985FA8599
:100D460009950895DE01A65ABF4F0D90BC91A02DBE
:100D56000895EA87FB876C877D870895DFDFE5CFF7
:100D6600EA85FB856C857D850895EE87FF87AE85D0
:100D7600BF850E9418051E2F0895E4DF14960E9471
:100D860041090895E88BF98B6A8B7B8B08950B7F5D
:100D9600ED89EA93DE01A95ABF4F0D90BC91A02DB3
:100DA600FE01E75AFF4F0190F081E02D0995503082
:100DB6000895E889F9896A897B89AA85BB858C8526
:100DC6009D850895DE011C960E94D6080E94410961
:100DD60008950E949204A3E0B0E00C942307A0E3D8
:100DE6000E947E048AEF90E00197F1F70895EE8164
:100DF600FF81FA93EA930895E987FA876B877C87E0
:100E06000895AE81BF811196AE83BF831197089571
:100E1600AA81BB818C819D810895EA83FB836C83C3
:100E26007D830895EA81FB816C817D81A985BA85E0
:100E36008B859C850895A985BA858B859C850895A3
:100E4600109639F084EC99E00197F1F7A89511977F
:100E5600C9F7089530976040704009F070580895BA
:100E6600552342F4503811F4E0FF04C03196691F4F
:100E7600791F6BF050E8572711F45F93CFC05F3F9F
:100E860031F0660F000C57956795752F08955F939F
:100E960000200AF0CFC0C8C050E8192E1522880FCE
:100EA600991F9527550F879550E8072E0522660F3F
:100EB600771F7527550F67950895689401C0E894C4
:100EC6005F93F2DF703818F07F3F08F4A7C056E151
:100ED600571BAAF4519558300EF4593030F0EFEF05
:100EE600FFEF6FEF7FE777F91AC077275523B9F041
:100EF600EE0FFF1F661F771F5A95D1F710C0772791
:100F0600583028F0EF2FF62F672F5850F9CF55237A
:100F160031F076956795F795E7955A95D1F70020C4
:100F26000AF445D15F910895689401C0E89430971A
:100F360060407040B1F0002426F0772312F400944C
:100F460036D1172E7EE1112032F07A95EE0FFF1F73
:100F5600661F111CF9CFEF2FF62F612D5F938ADFE5
:100F66005F9108954F93AF01FD01DA01AB01BC011A
:100F7600CA01402D012C142E4F910895EA0FFB1F34
:100F8600681F0895E095F0956095EF5FFF4F6F4FEE
:100F960008955F9381DF903871F150E8152604C0FB
:100FA6005F937ADF903839F1703821F1572F591B4A
:100FB6002BF112F4D7DFFACF583118F0AA27BB2746
:100FC6008827583028F0AB2FB82F88275850F9CFEC
:100FD600552329F08695B795A7955A95D9F7502D9B
:100FE600512572F0CBDF38F46795F795E795739541
:100FF60013F420C0B7DF3EDF5F910895D8F7FBCF2B
:10100600EA1BFB0B680B51F010F40094BBDF662360
:1010160092F3EE0FFF1F661F7A95CBF7EE27FF2799
:10102600662777275F910895EFEFFFEF6FE77FEF72
:101036005F910895EFEFFFEF6FE77FE75F91089508
:101046005F932ADF703851F3903841F301240894F6
:10105600791F23F41CF300203AF3ECCF0F921F9371
:101066002F933F934F93112722279927689FA0011B
:101076008F9F302D410D591F6B9F300D411D591FFC
:101086008E9F27D0BF9F25D06A9F23D0BE9F1DD09D
:10109600AF9F1BD0AE9F110D291F391F491F591F26
:1010A600E32FF42F652F522F4F913F912F911F91D0
:1010B6000F9066232AF0550FEE1FFF1F661F02C012
:1010C60073954BF2CDDE5F910895100D211D391FEA
:1010D60002C0200D311D491F591F08955F93DCDEA4
:1010E600703821F411200AF49FCFA4CF903809F468
:1010F60095CF01240894970B1BF4D4F30020F3CF6B
:10110600792F1F932F933F934F9311241127222753
:1011160033274427552790E2AE17BF0786074107B6
:1011260030F0AE1BBF0B860B410B089401C08894B0
:10113600551F221F331F111CAA1FBB1F881F441FC8
:101146009A9551F7F901612D4F913F912F911F917A
:10115600662332F0550FEE1FFF1F661F7A9543F286
:101166007FDE5F91089599239AF0772342F09717CF
:1011760048F029F4AE17BF07860720F031F098949F
:1011860088940895989408940895189488940895D6
:101196007723C2F7971798F3A9F7EA17FB076807AB
:1011A60088F399F3ECCF0024AF0DB01D0895F095A8
:1011B60060957095E195FF4F6F4F7F4F0895FE2F15
:1011C600FF0FFF0B6F2F7F2F08956F2F660F660B94
:1011D600762F0895002498E0AA0F001C0E1A10F42A
:1011E6000E0E01C0A1609A95B9F7EA2FA02D0895B9
:1011F60039D0F0DF0EF4E19508953F934F935F9356
:10120600002411244427552730E2AA0FBB1F881F4C
:10121600991F001C111C441F551F0E1A1F0A460B4E
:10122600570B28F40E0E1F1E461F571F01C0A16044
:101236003A9559F7FD01BC01D001CA015F914F9162
:101246003F910895E894A7FF02C0A1956894E7FD31
:10125600E195C0DFEA2F0EF4E1950895CEDFFD019A
:10126600BC010895E894E7FF02C0E1956894A7FFE2
:1012760004C0A19500F8039400FA0895ED91FC913D
:1012860011970895ED91FD916D917C9113970895B5
:10129600E881F9816A817B810895A881B9818A8173
:1012A6009B810895E883F9836A837B8308957A9303
:1012B6006A93FA93EA9308959A938A93BA93AA93B0
:1012C6000895182E862F612D192E972F712D1B2EFE
:1012D600BF2FF12D1A2EAE2FE12D089530976040C5
:1012E600704008955A934A933A932A931A930A930D
:1012F60008955D814C813B812A8119810881089579
:00000001FF
