:0C0000000C946E000C9400000C940000A6
:10000C000C9400000C9400000C9400000C94000064
:10001C000C9400000C9400000C9400000C94000054
:10002C000C9400000C9400000C9400000C94000044
:10003C000C9400000C9400000C9400000C94000034
:10004C000C9400000C9400000C9400000C94000024
:10005C000C9400000C9400000C9400000C94000014
:10006C000C9400000C9400000C9400000C94000004
:10007C000C9400000C9400000C9400000C940000F4
:10008C00000025312E32662056202D2D2025312EB4
:10009C00326620560053656C69736968203D2025D3
:1000AC00312E3266205600002D4E414E00000100CC
:1000BC002D4E414E00494E46000080C00200040007
:1000CC008C0001002405BA0002002805C6000000BF
:1000DC00F894EE27ECBBF1E0F5BFE5BFE0936C00C4
:1000EC008DE0A2E0BB27ED938A95E9F780E090E1E3
:1000FC00A0E0B1E0ED930197E9F7E8ECF0E0859131
:10010C009591009761F0A591B59105901590BF015F
:10011C00F00105900D920197E1F7FB01F0CF8BBF39
:10012C00EFEFEDBFE0E1EEBFC0E0D5E00C94AE0028
:10013C00AA93E881E064E7B9A1E0B0E00E94F90776
:10014C00369A349BFECF349AE4B1F5B121960895DA
:10015C00E0E0EABBEBBBEFEFE7BBE0E0E8BBEFEFC7
:10016C00E4BBE0E0E5BBE1BBE2BBE2B9E3B9E093A1
:10017C006100E0936200E0936400E0936500E0E8C6
:10018C00E8B9E0E4E7B9E4E8E6B9E0E0E0BDA0E115
:10019C000E946B060E943906A0E0CADFA0E0B5E021
:1001AC000E94BF06A0910005B09101058091020547
:1001BC00909103050E94C606E0930805F09309058B
:1001CC0060930A0570930B05A1E0B2DFA4E0B5E0E3
:1001DC000E94BF06A0910405B0910505809106050B
:1001EC00909107050E94C606E0930C05F0930D054F
:1001FC0060930E0570930F05E0E0EA93A0E00E9477
:10020C00D506EEE8F0E0FA93EA930E94DC060E9431
:10021C00350AE0910C05F0910D0560910E05709179
:10022C000F050E94350A88E00E94C2042C96A4E1B6
:10023C00B5E00E945A06A0910C05B0910D05809175
:10024C000E0590910F050E94DC060E94A208DF01AA
:10025C00CB010E943E05E0931005F09311056093CD
:10026C00120570931305E0E0EA93A1E00E94D50615
:10027C00E1EAF0E0FA93EA930E94E5060E94350A5F
:10028C0084E00E94C2042896A4E1B5E00E945A06BC
:10029C00A4E6B0E00E94F90748BA0E94E5060E9465
:1002AC004C0A19F4442455243BC00E94EE06E0E0AD
:1002BC00F0E060E87FE30E948C0918F4E0ECF0E0D9
:1002CC002EC00E94EE06E0E0F0E060E070E40E94D8
:1002DC008C0918F4E0EFF0E022C00E94EE06E0E09A
:1002EC00F0E060E470E40E948C0918F4ECEFF0E0AC
:1002FC0016C00E94EE06E0E0F0E060E870E40E94B8
:10030C008C0918F4EFEFF0E00AC0EAEAF0E0E4152B
:10031C00F50519F4E5E5F0E002C0EAEAF0E02F019A
:10032C00A4EFB1E00E94F90735CFFFCFBA93AA939F
:10033C001A930A93AA81BB8112960E94170A3097CE
:10034C0029F1AA81BB8114960E94170A8F0130975C
:10035C0061F00230E0E01E0780F0F80131978F0168
:10036C00AA81BB811496ED93FC93AA81BB81129652
:10037C000E94F7063197AC81A083AA81BB810E94B1
:10038C00170AFF2312F00E94F70606C0AA81BB8150
:10039C00EFEFFFEFED93FC931981088125960895FB
:1003AC000E94FD06E0E8EA83EFE3EB830E94520A29
:1003BC00EE85FF85EF3FAFEFFA0749F4E885F98545
:1003CC00FA93EA93A4EBB0E00E949906B7C0EF3F12
:1003DC00AFE7FA0749F4E885F985FA93EA93A5EBB8
:1003EC00B0E00E949906AAC0AB85A73010F0E6E0F9
:1003FC00EB871B85E12F1150E03019F00E940407A8
:10040C00F9CFEC85FD856E857F850E944C0A21F421
:10041C0030E00E9404072DC03B850E94130709F0B1
:10042C0008F40BC00E9404070E94130728F00E94D6
:10043C001E070E942307F8CF0DC00E94130740F43B
:10044C000E941E070E942F070E9436073150F5CFDD
:10045C000E940407EC85FD856E857F850E943B0715
:10046C000E9436070E94130720F00E941E070E946C
:10047C00230710E0EB85E117A8F1AC81BD818E81DB
:10048C009F810E9442070E943B07DF01CB010E9423
:10049C002705EC83FD836E837F830E941E070E94D9
:1004AC0047090E9436080E2F0E9449070E945007E8
:1004BC00FF27662777270E946F08AC81BD818E814C
:1004CC009F810E94F9080E941E070E9455070E94F6
:1004DC003607E12F1F5FE03069F60E944907EEE214
:1004EC00EC93C8CF0E945A073197AA85A08330306D
:1004FC002CF43195A885B985EDE203C0A885B985A2
:10050C00EBE2EC930E945A070E945A073197BF0105
:10051C00A32FEAE00E94D109E05DDB01EC930E947D
:10052C005A073197BF01A32FEAE00E94FB09E05D57
:10053C00DB01EC93A885B985E0E0EC930E94590AA5
:10054C0060960895BA93AA93EF9761970E94500A08
:10055C0010E0FE01E85AFF4F0190F081E02DE88792
:10056C00F987FE01EA5AFF4F0190F081E02DEE83EE
:10057C00FF83AE81BF81E0E0F0E0ED93FC93DE0100
:10058C00A45ABF4F0E94F7063197E4912E2FE0300A
:10059C0009F4E9C1E12FE03039F4253211F411E00E
:1005AC0002C00E946007DEC1E130C1F4253219F4AB
:1005BC000E946007D6C112E0E0E0ED8B00E02D3226
:1005CC0011F401E0CFC12B3219F4EBE2ED8BCAC16F
:1005DC00203219F4E0E2ED8BC5C102C0E23039F4EF
:1005EC0050E013E0203311F40068BCC102C0E330CA
:1005FC0091F4203310F02A3308F007C0AAE05A9F78
:10060C00502DE22FE0535E0FADC140E02E3211F4BD
:10061C0014E0A8C10FC0E43099F4203310F02A3351
:10062C0008F008C00062AAE04A9F402DE22FE05378
:10063C004E0F98C12C3619F4026015E093C103C01B
:10064C00E53009F08FC1E22FE33659F40E946707B9
:10065C000E946E070E946707A481AA930E947507E7
:10066C0080C1E53411F0E53609F403C0E63609F033
:10067C0048C0FE017696EE87FF870E947B070E949A
:10068C001B0A0E9482070E948707AD85AA2332F0BD
:10069C00AD89AB3259F0A03281F017C00E948907A6
:1006AC000E9403080E948207EDE2ED8B07FF05C054
:1006BC00ED89EA930E94750708C0EE85FF85319697
:1006CC00EE87FF873197AD89A08305FF46E026367C
:1006DC0051F40E9489070E94350A4A93AB89BC8960
:1006EC000E94460509C00E9489070E94350A4A9358
:1006FC002A93AC89BD8954DEFE0176960E948E0742
:10070C001EC0E33739F40E9487070E9496070E94A7
:10071C008E070EC0E037C1F40E9487070E9496072F
:10072C00EE87FF87AE85BF850E94B2061E2F08603C
:10073C000F77403011F0411708F001C0142F40E042
:10074C00E0E0EC8B30E06DC0E43611F0E93611F4EA
:10075C00046002C0E537A1F4EAE0EC8B01FF08C0AD
:10076C00E0E0FAEC6AE97BE30E949B071AE022C006
:10077C00E0E1F7E260E070E00E949B0715E01AC030
:10078C00E83511F4086003C0E83709F0EAC0E0E18D
:10079C00EC8B01FF08C0E0E0F0E060E070E10E944B
:1007AC009B0718E007C0E0E0F0E160E070E00E9419
:1007BC009B0714E0403011F00F7701C041E001FFBE
:1007CC0008C00E9487070E947B0714960E941B0A90
:1007DC000FC002FF07C00E9487070E9496070E9465
:1007EC00BE0906C00E9487070E94960766277727D6
:1007FC00EA87FB876C877D8702FF12C0AD85AA2331
:10080C0042F40E9489070E94B0090E948207EDE21F
:10081C00ED8BED89E03019F01F5F4F5F01C00B7F4E
:10082C00342F00FD14C0151710F4351708F00FC045
:10083C0007FF08C002FF04C00B7F2D89115001C0B7
:10084C0020E301C020E20E9460075150ECCF141746
:10085C0090F4006102FF06C00E94A00709F05150FD
:10086C0011504150E0E3EA930E947507503009F0B3
:10087C0051504150ECCF312FEC89E030B9F430308D
:10088C00A1F003FF06C0EE85FF852591EE87FF875B
:10089C0005C0AE85BF852D91AE87BF870E946007CE
:1008AC00503009F051503150EACF51C00E94B2077C
:1008BC000E94D6092E2F2A3030F003FF02C0295C8B
:1008CC0001C0295A01C0205D04FD21C0213360F410
:1008DC00A889B9898A899B89A130E0E0BE07E0E04C
:1008EC008E07E0E09E0709F40BC0431740F4531742
:1008FC0010F000FF01C010C020E207FF08C020E389
:10090C00006102FF04C00E94A00709F051500E9430
:10091C006007503009F0515031500E94B2070E94CC
:10092C00070A0E948207EC89A889B9898A899B8960
:10093C00FF27662777270E94D6090E949B07E88924
:10094C00F9896A897B890E944C0A09F0AFCF00FFB4
:10095C0008C0503031F05150E0E2EA930E94750724
:10096C00F8CF10E00CCEAE81BF810E94170A0E9416
:10097C00570AEF966F960895FF92F82E26970E94CD
:10098C00520A0E94BB07309719F4EFEFFFEF23C018
:10099C00DE0116960E94AC098D010E94BB07EE8306
:1009AC00FF83E0E0E887E987DE011A960E94AC0934
:1009BC000E94170AFA93EA931A930A93ECE9F1E06E
:1009CC00FA93EA93DE011A96BDDD9F01AE81BF81D9
:1009DC00E0E0EC93F9010E94590A2A96FF900895E1
:1009EC000E943A0A7B816A81F981E88177FB770F53
:1009FC0067FD7160972F9E5781F078F0983190F4D5
:100A0C00AA27BB27882708948795B795A7959A9509
:100A1C00D1F7EA23FB23682305C0E8947727EE2758
:100A2C00FF2766276F77769508F4606877F9A991A8
:100A3C00B99189919991EA17FB076807790797FB98
:100A4C0008950E943A0A0E942B0A0E94F6040E9402
:100A5C00300A19F40E94260A09C0E6F70E94260AF9
:100A6C00A0E0B0E080E89FE30E94A20824960895DD
:100A7C000E943A0AE991F991699179917F770895E9
:100A8C000E94FD06E0E0EA83EFE3EB831A930A93FE
:100A9C00EB85FC85EF3FAFEFFA0739F40E94C207F4
:100AAC00ACEBB0E00E949906ADC0EF3FAFE7FA07A0
:100ABC0039F40E94C207ADEBB0E00E949906A2C0C7
:100ACC00AC85AA2362F4E985FA856B857C850E9446
:100ADC0003080E94C7070E94CC07EDE2EC93A8859F
:100AEC00A73010F0E6E0E8871885E12F1150E030D0
:100AFC0039F00E94D3070E9442070E94D807F5CF15
:100B0C000E94DD070E94A9080E94C70710E0E0E0E0
:100B1C00F0E060E87FE30E94D8070E94DD070E94A6
:100B2C008C0988F00E94D3070E942F070E94D807D7
:100B3C001F5F173238F00E94C207A1ECB0E00E9490
:100B4C00990660C0EACF103029F40E94CC07E0E38C
:100B5C00EC932BC0E12F1150E03039F10E94D307F8
:100B6C000E9442070E943B07DF01CB010E94270530
:100B7C000E94D8070E94DD070E9447090E94360890
:100B8C000E2F0E94CC070E945007F0E00E94D30762
:100B9C000E94BE090E946F080E94F9080E94E60795
:100BAC000E9455070E94C707D5CFE885E03031F188
:100BBC000E94CC07EEE2EC93E885E150E887EF5F0A
:100BCC00E9F00E94E6070E942F070E94C707E985FB
:100BDC00FA856B857C850E9436080E2F0E94CC0707
:100BEC000E945007F0E00E94E6070E94BE090E9496
:100BFC006F080E9455070E94C707DECFAE81BF81E8
:100C0C00E0E0EC93198108812D960895AA93E5B341
:100C1C00EF70AE2FE881E07FEA2BE5BB81E18A958E
:100C2C00F1F7A99A81E18A95F1F7A99881E18A9562
:100C3C00F1F777C0AA93A881E9DFE881E295E88310
:100C4C00A881E4DF87EA8A95F1F76BC0AA93E88163
:100C5C00F0E0E85DFA4FE081A981AE0FEBDFB980DF
:100C6C00A88022960895A2E00E94EB07ACE0E2DF98
:100C7C00A1E00E94EB07E0E0AE2EBE2E0895AA93F1
:100C8C00A881AA3011F0BD1448F0E0E0EA93A394D7
:100C9C00AA2DDCDFA881AA3009F443C0B394A89A2A
:100CAC00A881C8DFA8983DC0BA93AA931A93A981CA
:100CBC00BA81ED91A983BA831E2FE03019F0A12FD0
:100CCC00DEDFF5CF188123960895AA93E4B3E06F85
:100CDC00E4BBA19AA09AA29AA998A898AA98D8809D
:100CEC00E881E058E0932A05E881E054E0932B0575
:100CFC00A4E1B0E00E94F9070E94F1070E94F107FD
:100D0C000E94F107A0E282DF8AEF90E00197F1F7F1
:100D1C00A8E290DFA4E08EDFA5E88CDFA6E08ADFF6
:100D2C00A2DF21960895BA93AA93E991F991A9911A
:100D3C00B991CD0105900D920020E1F7FC010895C9
:100D4C00BA93AA93A991B991EE27FF276D916623C7
:100D5C0011F03196FBCF0895BA93AA93AA27BB271B
:100D6C00E991F9910590002011F01196FBCFFD014E
:100D7C000895662777270E946F080E94210A08951C
:100D8C00E0E0F0E060E870E40E94F908DF01CB01DC
:100D9C00E0E0F0EC6FE774E40E94470908950E94CC
:100DAC002C06E4E1F5E0FA93EA930895E091080546
:100DBC00F091090560910A0570910B050895E09179
:100DCC001005F091110560911205709113050895AD
:100DDC00A0911005B0911105809112059091130509
:100DEC000895ED91FD913196FE93EE930895BA938B
:100DFC00AA932497E0E0E883E9830895AC81BD8150
:100E0C008E819F81E0E0F0E060E271E40E94F908DD
:100E1C00EC83FD836E837F830895EC81FD816E816D
:100E2C007F81AC85BD858E859F850E948C09089538
:100E3C00AC85BD858E859F850895EDECFCEC6CEC46
:100E4C007DE30E94F908EC87FD876E877F873F5F03
:100E5C000895E0E0F0E060E271E40E94F908089582
:100E6C00EC87FD876E877F870895A0E0B0E080E077
:100E7C009FE30E94A9080895EDECFCEC6CEC7DE37B
:100E8C000E94F9080895A885B9851196A887B98795
:100E9C0011970895E02FE05DEC93E02F08950E94E8
:100EAC003F0A0E94A2080895E885F9853196E887E3
:100EBC00F98708952A93AF81B885E985FA85099554
:100ECC000895FE01E65AFF4F0190F081E02D089540
:100EDC003497DE01A65ABF4FED93FC930895AF8172
:100EEC00B885E985FA8509950895DE01A65ABF4FA4
:100EFC000D90BC91A02D0895EA87FB876C877D87A8
:100F0C000895DFDFE5CFEA85FB856C857D85089547
:100F1C00EE87FF87AE85BF850E94A6061E2F08951B
:100F2C00E4DF14960E94170A0895E88BF98B6A8BFC
:100F3C007B8B08950B7FED89EA93DE01A95ABF4F95
:100F4C000D90BC91A02DFE01E75AFF4F0190F0814E
:100F5C00E02D099550300895E889F9896A897B89D3
:100F6C00AA85BB858C859D850895DE011C960E9403
:100F7C00AC090E94170A0895EE81FF81FA93EA9357
:100F8C000895E987FA876B877C870895AE81BF81C6
:100F9C001196AE83BF8311970895AA81BB818C8172
:100FAC009D810895EA83FB836C837D830895EA8198
:100FBC00FB816C817D81A985BA858B859C85089583
:100FCC00A985BA858B859C8508950E942006A3E08F
:100FDC00B0E00C94F907A0E30E940C068AEF90E0B5
:100FEC000197F1F70895109639F084EC99E0019788
:100FFC00F1F7A8951197C9F70895309760407040A4
:10100C0009F070580895552342F4503811F4E0FF5C
:10101C0004C03196691F791F6BF050E8572711F403
:10102C005F93CFC05F3F31F0660F000C579567950B
:10103C00752F08955F9300200AF0CFC0C8C050E808
:10104C00192E1522880F991F9527550F879550E853
:10105C00072E0522660F771F7527550F6795089584
:10106C00689401C0E8945F93F2DF703818F07F3F0A
:10107C0008F4A7C056E1571BAAF4519558300EF44A
:10108C00593030F0EFEFFFEF6FEF7FE777F91AC0D1
:10109C0077275523B9F0EE0FFF1F661F771F5A9560
:1010AC00D1F710C07727583028F0EF2FF62F672F85
:1010BC005850F9CF552331F076956795F795E7950C
:1010CC005A95D1F700200AF445D15F9108956894A0
:1010DC0001C0E894309760407040B1F0002426F0D5
:1010EC00772312F4009436D1172E7EE1112032F0C2
:1010FC007A95EE0FFF1F661F111CF9CFEF2FF62FFD
:10110C00612D5F938ADF5F9108954F93AF01FD01CD
:10111C00DA01AB01BC01CA01402D012C142E4F91F8
:10112C000895EA0FFB1F681F0895E095F0956095F0
:10113C00EF5FFF4F6F4F08955F9381DF903871F130
:10114C0050E8152604C05F937ADF903839F1703877
:10115C0021F1572F591B2BF112F4D7DFFACF58314D
:10116C0018F0AA27BB278827583028F0AB2FB82FA8
:10117C0088275850F9CF552329F08695B795A79510
:10118C005A95D9F7502D512572F0CBDF38F467956D
:10119C00F795E795739513F420C0B7DF3EDF5F91A9
:1011AC000895D8F7FBCFEA1BFB0B680B51F010F43A
:1011BC000094BBDF662392F3EE0FFF1F661F7A9538
:1011CC00CBF7EE27FF27662777275F910895EFEF80
:1011DC00FFEF6FE77FEF5F910895EFEFFFEF6FE7A2
:1011EC007FE75F9108955F932ADF703851F3903851
:1011FC0041F301240894791F23F41CF300203AF3E3
:10120C00ECCF0F921F932F933F934F9311272227CD
:10121C009927689FA0018F9F302D410D591F6B9FFF
:10122C00300D411D591F8E9F27D0BF9F25D06A9F1F
:10123C0023D0BE9F1DD0AF9F1BD0AE9F110D291F79
:10124C00391F491F591FE32FF42F652F522F4F9130
:10125C003F912F911F910F9066232AF0550FEE1F8F
:10126C00FF1F661F02C073954BF2CDDE5F91089590
:10127C00100D211D391F02C0200D311D491F591F92
:10128C0008955F93DCDE703821F411200AF49FCFAF
:10129C00A4CF903809F495CF01240894970B1BF434
:1012AC00D4F30020F3CF792F1F932F933F934F93B9
:1012BC0011241127222733274427552790E2AE17F4
:1012CC00BF078607410730F0AE1BBF0B860B410BE7
:1012DC00089401C08894551F221F331F111CAA1F8C
:1012EC00BB1F881F441F9A9551F7F901612D4F912F
:1012FC003F912F911F91662332F0550FEE1FFF1F68
:10130C00661F7A9543F27FDE5F91089599239AF0D8
:10131C00772342F0971748F029F4AE17BF078607DA
:10132C0020F031F098948894089598940894089536
:10133C001894889408957723C2F7971798F3A9F710
:10134C00EA17FB07680788F399F3ECCF0024AF0D7D
:10135C00B01D0895F09560957095E195FF4F6F4F16
:10136C007F4F0895FE2FFF0FFF0B6F2F7F2F0895D8
:10137C006F2F660F660B762F0895002498E0AA0F46
:10138C00001C0E1A10F40E0E01C0A1609A95B9F74C
:10139C00EA2FA02D089539D0F0DF0EF4E1950895D1
:1013AC003F934F935F93002411244427552730E239
:1013BC00AA0FBB1F881F991F001C111C441F551F0F
:1013CC000E1A1F0A460B570B28F40E0E1F1E461F33
:1013DC00571F01C0A1603A9559F7FD01BC01D0011E
:1013EC00CA015F914F913F910895E894A7FF02C005
:1013FC00A1956894E7FDE195C0DFEA2F0EF4E19525
:10140C000895CEDFFD01BC010895E894E7FF02C00A
:10141C00E1956894A7FF04C0A19500F8039400FA25
:10142C000895ED91FC9111970895ED91FD916D91B9
:10143C007C9113970895ED93FD936D937C93089590
:10144C00E881F9816A817B810895A881B9818A81BB
:10145C009B810895E883F9836A837B8308957A934B
:10146C006A93FA93EA9308959A938A93BA93AA93F8
:10147C000895182E862F612D192E972F712D1B2E46
:10148C00BF2FF12D1A2EAE2FE12D0895309760400D
:10149C00704008955A934A933A932A931A930A9355
:1014AC0008955D814C813B812A81198108810895C1
:00000001FF
