:020000000C945E
:100002006C000C9400000C9400000C9400000C9402
:1000120000000C9400000C9400000C9400000C945E
:1000220000000C9400000C9400000C9400000C944E
:1000320000000C9400000C9400000C9400000C943E
:1000420000000C9400000C9400000C9400000C942E
:1000520000000C9400000C9400000C9400000C941E
:1000620000000C9400000C9400000C9400000C940E
:1000720000000C9400000C9400000C9400000C94FE
:1000820000000C9400000C94000042616361204166
:1000920044434D50333230340053756875203D204F
:1000A20025352E336620430080C02D4E414E000080
:1000B20001002D4E414E00494E4600000F00000542
:1000C2008C000F000F058C0002003205AA0001000F
:1000D2003605B2000000F894EE27ECBBF1E0F5BF64
:1000E200E5BFE0936C008DE0A2E0BB27ED938A951B
:1000F200E9F780E090E1A0E0B1E0ED930197E9F744
:10010200EEEBF0E085919591009761F0A591B591A4
:1001120005901590BF01F00105900D920197E1F74E
:10012200FB01F0CF8BBFEFEFEDBFE0E1EEBFC0E030
:10013200D5E00C94C300AA930E947D09C09AC0988E
:10014200A4E00E94B6010E2F1127EC81E295E07F18
:10015200EE0FEE0FEC83AC810E94B6010E2F112739
:100162000F701070102F0027A0E00E94B6012E2FF2
:1001720033273070020F131FC09AF8010E948409BE
:100182000C94F601E7E0E7BBE0E0E8BBEFEFE4BB8D
:10019200E0E0E5BBE2E5EDB9E0E0EEB9A0E1B8D020
:1001A200E0E0EA93A0E075D0A0E0B5E0A0D055244D
:1001B200A52DC1DF3F017AD0E0E0EA93A0E069D04B
:1001C200AFE0B5E094D0F301662777270E949F073E
:1001D200DF01CB01E0E0F0E060E875E40E9477081F
:1001E200A0E0B0E08AEF93E40E942908DF01CB018E
:1001F200E0E0F0E06CE572E40E942706E0931E0561
:10020200F0931F056093200570932105E2E2F5E06B
:10021200FA93EA93EBE9F0E0FA93EA93E0911E0590
:10022200F0911F0560912005709121050E946009DF
:1002320084E00E94E4042896E0E0EA93A1E029D059
:10024200A2E2B5E054D0A4E6B0E00E942907AFCF05
:10025200FFCFAA93E5B3EF70AE2FE881E07FEA2BE0
:10026200E5BB81E18A95F1F7A99A81E18A95F1F7D7
:10027200A99881E18A95F1F77EC0AA93A881E9DF66
:10028200E881E295E883A881E4DF87EA8A95F1F7BD
:1002920072C0AA93E881F0E0EE5CFA4FE081A98196
:1002A200AE0FEBDF4980988022960895A2E00E946B
:1002B2002C06ACE0E2DFA1E00E942C06E0E09E2EDC
:1002C2004E2E0895AA93A881AA3011F0481448F03E
:1002D200E0E0EA939394A92DDCDFA881AA3009F427
:1002E2004AC04394A89AA881C8DFA89844C0BA9388
:1002F200AA931A93A981BA81ED91A983BA831E2F79
:10030200E03019F0A12FDEDFF5CF18812396089592
:10031200AA93E4B3E06FE4BBA19AA09AA29AA99827
:10032200A898AA988880E881E058E0933405E8818B
:10033200E054E0933505A4E1B0E00E9429070E9451
:1003420032060E9432060E943206A0E282DF8AEF63
:1003520090E00197F1F7A8E290DFA4E08EDFA5E834
:100362008CDFA6E08ADFA2DF06C0AA93E881EFB99C
:10037200779BFECFEFB121960895BA93AA931A9371
:100382000A93AA81BB8112960E944709309729F1EC
:10039200AA81BB8114960E9447098F01309761F0B0
:1003A2000230E0E01E0780F0F80131978F01AA8148
:1003B200BB811496ED93FC93AA81BB8112960E9495
:1003C2003A063197AC81A083AA81BB810E9447097A
:1003D200FF2312F00E943A0606C0AA81BB81EFEF0A
:1003E200FFEFED93FC9319810881259608950E94F1
:1003F2004006E0E8EA83EFE3EB830E947D09EE85A5
:10040200FF85EF3FAFEFFA0749F4E885F985FA93E4
:10041200EA93ACEAB0E00E941805B7C0EF3FAFE73D
:10042200FA0749F4E885F985FA93EA93ADEAB0E070
:100432000E941805AAC0AB85A73010F0E6E0EB8752
:100442001B85E12F1150E03019F00E944706F9CFC9
:10045200EC85FD856E857F850E94770921F430E069
:100462000E9447062DC03B850E94560609F008F4FB
:100472000BC00E9447060E94560628F00E946106A1
:100482000E946606F8CF0DC00E94560640F40E94F4
:1004920061060E9472060E9479063150F5CF0E94D1
:1004A2004706EC85FD856E857F850E947E060E944B
:1004B20079060E94560620F00E9461060E94660696
:1004C20010E0EB85E117A8F1AC81BD818E819F819F
:1004D2000E9485060E947E06DF01CB010E946F0505
:1004E200EC83FD836E837F830E9461060E947708FE
:1004F2000E9466070E2F0E948C060E949306FF2719
:10050200662777270E949F07AC81BD818E819F81DC
:100512000E9429080E9461060E9427060E9479060D
:10052200E12F1F5FE03069F60E948C06EEE2EC9349
:10053200C8CF0E9498063197AA85A08330302CF448
:100542003195A885B985EDE203C0A885B985EBE2AE
:10055200EC930E9498060E9498063197BF01A32F40
:10056200EAE00E940109E05DDB01EC930E9498063B
:100572003197BF01A32FEAE00E942B09E05DDB0166
:10058200EC93A885B985E0E0EC930E94840960961B
:100592000895BA93AA93EF9761970E947B0910E09E
:1005A200FE01E85AFF4F0190F081E02DE887F987BC
:1005B200FE01EA5AFF4F0190F081E02DEE83FF83A6
:1005C200AE81BF81E0E0F0E0ED93FC93DE01A45A3E
:1005D200BF4F0E943A063197E4912E2FE03009F482
:1005E200E9C1E12FE03039F4253211F411E002C003
:1005F2000E949E06DEC1E130C1F4253219F40E9448
:100602009E06D6C112E0E0E0ED8B00E02D3211F43F
:1006120001E0CFC12B3219F4EBE2ED8BCAC12032DB
:1006220019F4E0E2ED8BC5C102C0E23039F450E0CA
:1006320013E0203311F40068BCC102C0E33091F42E
:10064200203310F02A3308F007C0AAE05A9F502D39
:10065200E22FE0535E0FADC140E02E3211F414E000
:10066200A8C10FC0E43099F4203310F02A3308F007
:1006720008C00062AAE04A9F402DE22FE0534E0FCD
:1006820098C12C3619F4026015E093C103C0E5301D
:1006920009F08FC1E22FE33659F40E94A5060E94A9
:1006A200AC060E94A506A481AA930E94B30680C14B
:1006B200E53411F0E53609F403C0E63609F048C026
:1006C200FE017696EE87FF870E94B9060E944B09CB
:1006D2000E94C0060E94C506AD85AA2332F0AD89EC
:1006E200AB3259F0A03281F017C00E94C7060E94B7
:1006F20033070E94C006EDE2ED8B07FF05C0ED89CE
:10070200EA930E94B30608C0EE85FF853196EE8714
:10071200FF873197AD89A08305FF46E0263651F465
:100722000E94C7060E9460094A93AB89BC890E9455
:10073200860509C00E94C7060E9460094A932A934F
:10074200AC89BD8954DEFE0176960E94CC061EC09D
:10075200E33739F40E94C5060E94D4060E94CC06F3
:100762000EC0E037C1F40E94C5060E94D406EE878F
:10077200FF87AE85BF850E9431051E2F08600F7767
:10078200403011F0411708F001C0142F40E0E0E0C2
:10079200EC8B30E06DC0E43611F0E93611F4046000
:1007A20002C0E537A1F4EAE0EC8B01FF08C0E0E00B
:1007B200FAEC6AE97BE30E94D9061AE022C0E0E182
:1007C200F7E260E070E00E94D90615E01AC0E83551
:1007D20011F4086003C0E83709F0EAC0E0E1EC8BED
:1007E20001FF08C0E0E0F0E060E070E10E94D9069D
:1007F20018E007C0E0E0F0E160E070E00E94D90696
:1008020014E0403011F00F7701C041E001FF08C051
:100812000E94C5060E94B90614960E944B090FC099
:1008220002FF07C00E94C5060E94D4060E94EE087D
:1008320006C00E94C5060E94D40666277727EA876B
:10084200FB876C877D8702FF12C0AD85AA2342F425
:100852000E94C7060E94E0080E94C006EDE2ED8BEE
:10086200ED89E03019F01F5F4F5F01C00B7F342F1D
:1008720000FD14C0151710F4351708F00FC007FF5C
:1008820008C002FF04C00B7F2D89115001C020E374
:1008920001C020E20E949E065150ECCF141790F442
:1008A200006102FF06C00E94DE0609F0515011509D
:1008B2004150E0E3EA930E94B306503009F05150F0
:1008C2004150ECCF312FEC89E030B9F43030A1F057
:1008D20003FF06C0EE85FF852591EE87FF8705C0E1
:1008E200AE85BF852D91AE87BF870E949E06503090
:1008F20009F051503150EACF51C00E94F0060E94D7
:1009020006092E2F2A3030F003FF02C0295C01C0F5
:10091200295A01C0205D04FD21C0213360F4A88959
:10092200B9898A899B89A130E0E0BE07E0E08E07A1
:10093200E0E09E0709F40BC0431740F4531710F090
:1009420000FF01C010C020E207FF08C020E30061E1
:1009520002FF04C00E94DE0609F051500E949E066A
:10096200503009F0515031500E94F0060E94370970
:100972000E94C006EC89A889B9898A899B89FF27C8
:10098200662777270E9406090E94D906E889F98915
:100992006A897B890E94770909F0AFCF00FF08C0FE
:1009A200503031F05150E0E2EA930E94B306F8CFA2
:1009B20010E00CCEAE81BF810E9447090E948209DD
:1009C200EF966F960895FF92F82E26970E947D0962
:1009D2000E94F906309719F4EFEFFFEF23C0DE0112
:1009E20016960E94DC088D010E94F906EE83FF83B1
:1009F200E0E0E887E987DE011A960E94DC080E949F
:100A02004709FA93EA931A930A93EEEBF1E0FA9309
:100A1200EA93DE011A96BDDD9F01AE81BF81E0E05F
:100A2200EC93F9010E9484092A96FF900895BA93E3
:100A3200AA93E991F991A991B991CD0105900D92ED
:100A42000020E1F7FC010895BA93AA93A991B99104
:100A5200EE27FF276D91662311F03196FBCF0895A3
:100A6200BA93AA93AA27BB27E991F991059000208E
:100A720011F01196FBCFFD0108950E9465097B815B
:100A82006A81F981E88177FB770F67FD7160972FA3
:100A92009E5781F078F0983190F4AA27BB278827D7
:100AA20008948795B795A7959A95D1F7EA23FB23E2
:100AB200682305C0E8947727EE27FF2766276F771C
:100AC200769508F4606877F9A991B991899199911D
:100AD200EA17FB076807790797FB08950E946509E3
:100AE2000E9456090E943E050E945B0919F40E9469
:100AF200510909C0E6F70E945109A0E0B0E080E880
:100B02009FE30E94D20724960895B9D0E0E0EA83D9
:100B1200EFE3EB831A930A93EB85FC85EF3FAFEF8C
:100B2200FA0731F46CD1A4EBB0E00E9418058AC038
:100B3200EF3FAFE7FA0731F462D1A5EBB0E00E94D4
:100B4200180580C0AC85AA2352F4E985FA856B8525
:100B52007C850E94330758D15CD1EDE2EC93A885E5
:100B6200A73010F0E6E0E8871885E12F1150E03059
:100B720021F056D1C9D059D1F8CF5CD10E94D90702
:100B820043D110E0E0E0F0E060E87FE34ED152D1E3
:100B92000E94BC0868F044D1A4D047D11F5F17322D
:100BA20030F02DD1A9EBB0E00E9418054BC0EFCF79
:100BB200103021F42ED1E0E3EC9320C0E12F11504C
:100BC200E030E1F02DD1A0D098D0DF01CB010E941E
:100BD2006F052BD12FD10E9477080E9466070E2F36
:100BE20018D1A0D0F0E01CD10E94EE080E949F070D
:100BF2000E94290828D12AD007D1E0CFE885E03029
:100C0200E9F007D1EEE2EC93E885E150E887EF5F87
:100C1200A9F019D166D0F8D0E985FA856B857C8573
:100C22000E9466070E2FF5D07DD0F0E00CD10E9415
:100C3200EE080E949F070AD0E7D0E6CFAE81BF81BF
:100C4200E0E0EC93198108812D9608950E946A09CB
:100C52000E94D20708950E943E01A3E0B0E00C94E6
:100C62002907A0E30E942A018AEF90E00197F1F799
:100C72000895ED91FD913196FE93EE930895BA9306
:100C8200AA932497E0E0E883E9830895AC81BD81CB
:100C92008E819F81E0E0F0E060E271E40E94290829
:100CA200EC83FD836E837F830895EC81FD816E81E9
:100CB2007F81AC85BD858E859F850E94BC08089585
:100CC200AC85BD858E859F850895EDECFCEC6CECC2
:100CD2007DE30E942908EC87FD876E877F873F5F4F
:100CE2000895E0E0F0E060E271E40E9429080895CE
:100CF200EC87FD876E877F870895A0E0B0E080E0F3
:100D02009FE30E94D9070895EDECFCEC6CEC7DE3C7
:100D12000E9429080895A885B9851196A887B987E0
:100D220011970895E02FE05DEC93E02F0895E88598
:100D3200F9853196E887F98708952A93AF81B885B6
:100D4200E985FA8509950895FE01E65AFF4F01905B
:100D5200F081E02D08953497DE01A65ABF4FED933E
:100D6200FC930895AF81B885E985FA8509950895C0
:100D7200DE01A65ABF4F0D90BC91A02D0895EA87BF
:100D8200FB876C877D870895DFDFE5CFEA85FB85EA
:100D92006C857D850895EE87FF87AE85BF850E94AD
:100DA20025051E2F0895E4DF14960E944709089531
:100DB200E88BF98B6A8B7B8B08950B7FED89EA9325
:100DC200DE01A95ABF4F0D90BC91A02DFE01E75A3A
:100DD200FF4F0190F081E02D099550300895E88988
:100DE200F9896A897B89AA85BB858C859D85089549
:100DF200DE011C960E94DC080E9447090895EE81DC
:100E0200FF81FA93EA930895E987FA876B877C87D3
:100E12000895AE81BF811196AE83BF831197089565
:100E2200AA81BB818C819D810895EA83FB836C83B7
:100E32007D830895EA81FB816C817D81A985BA85D4
:100E42008B859C850895A985BA858B859C85089597
:100E5200109639F084EC99E00197F1F7A895119773
:100E6200C9F7089530976040704009F070580895AE
:100E7200552342F4503811F4E0FF04C03196691F43
:100E8200791F6BF050E8572711F45F93CFC05F3F93
:100E920031F0660F000C57956795752F08955F9393
:100EA20000200AF0CFC0C8C050E8192E1522880FC2
:100EB200991F9527550F879550E8072E0522660F33
:100EC200771F7527550F67950895689401C0E894B8
:100ED2005F93F2DF703818F07F3F08F4A7C056E145
:100EE200571BAAF4519558300EF4593030F0EFEFF9
:100EF200FFEF6FEF7FE777F91AC077275523B9F035
:100F0200EE0FFF1F661F771F5A95D1F710C0772784
:100F1200583028F0EF2FF62F672F5850F9CF55236E
:100F220031F076956795F795E7955A95D1F70020B8
:100F32000AF445D15F910895689401C0E89430970E
:100F420060407040B1F0002426F0772312F4009440
:100F520036D1172E7EE1112032F07A95EE0FFF1F67
:100F6200661F111CF9CFEF2FF62F612D5F938ADFD9
:100F72005F9108954F93AF01FD01DA01AB01BC010E
:100F8200CA01402D012C142E4F910895EA0FFB1F28
:100F9200681F0895E095F0956095EF5FFF4F6F4FE2
:100FA20008955F9381DF903871F150E8152604C0EF
:100FB2005F937ADF903839F1703821F1572F591B3E
:100FC2002BF112F4D7DFFACF583118F0AA27BB273A
:100FD2008827583028F0AB2FB82F88275850F9CFE0
:100FE200552329F08695B795A7955A95D9F7502D8F
:100FF200512572F0CBDF38F46795F795E795739535
:1010020013F420C0B7DF3EDF5F910895D8F7FBCF1E
:10101200EA1BFB0B680B51F010F40094BBDF662354
:1010220092F3EE0FFF1F661F7A95CBF7EE27FF278D
:10103200662777275F910895EFEFFFEF6FE77FEF66
:101042005F910895EFEFFFEF6FE77FE75F910895FC
:101052005F932ADF703851F3903841F301240894EA
:10106200791F23F41CF300203AF3ECCF0F921F9365
:101072002F933F934F93112722279927689FA0010F
:101082008F9F302D410D591F6B9F300D411D591FF0
:101092008E9F27D0BF9F25D06A9F23D0BE9F1DD091
:1010A200AF9F1BD0AE9F110D291F391F491F591F1A
:1010B200E32FF42F652F522F4F913F912F911F91C4
:1010C2000F9066232AF0550FEE1FFF1F661F02C006
:1010D20073954BF2CDDE5F910895100D211D391FDE
:1010E20002C0200D311D491F591F08955F93DCDE98
:1010F200703821F411200AF49FCFA4CF903809F45C
:1011020095CF01240894970B1BF4D4F30020F3CF5E
:10111200792F1F932F933F934F9311241127222747
:1011220033274427552790E2AE17BF0786074107AA
:1011320030F0AE1BBF0B860B410B089401C08894A4
:10114200551F221F331F111CAA1FBB1F881F441FBC
:101152009A9551F7F901612D4F913F912F911F916E
:10116200662332F0550FEE1FFF1F661F7A9543F27A
:101172007FDE5F91089599239AF0772342F09717C3
:1011820048F029F4AE17BF07860720F031F0989493
:1011920088940895989408940895189488940895CA
:1011A2007723C2F7971798F3A9F7EA17FB0768079F
:1011B20088F399F3ECCF0024AF0DB01D0895F0959C
:1011C20060957095E195FF4F6F4F7F4F0895FE2F09
:1011D200FF0FFF0B6F2F7F2F08956F2F660F660B88
:1011E200762F0895002498E0AA0F001C0E1A10F41E
:1011F2000E0E01C0A1609A95B9F7EA2FA02D0895AD
:1012020039D0F0DF0EF4E19508953F934F935F9349
:10121200002411244427552730E2AA0FBB1F881F40
:10122200991F001C111C441F551F0E1A1F0A460B42
:10123200570B28F40E0E1F1E461F571F01C0A16038
:101242003A9559F7FD01BC01D001CA015F914F9156
:101252003F910895E894A7FF02C0A1956894E7FD25
:10126200E195C0DFEA2F0EF4E1950895CEDFFD018E
:10127200BC010895E894E7FF02C0E1956894A7FFD6
:1012820004C0A19500F8039400FA0895ED91FC9131
:1012920011970895ED91FD916D917C9113970895A9
:1012A200E881F9816A817B810895A881B9818A8167
:1012B2009B810895E883F9836A837B8308957A93F7
:1012C2006A93FA93EA9308959A938A93BA93AA93A4
:1012D2000895182E862F612D192E972F712D1B2EF2
:1012E200BF2FF12D1A2EAE2FE12D089530976040B9
:1012F200704008955A934A933A932A931A930A9301
:1013020008955D814C813B812A811981088108956C
:00000001FF
